{
	"contracts/ether_piggy_bank.sol": {
		"EtherPiggyBank": {
			"abi": [
				{
					"inputs": [],
					"stateMutability": "nonpayable",
					"type": "constructor"
				},
				{
					"anonymous": false,
					"inputs": [
						{
							"indexed": true,
							"internalType": "address",
							"name": "_owner",
							"type": "address"
						},
						{
							"indexed": false,
							"internalType": "uint256",
							"name": "_amt",
							"type": "uint256"
						}
					],
					"name": "Deposited",
					"type": "event"
				},
				{
					"anonymous": false,
					"inputs": [
						{
							"indexed": true,
							"internalType": "address",
							"name": "_to",
							"type": "address"
						},
						{
							"indexed": false,
							"internalType": "uint256",
							"name": "_amt",
							"type": "uint256"
						}
					],
					"name": "Transfered",
					"type": "event"
				},
				{
					"anonymous": false,
					"inputs": [
						{
							"indexed": true,
							"internalType": "address",
							"name": "_owner",
							"type": "address"
						},
						{
							"indexed": false,
							"internalType": "uint256",
							"name": "_amt",
							"type": "uint256"
						}
					],
					"name": "Withdraw",
					"type": "event"
				},
				{
					"inputs": [],
					"name": "deposit",
					"outputs": [],
					"stateMutability": "payable",
					"type": "function"
				},
				{
					"inputs": [],
					"name": "getBalance",
					"outputs": [
						{
							"internalType": "uint256",
							"name": "",
							"type": "uint256"
						}
					],
					"stateMutability": "view",
					"type": "function"
				},
				{
					"inputs": [],
					"name": "owner",
					"outputs": [
						{
							"internalType": "address",
							"name": "",
							"type": "address"
						}
					],
					"stateMutability": "view",
					"type": "function"
				},
				{
					"inputs": [
						{
							"internalType": "address",
							"name": "to",
							"type": "address"
						},
						{
							"internalType": "uint256",
							"name": "_amt",
							"type": "uint256"
						}
					],
					"name": "transwerFunds",
					"outputs": [],
					"stateMutability": "nonpayable",
					"type": "function"
				},
				{
					"inputs": [
						{
							"internalType": "uint256",
							"name": "_amt",
							"type": "uint256"
						}
					],
					"name": "withdraw",
					"outputs": [],
					"stateMutability": "nonpayable",
					"type": "function"
				},
				{
					"inputs": [],
					"name": "withdrawAll",
					"outputs": [],
					"stateMutability": "nonpayable",
					"type": "function"
				},
				{
					"stateMutability": "payable",
					"type": "receive"
				}
			],
			"devdoc": {
				"kind": "dev",
				"methods": {},
				"version": 1
			},
			"evm": {
				"assembly": "    /* \"contracts/ether_piggy_bank.sol\":61:2288  contract EtherPiggyBank{... */\n  mstore(0x40, 0x80)\n    /* \"contracts/ether_piggy_bank.sol\":196:246  constructor(){... */\n  callvalue\n  dup1\n  iszero\n  tag_1\n  jumpi\n  revert(0x00, 0x00)\ntag_1:\n  pop\n    /* \"contracts/ether_piggy_bank.sol\":228:238  msg.sender */\n  caller\n    /* \"contracts/ether_piggy_bank.sol\":220:225  owner */\n  0x00\n  0x00\n    /* \"contracts/ether_piggy_bank.sol\":220:238  owner = msg.sender */\n  0x0100\n  exp\n  dup2\n  sload\n  dup2\n  0xffffffffffffffffffffffffffffffffffffffff\n  mul\n  not\n  and\n  swap1\n  dup4\n  0xffffffffffffffffffffffffffffffffffffffff\n  and\n  mul\n  or\n  swap1\n  sstore\n  pop\n    /* \"contracts/ether_piggy_bank.sol\":61:2288  contract EtherPiggyBank{... */\n  dataSize(sub_0)\n  dup1\n  dataOffset(sub_0)\n  0x00\n  codecopy\n  0x00\n  return\nstop\n\nsub_0: assembly {\n        /* \"contracts/ether_piggy_bank.sol\":61:2288  contract EtherPiggyBank{... */\n      mstore(0x40, 0x80)\n      jumpi(tag_1, lt(calldatasize, 0x04))\n      shr(0xe0, calldataload(0x00))\n      dup1\n      0x0cc50936\n      eq\n      tag_3\n      jumpi\n      dup1\n      0x12065fe0\n      eq\n      tag_4\n      jumpi\n      dup1\n      0x2e1a7d4d\n      eq\n      tag_5\n      jumpi\n      dup1\n      0x853828b6\n      eq\n      tag_6\n      jumpi\n      dup1\n      0x8da5cb5b\n      eq\n      tag_7\n      jumpi\n      dup1\n      0xd0e30db0\n      eq\n      tag_8\n      jumpi\n      jump(tag_2)\n    tag_1:\n      jumpi(tag_2, calldatasize)\n        /* \"contracts/ether_piggy_bank.sol\":658:663  owner */\n      0x00\n      0x00\n      swap1\n      sload\n      swap1\n      0x0100\n      exp\n      swap1\n      div\n      0xffffffffffffffffffffffffffffffffffffffff\n      and\n        /* \"contracts/ether_piggy_bank.sol\":648:675  Deposited(owner, msg.value) */\n      0xffffffffffffffffffffffffffffffffffffffff\n      and\n      0x2da466a7b24304f47e87fa2e1e5a81b9831ce54fec19055ce277ca2f39ba42c4\n        /* \"contracts/ether_piggy_bank.sol\":665:674  msg.value */\n      callvalue\n        /* \"contracts/ether_piggy_bank.sol\":648:675  Deposited(owner, msg.value) */\n      mload(0x40)\n      tag_11\n      swap2\n      swap1\n      tag_12\n      jump\t// in\n    tag_11:\n      mload(0x40)\n      dup1\n      swap2\n      sub\n      swap1\n      log2\n        /* \"contracts/ether_piggy_bank.sol\":61:2288  contract EtherPiggyBank{... */\n      stop\n    tag_2:\n      revert(0x00, 0x00)\n        /* \"contracts/ether_piggy_bank.sol\":1933:2285  function transwerFunds(address to, uint256 _amt) public {... */\n    tag_3:\n      callvalue\n      dup1\n      iszero\n      tag_13\n      jumpi\n      revert(0x00, 0x00)\n    tag_13:\n      pop\n      tag_14\n      0x04\n      dup1\n      calldatasize\n      sub\n      dup2\n      add\n      swap1\n      tag_15\n      swap2\n      swap1\n      tag_16\n      jump\t// in\n    tag_15:\n      tag_17\n      jump\t// in\n    tag_14:\n      stop\n        /* \"contracts/ether_piggy_bank.sol\":948:1083  function getBalance() public view returns(uint256){... */\n    tag_4:\n      callvalue\n      dup1\n      iszero\n      tag_18\n      jumpi\n      revert(0x00, 0x00)\n    tag_18:\n      pop\n      tag_19\n      tag_20\n      jump\t// in\n    tag_19:\n      mload(0x40)\n      tag_21\n      swap2\n      swap1\n      tag_12\n      jump\t// in\n    tag_21:\n      mload(0x40)\n      dup1\n      swap2\n      sub\n      swap1\n      return\n        /* \"contracts/ether_piggy_bank.sol\":1091:1693  function withdraw(uint256 _amt) public {... */\n    tag_5:\n      callvalue\n      dup1\n      iszero\n      tag_22\n      jumpi\n      revert(0x00, 0x00)\n    tag_22:\n      pop\n      tag_23\n      0x04\n      dup1\n      calldatasize\n      sub\n      dup2\n      add\n      swap1\n      tag_24\n      swap2\n      swap1\n      tag_25\n      jump\t// in\n    tag_24:\n      tag_26\n      jump\t// in\n    tag_23:\n      stop\n        /* \"contracts/ether_piggy_bank.sol\":1701:1925  function withdrawAll() public {... */\n    tag_6:\n      callvalue\n      dup1\n      iszero\n      tag_27\n      jumpi\n      revert(0x00, 0x00)\n    tag_27:\n      pop\n      tag_28\n      tag_29\n      jump\t// in\n    tag_28:\n      stop\n        /* \"contracts/ether_piggy_bank.sol\":91:111  address public owner */\n    tag_7:\n      callvalue\n      dup1\n      iszero\n      tag_30\n      jumpi\n      revert(0x00, 0x00)\n    tag_30:\n      pop\n      tag_31\n      tag_32\n      jump\t// in\n    tag_31:\n      mload(0x40)\n      tag_33\n      swap2\n      swap1\n      tag_34\n      jump\t// in\n    tag_33:\n      mload(0x40)\n      dup1\n      swap2\n      sub\n      swap1\n      return\n        /* \"contracts/ether_piggy_bank.sol\":754:940  function deposit() external payable{... */\n    tag_8:\n      tag_35\n      tag_36\n      jump\t// in\n    tag_35:\n      stop\n        /* \"contracts/ether_piggy_bank.sol\":1933:2285  function transwerFunds(address to, uint256 _amt) public {... */\n    tag_17:\n        /* \"contracts/ether_piggy_bank.sol\":2000:2017  uint256 amountBal */\n      0x00\n        /* \"contracts/ether_piggy_bank.sol\":2020:2041  address(this).balance */\n      selfbalance\n        /* \"contracts/ether_piggy_bank.sol\":2000:2041  uint256 amountBal = address(this).balance */\n      swap1\n      pop\n        /* \"contracts/ether_piggy_bank.sol\":2065:2074  amountBal */\n      dup1\n        /* \"contracts/ether_piggy_bank.sol\":2060:2064  _amt */\n      dup3\n        /* \"contracts/ether_piggy_bank.sol\":2060:2074  _amt<amountBal */\n      lt\n        /* \"contracts/ether_piggy_bank.sol\":2052:2099  require(_amt<amountBal, \"Insufficient Balance\") */\n      tag_38\n      jumpi\n      mload(0x40)\n      0x08c379a000000000000000000000000000000000000000000000000000000000\n      dup2\n      mstore\n      0x04\n      add\n      tag_39\n      swap1\n      tag_40\n      jump\t// in\n    tag_39:\n      mload(0x40)\n      dup1\n      swap2\n      sub\n      swap1\n      revert\n    tag_38:\n        /* \"contracts/ether_piggy_bank.sol\":2128:2129  0 */\n      0x00\n        /* \"contracts/ether_piggy_bank.sol\":2118:2127  amountBal */\n      dup2\n        /* \"contracts/ether_piggy_bank.sol\":2118:2129  amountBal>0 */\n      gt\n        /* \"contracts/ether_piggy_bank.sol\":2110:2154  require(amountBal>0, \"No Funds to Transfer\") */\n      tag_41\n      jumpi\n      mload(0x40)\n      0x08c379a000000000000000000000000000000000000000000000000000000000\n      dup2\n      mstore\n      0x04\n      add\n      tag_42\n      swap1\n      tag_43\n      jump\t// in\n    tag_42:\n      mload(0x40)\n      dup1\n      swap2\n      sub\n      swap1\n      revert\n    tag_41:\n        /* \"contracts/ether_piggy_bank.sol\":2165:2181  uint256 finalAmt */\n      0x00\n        /* \"contracts/ether_piggy_bank.sol\":2189:2196  1 ether */\n      0x0de0b6b3a7640000\n        /* \"contracts/ether_piggy_bank.sol\":2184:2188  _amt */\n      dup4\n        /* \"contracts/ether_piggy_bank.sol\":2184:2196  _amt*1 ether */\n      tag_44\n      swap2\n      swap1\n      tag_45\n      jump\t// in\n    tag_44:\n        /* \"contracts/ether_piggy_bank.sol\":2165:2196  uint256 finalAmt = _amt*1 ether */\n      swap1\n      pop\n        /* \"contracts/ether_piggy_bank.sol\":2215:2217  to */\n      dup4\n        /* \"contracts/ether_piggy_bank.sol\":2207:2227  payable(to).transfer */\n      0xffffffffffffffffffffffffffffffffffffffff\n      and\n        /* \"contracts/ether_piggy_bank.sol\":2207:2237  payable(to).transfer(finalAmt) */\n      0x08fc\n        /* \"contracts/ether_piggy_bank.sol\":2228:2236  finalAmt */\n      dup3\n        /* \"contracts/ether_piggy_bank.sol\":2207:2237  payable(to).transfer(finalAmt) */\n      swap1\n      dup2\n      iszero\n      mul\n      swap1\n      mload(0x40)\n      0x00\n      mload(0x40)\n      dup1\n      dup4\n      sub\n      dup2\n      dup6\n      dup9\n      dup9\n      call\n      swap4\n      pop\n      pop\n      pop\n      pop\n      iszero\n      dup1\n      iszero\n      tag_47\n      jumpi\n      returndatacopy(0x00, 0x00, returndatasize)\n      revert(0x00, returndatasize)\n    tag_47:\n      pop\n        /* \"contracts/ether_piggy_bank.sol\":2264:2266  to */\n      dup4\n        /* \"contracts/ether_piggy_bank.sol\":2253:2277  Transfered(to, finalAmt) */\n      0xffffffffffffffffffffffffffffffffffffffff\n      and\n      0x419013ffbfd3a7e95a13645088f1f9b8aff6057aaa2a840cc18ddbbec3d1677c\n        /* \"contracts/ether_piggy_bank.sol\":2268:2276  finalAmt */\n      dup3\n        /* \"contracts/ether_piggy_bank.sol\":2253:2277  Transfered(to, finalAmt) */\n      mload(0x40)\n      tag_48\n      swap2\n      swap1\n      tag_12\n      jump\t// in\n    tag_48:\n      mload(0x40)\n      dup1\n      swap2\n      sub\n      swap1\n      log2\n        /* \"contracts/ether_piggy_bank.sol\":1989:2285  {... */\n      pop\n      pop\n        /* \"contracts/ether_piggy_bank.sol\":1933:2285  function transwerFunds(address to, uint256 _amt) public {... */\n      pop\n      pop\n      jump\t// out\n        /* \"contracts/ether_piggy_bank.sol\":948:1083  function getBalance() public view returns(uint256){... */\n    tag_20:\n        /* \"contracts/ether_piggy_bank.sol\":990:997  uint256 */\n      0x00\n        /* \"contracts/ether_piggy_bank.sol\":1009:1020  uint256 bal */\n      0x00\n        /* \"contracts/ether_piggy_bank.sol\":1047:1054  1 ether */\n      0x0de0b6b3a7640000\n        /* \"contracts/ether_piggy_bank.sol\":1023:1044  address(this).balance */\n      selfbalance\n        /* \"contracts/ether_piggy_bank.sol\":1023:1054  address(this).balance / 1 ether */\n      tag_50\n      swap2\n      swap1\n      tag_51\n      jump\t// in\n    tag_50:\n        /* \"contracts/ether_piggy_bank.sol\":1009:1054  uint256 bal = address(this).balance / 1 ether */\n      swap1\n      pop\n        /* \"contracts/ether_piggy_bank.sol\":1072:1075  bal */\n      dup1\n        /* \"contracts/ether_piggy_bank.sol\":1065:1075  return bal */\n      swap2\n      pop\n      pop\n        /* \"contracts/ether_piggy_bank.sol\":948:1083  function getBalance() public view returns(uint256){... */\n      swap1\n      jump\t// out\n        /* \"contracts/ether_piggy_bank.sol\":1091:1693  function withdraw(uint256 _amt) public {... */\n    tag_26:\n        /* \"contracts/ether_piggy_bank.sol\":1163:1168  owner */\n      0x00\n      0x00\n      swap1\n      sload\n      swap1\n      0x0100\n      exp\n      swap1\n      div\n      0xffffffffffffffffffffffffffffffffffffffff\n      and\n        /* \"contracts/ether_piggy_bank.sol\":1149:1168  msg.sender == owner */\n      0xffffffffffffffffffffffffffffffffffffffff\n      and\n        /* \"contracts/ether_piggy_bank.sol\":1149:1159  msg.sender */\n      caller\n        /* \"contracts/ether_piggy_bank.sol\":1149:1168  msg.sender == owner */\n      0xffffffffffffffffffffffffffffffffffffffff\n      and\n      eq\n        /* \"contracts/ether_piggy_bank.sol\":1141:1206  require(msg.sender == owner, \"Only owner can withdraw the money\") */\n      tag_53\n      jumpi\n      mload(0x40)\n      0x08c379a000000000000000000000000000000000000000000000000000000000\n      dup2\n      mstore\n      0x04\n      add\n      tag_54\n      swap1\n      tag_55\n      jump\t// in\n    tag_54:\n      mload(0x40)\n      dup1\n      swap2\n      sub\n      swap1\n      revert\n    tag_53:\n        /* \"contracts/ether_piggy_bank.sol\":1268:1282  uint256 amount */\n      0x00\n        /* \"contracts/ether_piggy_bank.sol\":1285:1306  address(this).balance */\n      selfbalance\n        /* \"contracts/ether_piggy_bank.sol\":1268:1306  uint256 amount = address(this).balance */\n      swap1\n      pop\n        /* \"contracts/ether_piggy_bank.sol\":1332:1333  0 */\n      0x00\n        /* \"contracts/ether_piggy_bank.sol\":1325:1331  amount */\n      dup2\n        /* \"contracts/ether_piggy_bank.sol\":1325:1333  amount>0 */\n      gt\n        /* \"contracts/ether_piggy_bank.sol\":1317:1358  require(amount>0, \"No funds to Withdraw\") */\n      tag_56\n      jumpi\n      mload(0x40)\n      0x08c379a000000000000000000000000000000000000000000000000000000000\n      dup2\n      mstore\n      0x04\n      add\n      tag_57\n      swap1\n      tag_58\n      jump\t// in\n    tag_57:\n      mload(0x40)\n      dup1\n      swap2\n      sub\n      swap1\n      revert\n    tag_56:\n        /* \"contracts/ether_piggy_bank.sol\":1384:1390  amount */\n      dup1\n        /* \"contracts/ether_piggy_bank.sol\":1377:1381  _amt */\n      dup3\n        /* \"contracts/ether_piggy_bank.sol\":1377:1390  _amt < amount */\n      lt\n        /* \"contracts/ether_piggy_bank.sol\":1369:1416  require(_amt < amount, \"Insufficient Balance\" ) */\n      tag_59\n      jumpi\n      mload(0x40)\n      0x08c379a000000000000000000000000000000000000000000000000000000000\n      dup2\n      mstore\n      0x04\n      add\n      tag_60\n      swap1\n      tag_40\n      jump\t// in\n    tag_60:\n      mload(0x40)\n      dup1\n      swap2\n      sub\n      swap1\n      revert\n    tag_59:\n        /* \"contracts/ether_piggy_bank.sol\":1510:1527  uint256 _amtEther */\n      0x00\n        /* \"contracts/ether_piggy_bank.sol\":1535:1542  1 ether */\n      0x0de0b6b3a7640000\n        /* \"contracts/ether_piggy_bank.sol\":1530:1534  _amt */\n      dup4\n        /* \"contracts/ether_piggy_bank.sol\":1530:1542  _amt*1 ether */\n      tag_61\n      swap2\n      swap1\n      tag_45\n      jump\t// in\n    tag_61:\n        /* \"contracts/ether_piggy_bank.sol\":1510:1542  uint256 _amtEther = _amt*1 ether */\n      swap1\n      pop\n        /* \"contracts/ether_piggy_bank.sol\":1617:1622  owner */\n      0x00\n      0x00\n      swap1\n      sload\n      swap1\n      0x0100\n      exp\n      swap1\n      div\n      0xffffffffffffffffffffffffffffffffffffffff\n      and\n        /* \"contracts/ether_piggy_bank.sol\":1609:1632  payable(owner).transfer */\n      0xffffffffffffffffffffffffffffffffffffffff\n      and\n        /* \"contracts/ether_piggy_bank.sol\":1609:1643  payable(owner).transfer(_amtEther) */\n      0x08fc\n        /* \"contracts/ether_piggy_bank.sol\":1633:1642  _amtEther */\n      dup3\n        /* \"contracts/ether_piggy_bank.sol\":1609:1643  payable(owner).transfer(_amtEther) */\n      swap1\n      dup2\n      iszero\n      mul\n      swap1\n      mload(0x40)\n      0x00\n      mload(0x40)\n      dup1\n      dup4\n      sub\n      dup2\n      dup6\n      dup9\n      dup9\n      call\n      swap4\n      pop\n      pop\n      pop\n      pop\n      iszero\n      dup1\n      iszero\n      tag_63\n      jumpi\n      returndatacopy(0x00, 0x00, returndatasize)\n      revert(0x00, returndatasize)\n    tag_63:\n      pop\n        /* \"contracts/ether_piggy_bank.sol\":1668:1673  owner */\n      0x00\n      0x00\n      swap1\n      sload\n      swap1\n      0x0100\n      exp\n      swap1\n      div\n      0xffffffffffffffffffffffffffffffffffffffff\n      and\n        /* \"contracts/ether_piggy_bank.sol\":1659:1685  Withdraw(owner, _amtEther) */\n      0xffffffffffffffffffffffffffffffffffffffff\n      and\n      0x884edad9ce6fa2440d8a54cc123490eb96d2768479d49ff9c7366125a9424364\n        /* \"contracts/ether_piggy_bank.sol\":1675:1684  _amtEther */\n      dup3\n        /* \"contracts/ether_piggy_bank.sol\":1659:1685  Withdraw(owner, _amtEther) */\n      mload(0x40)\n      tag_64\n      swap2\n      swap1\n      tag_12\n      jump\t// in\n    tag_64:\n      mload(0x40)\n      dup1\n      swap2\n      sub\n      swap1\n      log2\n        /* \"contracts/ether_piggy_bank.sol\":1130:1693  {... */\n      pop\n      pop\n        /* \"contracts/ether_piggy_bank.sol\":1091:1693  function withdraw(uint256 _amt) public {... */\n      pop\n      jump\t// out\n        /* \"contracts/ether_piggy_bank.sol\":1701:1925  function withdrawAll() public {... */\n    tag_29:\n        /* \"contracts/ether_piggy_bank.sol\":1742:1756  uint256 amount */\n      0x00\n        /* \"contracts/ether_piggy_bank.sol\":1759:1780  address(this).balance */\n      selfbalance\n        /* \"contracts/ether_piggy_bank.sol\":1742:1780  uint256 amount = address(this).balance */\n      swap1\n      pop\n        /* \"contracts/ether_piggy_bank.sol\":1808:1809  0 */\n      0x00\n        /* \"contracts/ether_piggy_bank.sol\":1801:1807  amount */\n      dup2\n        /* \"contracts/ether_piggy_bank.sol\":1801:1809  amount>0 */\n      gt\n        /* \"contracts/ether_piggy_bank.sol\":1793:1834  require(amount>0, \"No Funds to Transfer\") */\n      tag_66\n      jumpi\n      mload(0x40)\n      0x08c379a000000000000000000000000000000000000000000000000000000000\n      dup2\n      mstore\n      0x04\n      add\n      tag_67\n      swap1\n      tag_43\n      jump\t// in\n    tag_67:\n      mload(0x40)\n      dup1\n      swap2\n      sub\n      swap1\n      revert\n    tag_66:\n        /* \"contracts/ether_piggy_bank.sol\":1855:1860  owner */\n      0x00\n      0x00\n      swap1\n      sload\n      swap1\n      0x0100\n      exp\n      swap1\n      div\n      0xffffffffffffffffffffffffffffffffffffffff\n      and\n        /* \"contracts/ether_piggy_bank.sol\":1847:1870  payable(owner).transfer */\n      0xffffffffffffffffffffffffffffffffffffffff\n      and\n        /* \"contracts/ether_piggy_bank.sol\":1847:1878  payable(owner).transfer(amount) */\n      0x08fc\n        /* \"contracts/ether_piggy_bank.sol\":1871:1877  amount */\n      dup3\n        /* \"contracts/ether_piggy_bank.sol\":1847:1878  payable(owner).transfer(amount) */\n      swap1\n      dup2\n      iszero\n      mul\n      swap1\n      mload(0x40)\n      0x00\n      mload(0x40)\n      dup1\n      dup4\n      sub\n      dup2\n      dup6\n      dup9\n      dup9\n      call\n      swap4\n      pop\n      pop\n      pop\n      pop\n      iszero\n      dup1\n      iszero\n      tag_69\n      jumpi\n      returndatacopy(0x00, 0x00, returndatasize)\n      revert(0x00, returndatasize)\n    tag_69:\n      pop\n        /* \"contracts/ether_piggy_bank.sol\":1903:1908  owner */\n      0x00\n      0x00\n      swap1\n      sload\n      swap1\n      0x0100\n      exp\n      swap1\n      div\n      0xffffffffffffffffffffffffffffffffffffffff\n      and\n        /* \"contracts/ether_piggy_bank.sol\":1894:1917  Withdraw(owner, amount) */\n      0xffffffffffffffffffffffffffffffffffffffff\n      and\n      0x884edad9ce6fa2440d8a54cc123490eb96d2768479d49ff9c7366125a9424364\n        /* \"contracts/ether_piggy_bank.sol\":1910:1916  amount */\n      dup3\n        /* \"contracts/ether_piggy_bank.sol\":1894:1917  Withdraw(owner, amount) */\n      mload(0x40)\n      tag_70\n      swap2\n      swap1\n      tag_12\n      jump\t// in\n    tag_70:\n      mload(0x40)\n      dup1\n      swap2\n      sub\n      swap1\n      log2\n        /* \"contracts/ether_piggy_bank.sol\":1731:1925  {... */\n      pop\n        /* \"contracts/ether_piggy_bank.sol\":1701:1925  function withdrawAll() public {... */\n      jump\t// out\n        /* \"contracts/ether_piggy_bank.sol\":91:111  address public owner */\n    tag_32:\n      0x00\n      0x00\n      swap1\n      sload\n      swap1\n      0x0100\n      exp\n      swap1\n      div\n      0xffffffffffffffffffffffffffffffffffffffff\n      and\n      dup2\n      jump\t// out\n        /* \"contracts/ether_piggy_bank.sol\":754:940  function deposit() external payable{... */\n    tag_36:\n        /* \"contracts/ether_piggy_bank.sol\":820:821  0 */\n      0x00\n        /* \"contracts/ether_piggy_bank.sol\":808:817  msg.value */\n      callvalue\n        /* \"contracts/ether_piggy_bank.sol\":808:821  msg.value > 0 */\n      gt\n        /* \"contracts/ether_piggy_bank.sol\":800:866  require(msg.value > 0, \"Deposit amount must be greater than zero\") */\n      tag_72\n      jumpi\n      mload(0x40)\n      0x08c379a000000000000000000000000000000000000000000000000000000000\n      dup2\n      mstore\n      0x04\n      add\n      tag_73\n      swap1\n      tag_74\n      jump\t// in\n    tag_73:\n      mload(0x40)\n      dup1\n      swap2\n      sub\n      swap1\n      revert\n    tag_72:\n        /* \"contracts/ether_piggy_bank.sol\":915:920  owner */\n      0x00\n      0x00\n      swap1\n      sload\n      swap1\n      0x0100\n      exp\n      swap1\n      div\n      0xffffffffffffffffffffffffffffffffffffffff\n      and\n        /* \"contracts/ether_piggy_bank.sol\":905:932  Deposited(owner, msg.value) */\n      0xffffffffffffffffffffffffffffffffffffffff\n      and\n      0x2da466a7b24304f47e87fa2e1e5a81b9831ce54fec19055ce277ca2f39ba42c4\n        /* \"contracts/ether_piggy_bank.sol\":922:931  msg.value */\n      callvalue\n        /* \"contracts/ether_piggy_bank.sol\":905:932  Deposited(owner, msg.value) */\n      mload(0x40)\n      tag_75\n      swap2\n      swap1\n      tag_12\n      jump\t// in\n    tag_75:\n      mload(0x40)\n      dup1\n      swap2\n      sub\n      swap1\n      log2\n        /* \"contracts/ether_piggy_bank.sol\":754:940  function deposit() external payable{... */\n      jump\t// out\n        /* \"#utility.yul\":7:84   */\n    tag_76:\n        /* \"#utility.yul\":44:51   */\n      0x00\n        /* \"#utility.yul\":73:78   */\n      dup2\n        /* \"#utility.yul\":62:78   */\n      swap1\n      pop\n        /* \"#utility.yul\":7:84   */\n      swap2\n      swap1\n      pop\n      jump\t// out\n        /* \"#utility.yul\":90:208   */\n    tag_77:\n        /* \"#utility.yul\":177:201   */\n      tag_104\n        /* \"#utility.yul\":195:200   */\n      dup2\n        /* \"#utility.yul\":177:201   */\n      tag_76\n      jump\t// in\n    tag_104:\n        /* \"#utility.yul\":172:175   */\n      dup3\n        /* \"#utility.yul\":165:202   */\n      mstore\n        /* \"#utility.yul\":90:208   */\n      pop\n      pop\n      jump\t// out\n        /* \"#utility.yul\":214:436   */\n    tag_12:\n        /* \"#utility.yul\":307:311   */\n      0x00\n        /* \"#utility.yul\":345:347   */\n      0x20\n        /* \"#utility.yul\":334:343   */\n      dup3\n        /* \"#utility.yul\":330:348   */\n      add\n        /* \"#utility.yul\":322:348   */\n      swap1\n      pop\n        /* \"#utility.yul\":358:429   */\n      tag_106\n        /* \"#utility.yul\":426:427   */\n      0x00\n        /* \"#utility.yul\":415:424   */\n      dup4\n        /* \"#utility.yul\":411:428   */\n      add\n        /* \"#utility.yul\":402:408   */\n      dup5\n        /* \"#utility.yul\":358:429   */\n      tag_77\n      jump\t// in\n    tag_106:\n        /* \"#utility.yul\":214:436   */\n      swap3\n      swap2\n      pop\n      pop\n      jump\t// out\n        /* \"#utility.yul\":523:640   */\n    tag_79:\n        /* \"#utility.yul\":632:633   */\n      0x00\n        /* \"#utility.yul\":629:630   */\n      0x00\n        /* \"#utility.yul\":622:634   */\n      revert\n        /* \"#utility.yul\":769:895   */\n    tag_81:\n        /* \"#utility.yul\":806:813   */\n      0x00\n        /* \"#utility.yul\":846:888   */\n      0xffffffffffffffffffffffffffffffffffffffff\n        /* \"#utility.yul\":839:844   */\n      dup3\n        /* \"#utility.yul\":835:889   */\n      and\n        /* \"#utility.yul\":824:889   */\n      swap1\n      pop\n        /* \"#utility.yul\":769:895   */\n      swap2\n      swap1\n      pop\n      jump\t// out\n        /* \"#utility.yul\":901:997   */\n    tag_82:\n        /* \"#utility.yul\":938:945   */\n      0x00\n        /* \"#utility.yul\":967:991   */\n      tag_112\n        /* \"#utility.yul\":985:990   */\n      dup3\n        /* \"#utility.yul\":967:991   */\n      tag_81\n      jump\t// in\n    tag_112:\n        /* \"#utility.yul\":956:991   */\n      swap1\n      pop\n        /* \"#utility.yul\":901:997   */\n      swap2\n      swap1\n      pop\n      jump\t// out\n        /* \"#utility.yul\":1003:1125   */\n    tag_83:\n        /* \"#utility.yul\":1076:1100   */\n      tag_114\n        /* \"#utility.yul\":1094:1099   */\n      dup2\n        /* \"#utility.yul\":1076:1100   */\n      tag_82\n      jump\t// in\n    tag_114:\n        /* \"#utility.yul\":1069:1074   */\n      dup2\n        /* \"#utility.yul\":1066:1101   */\n      eq\n        /* \"#utility.yul\":1056:1119   */\n      tag_115\n      jumpi\n        /* \"#utility.yul\":1115:1116   */\n      0x00\n        /* \"#utility.yul\":1112:1113   */\n      0x00\n        /* \"#utility.yul\":1105:1117   */\n      revert\n        /* \"#utility.yul\":1056:1119   */\n    tag_115:\n        /* \"#utility.yul\":1003:1125   */\n      pop\n      jump\t// out\n        /* \"#utility.yul\":1131:1270   */\n    tag_84:\n        /* \"#utility.yul\":1177:1182   */\n      0x00\n        /* \"#utility.yul\":1215:1221   */\n      dup2\n        /* \"#utility.yul\":1202:1222   */\n      calldataload\n        /* \"#utility.yul\":1193:1222   */\n      swap1\n      pop\n        /* \"#utility.yul\":1231:1264   */\n      tag_117\n        /* \"#utility.yul\":1258:1263   */\n      dup2\n        /* \"#utility.yul\":1231:1264   */\n      tag_83\n      jump\t// in\n    tag_117:\n        /* \"#utility.yul\":1131:1270   */\n      swap3\n      swap2\n      pop\n      pop\n      jump\t// out\n        /* \"#utility.yul\":1276:1398   */\n    tag_85:\n        /* \"#utility.yul\":1349:1373   */\n      tag_119\n        /* \"#utility.yul\":1367:1372   */\n      dup2\n        /* \"#utility.yul\":1349:1373   */\n      tag_76\n      jump\t// in\n    tag_119:\n        /* \"#utility.yul\":1342:1347   */\n      dup2\n        /* \"#utility.yul\":1339:1374   */\n      eq\n        /* \"#utility.yul\":1329:1392   */\n      tag_120\n      jumpi\n        /* \"#utility.yul\":1388:1389   */\n      0x00\n        /* \"#utility.yul\":1385:1386   */\n      0x00\n        /* \"#utility.yul\":1378:1390   */\n      revert\n        /* \"#utility.yul\":1329:1392   */\n    tag_120:\n        /* \"#utility.yul\":1276:1398   */\n      pop\n      jump\t// out\n        /* \"#utility.yul\":1404:1543   */\n    tag_86:\n        /* \"#utility.yul\":1450:1455   */\n      0x00\n        /* \"#utility.yul\":1488:1494   */\n      dup2\n        /* \"#utility.yul\":1475:1495   */\n      calldataload\n        /* \"#utility.yul\":1466:1495   */\n      swap1\n      pop\n        /* \"#utility.yul\":1504:1537   */\n      tag_122\n        /* \"#utility.yul\":1531:1536   */\n      dup2\n        /* \"#utility.yul\":1504:1537   */\n      tag_85\n      jump\t// in\n    tag_122:\n        /* \"#utility.yul\":1404:1543   */\n      swap3\n      swap2\n      pop\n      pop\n      jump\t// out\n        /* \"#utility.yul\":1549:2023   */\n    tag_16:\n        /* \"#utility.yul\":1617:1623   */\n      0x00\n        /* \"#utility.yul\":1625:1631   */\n      0x00\n        /* \"#utility.yul\":1674:1676   */\n      0x40\n        /* \"#utility.yul\":1662:1671   */\n      dup4\n        /* \"#utility.yul\":1653:1660   */\n      dup6\n        /* \"#utility.yul\":1649:1672   */\n      sub\n        /* \"#utility.yul\":1645:1677   */\n      slt\n        /* \"#utility.yul\":1642:1761   */\n      iszero\n      tag_124\n      jumpi\n        /* \"#utility.yul\":1680:1759   */\n      tag_125\n      tag_79\n      jump\t// in\n    tag_125:\n        /* \"#utility.yul\":1642:1761   */\n    tag_124:\n        /* \"#utility.yul\":1800:1801   */\n      0x00\n        /* \"#utility.yul\":1825:1878   */\n      tag_126\n        /* \"#utility.yul\":1870:1877   */\n      dup6\n        /* \"#utility.yul\":1861:1867   */\n      dup3\n        /* \"#utility.yul\":1850:1859   */\n      dup7\n        /* \"#utility.yul\":1846:1868   */\n      add\n        /* \"#utility.yul\":1825:1878   */\n      tag_84\n      jump\t// in\n    tag_126:\n        /* \"#utility.yul\":1815:1878   */\n      swap3\n      pop\n        /* \"#utility.yul\":1771:1888   */\n      pop\n        /* \"#utility.yul\":1927:1929   */\n      0x20\n        /* \"#utility.yul\":1953:2006   */\n      tag_127\n        /* \"#utility.yul\":1998:2005   */\n      dup6\n        /* \"#utility.yul\":1989:1995   */\n      dup3\n        /* \"#utility.yul\":1978:1987   */\n      dup7\n        /* \"#utility.yul\":1974:1996   */\n      add\n        /* \"#utility.yul\":1953:2006   */\n      tag_86\n      jump\t// in\n    tag_127:\n        /* \"#utility.yul\":1943:2006   */\n      swap2\n      pop\n        /* \"#utility.yul\":1898:2016   */\n      pop\n        /* \"#utility.yul\":1549:2023   */\n      swap3\n      pop\n      swap3\n      swap1\n      pop\n      jump\t// out\n        /* \"#utility.yul\":2029:2358   */\n    tag_25:\n        /* \"#utility.yul\":2088:2094   */\n      0x00\n        /* \"#utility.yul\":2137:2139   */\n      0x20\n        /* \"#utility.yul\":2125:2134   */\n      dup3\n        /* \"#utility.yul\":2116:2123   */\n      dup5\n        /* \"#utility.yul\":2112:2135   */\n      sub\n        /* \"#utility.yul\":2108:2140   */\n      slt\n        /* \"#utility.yul\":2105:2224   */\n      iszero\n      tag_129\n      jumpi\n        /* \"#utility.yul\":2143:2222   */\n      tag_130\n      tag_79\n      jump\t// in\n    tag_130:\n        /* \"#utility.yul\":2105:2224   */\n    tag_129:\n        /* \"#utility.yul\":2263:2264   */\n      0x00\n        /* \"#utility.yul\":2288:2341   */\n      tag_131\n        /* \"#utility.yul\":2333:2340   */\n      dup5\n        /* \"#utility.yul\":2324:2330   */\n      dup3\n        /* \"#utility.yul\":2313:2322   */\n      dup6\n        /* \"#utility.yul\":2309:2331   */\n      add\n        /* \"#utility.yul\":2288:2341   */\n      tag_86\n      jump\t// in\n    tag_131:\n        /* \"#utility.yul\":2278:2341   */\n      swap2\n      pop\n        /* \"#utility.yul\":2234:2351   */\n      pop\n        /* \"#utility.yul\":2029:2358   */\n      swap3\n      swap2\n      pop\n      pop\n      jump\t// out\n        /* \"#utility.yul\":2364:2482   */\n    tag_87:\n        /* \"#utility.yul\":2451:2475   */\n      tag_133\n        /* \"#utility.yul\":2469:2474   */\n      dup2\n        /* \"#utility.yul\":2451:2475   */\n      tag_82\n      jump\t// in\n    tag_133:\n        /* \"#utility.yul\":2446:2449   */\n      dup3\n        /* \"#utility.yul\":2439:2476   */\n      mstore\n        /* \"#utility.yul\":2364:2482   */\n      pop\n      pop\n      jump\t// out\n        /* \"#utility.yul\":2488:2710   */\n    tag_34:\n        /* \"#utility.yul\":2581:2585   */\n      0x00\n        /* \"#utility.yul\":2619:2621   */\n      0x20\n        /* \"#utility.yul\":2608:2617   */\n      dup3\n        /* \"#utility.yul\":2604:2622   */\n      add\n        /* \"#utility.yul\":2596:2622   */\n      swap1\n      pop\n        /* \"#utility.yul\":2632:2703   */\n      tag_135\n        /* \"#utility.yul\":2700:2701   */\n      0x00\n        /* \"#utility.yul\":2689:2698   */\n      dup4\n        /* \"#utility.yul\":2685:2702   */\n      add\n        /* \"#utility.yul\":2676:2682   */\n      dup5\n        /* \"#utility.yul\":2632:2703   */\n      tag_87\n      jump\t// in\n    tag_135:\n        /* \"#utility.yul\":2488:2710   */\n      swap3\n      swap2\n      pop\n      pop\n      jump\t// out\n        /* \"#utility.yul\":2716:2885   */\n    tag_88:\n        /* \"#utility.yul\":2800:2811   */\n      0x00\n        /* \"#utility.yul\":2834:2840   */\n      dup3\n        /* \"#utility.yul\":2829:2832   */\n      dup3\n        /* \"#utility.yul\":2822:2841   */\n      mstore\n        /* \"#utility.yul\":2874:2878   */\n      0x20\n        /* \"#utility.yul\":2869:2872   */\n      dup3\n        /* \"#utility.yul\":2865:2879   */\n      add\n        /* \"#utility.yul\":2850:2879   */\n      swap1\n      pop\n        /* \"#utility.yul\":2716:2885   */\n      swap3\n      swap2\n      pop\n      pop\n      jump\t// out\n        /* \"#utility.yul\":2891:3061   */\n    tag_89:\n        /* \"#utility.yul\":3031:3053   */\n      0x496e73756666696369656e742042616c616e6365000000000000000000000000\n        /* \"#utility.yul\":3027:3028   */\n      0x00\n        /* \"#utility.yul\":3019:3025   */\n      dup3\n        /* \"#utility.yul\":3015:3029   */\n      add\n        /* \"#utility.yul\":3008:3054   */\n      mstore\n        /* \"#utility.yul\":2891:3061   */\n      pop\n      jump\t// out\n        /* \"#utility.yul\":3067:3433   */\n    tag_90:\n        /* \"#utility.yul\":3209:3212   */\n      0x00\n        /* \"#utility.yul\":3230:3297   */\n      tag_139\n        /* \"#utility.yul\":3294:3296   */\n      0x14\n        /* \"#utility.yul\":3289:3292   */\n      dup4\n        /* \"#utility.yul\":3230:3297   */\n      tag_88\n      jump\t// in\n    tag_139:\n        /* \"#utility.yul\":3223:3297   */\n      swap2\n      pop\n        /* \"#utility.yul\":3306:3399   */\n      tag_140\n        /* \"#utility.yul\":3395:3398   */\n      dup3\n        /* \"#utility.yul\":3306:3399   */\n      tag_89\n      jump\t// in\n    tag_140:\n        /* \"#utility.yul\":3424:3426   */\n      0x20\n        /* \"#utility.yul\":3419:3422   */\n      dup3\n        /* \"#utility.yul\":3415:3427   */\n      add\n        /* \"#utility.yul\":3408:3427   */\n      swap1\n      pop\n        /* \"#utility.yul\":3067:3433   */\n      swap2\n      swap1\n      pop\n      jump\t// out\n        /* \"#utility.yul\":3439:3858   */\n    tag_40:\n        /* \"#utility.yul\":3605:3609   */\n      0x00\n        /* \"#utility.yul\":3643:3645   */\n      0x20\n        /* \"#utility.yul\":3632:3641   */\n      dup3\n        /* \"#utility.yul\":3628:3646   */\n      add\n        /* \"#utility.yul\":3620:3646   */\n      swap1\n      pop\n        /* \"#utility.yul\":3692:3701   */\n      dup2\n        /* \"#utility.yul\":3686:3690   */\n      dup2\n        /* \"#utility.yul\":3682:3702   */\n      sub\n        /* \"#utility.yul\":3678:3679   */\n      0x00\n        /* \"#utility.yul\":3667:3676   */\n      dup4\n        /* \"#utility.yul\":3663:3680   */\n      add\n        /* \"#utility.yul\":3656:3703   */\n      mstore\n        /* \"#utility.yul\":3720:3851   */\n      tag_142\n        /* \"#utility.yul\":3846:3850   */\n      dup2\n        /* \"#utility.yul\":3720:3851   */\n      tag_90\n      jump\t// in\n    tag_142:\n        /* \"#utility.yul\":3712:3851   */\n      swap1\n      pop\n        /* \"#utility.yul\":3439:3858   */\n      swap2\n      swap1\n      pop\n      jump\t// out\n        /* \"#utility.yul\":3864:4034   */\n    tag_91:\n        /* \"#utility.yul\":4004:4026   */\n      0x4e6f2046756e647320746f205472616e73666572000000000000000000000000\n        /* \"#utility.yul\":4000:4001   */\n      0x00\n        /* \"#utility.yul\":3992:3998   */\n      dup3\n        /* \"#utility.yul\":3988:4002   */\n      add\n        /* \"#utility.yul\":3981:4027   */\n      mstore\n        /* \"#utility.yul\":3864:4034   */\n      pop\n      jump\t// out\n        /* \"#utility.yul\":4040:4406   */\n    tag_92:\n        /* \"#utility.yul\":4182:4185   */\n      0x00\n        /* \"#utility.yul\":4203:4270   */\n      tag_145\n        /* \"#utility.yul\":4267:4269   */\n      0x14\n        /* \"#utility.yul\":4262:4265   */\n      dup4\n        /* \"#utility.yul\":4203:4270   */\n      tag_88\n      jump\t// in\n    tag_145:\n        /* \"#utility.yul\":4196:4270   */\n      swap2\n      pop\n        /* \"#utility.yul\":4279:4372   */\n      tag_146\n        /* \"#utility.yul\":4368:4371   */\n      dup3\n        /* \"#utility.yul\":4279:4372   */\n      tag_91\n      jump\t// in\n    tag_146:\n        /* \"#utility.yul\":4397:4399   */\n      0x20\n        /* \"#utility.yul\":4392:4395   */\n      dup3\n        /* \"#utility.yul\":4388:4400   */\n      add\n        /* \"#utility.yul\":4381:4400   */\n      swap1\n      pop\n        /* \"#utility.yul\":4040:4406   */\n      swap2\n      swap1\n      pop\n      jump\t// out\n        /* \"#utility.yul\":4412:4831   */\n    tag_43:\n        /* \"#utility.yul\":4578:4582   */\n      0x00\n        /* \"#utility.yul\":4616:4618   */\n      0x20\n        /* \"#utility.yul\":4605:4614   */\n      dup3\n        /* \"#utility.yul\":4601:4619   */\n      add\n        /* \"#utility.yul\":4593:4619   */\n      swap1\n      pop\n        /* \"#utility.yul\":4665:4674   */\n      dup2\n        /* \"#utility.yul\":4659:4663   */\n      dup2\n        /* \"#utility.yul\":4655:4675   */\n      sub\n        /* \"#utility.yul\":4651:4652   */\n      0x00\n        /* \"#utility.yul\":4640:4649   */\n      dup4\n        /* \"#utility.yul\":4636:4653   */\n      add\n        /* \"#utility.yul\":4629:4676   */\n      mstore\n        /* \"#utility.yul\":4693:4824   */\n      tag_148\n        /* \"#utility.yul\":4819:4823   */\n      dup2\n        /* \"#utility.yul\":4693:4824   */\n      tag_92\n      jump\t// in\n    tag_148:\n        /* \"#utility.yul\":4685:4824   */\n      swap1\n      pop\n        /* \"#utility.yul\":4412:4831   */\n      swap2\n      swap1\n      pop\n      jump\t// out\n        /* \"#utility.yul\":4837:5017   */\n    tag_93:\n        /* \"#utility.yul\":4885:4962   */\n      0x4e487b7100000000000000000000000000000000000000000000000000000000\n        /* \"#utility.yul\":4882:4883   */\n      0x00\n        /* \"#utility.yul\":4875:4963   */\n      mstore\n        /* \"#utility.yul\":4982:4986   */\n      0x11\n        /* \"#utility.yul\":4979:4980   */\n      0x04\n        /* \"#utility.yul\":4972:4987   */\n      mstore\n        /* \"#utility.yul\":5006:5010   */\n      0x24\n        /* \"#utility.yul\":5003:5004   */\n      0x00\n        /* \"#utility.yul\":4996:5011   */\n      revert\n        /* \"#utility.yul\":5023:5433   */\n    tag_45:\n        /* \"#utility.yul\":5063:5070   */\n      0x00\n        /* \"#utility.yul\":5086:5106   */\n      tag_151\n        /* \"#utility.yul\":5104:5105   */\n      dup3\n        /* \"#utility.yul\":5086:5106   */\n      tag_76\n      jump\t// in\n    tag_151:\n        /* \"#utility.yul\":5081:5106   */\n      swap2\n      pop\n        /* \"#utility.yul\":5120:5140   */\n      tag_152\n        /* \"#utility.yul\":5138:5139   */\n      dup4\n        /* \"#utility.yul\":5120:5140   */\n      tag_76\n      jump\t// in\n    tag_152:\n        /* \"#utility.yul\":5115:5140   */\n      swap3\n      pop\n        /* \"#utility.yul\":5175:5176   */\n      dup3\n        /* \"#utility.yul\":5172:5173   */\n      dup3\n        /* \"#utility.yul\":5168:5177   */\n      mul\n        /* \"#utility.yul\":5197:5227   */\n      tag_153\n        /* \"#utility.yul\":5215:5226   */\n      dup2\n        /* \"#utility.yul\":5197:5227   */\n      tag_76\n      jump\t// in\n    tag_153:\n        /* \"#utility.yul\":5186:5227   */\n      swap2\n      pop\n        /* \"#utility.yul\":5376:5377   */\n      dup3\n        /* \"#utility.yul\":5367:5374   */\n      dup3\n        /* \"#utility.yul\":5363:5378   */\n      div\n        /* \"#utility.yul\":5360:5361   */\n      dup5\n        /* \"#utility.yul\":5357:5379   */\n      eq\n        /* \"#utility.yul\":5337:5338   */\n      dup4\n        /* \"#utility.yul\":5330:5339   */\n      iszero\n        /* \"#utility.yul\":5310:5393   */\n      or\n        /* \"#utility.yul\":5287:5426   */\n      tag_154\n      jumpi\n        /* \"#utility.yul\":5406:5424   */\n      tag_155\n      tag_93\n      jump\t// in\n    tag_155:\n        /* \"#utility.yul\":5287:5426   */\n    tag_154:\n        /* \"#utility.yul\":5071:5433   */\n      pop\n        /* \"#utility.yul\":5023:5433   */\n      swap3\n      swap2\n      pop\n      pop\n      jump\t// out\n        /* \"#utility.yul\":5439:5619   */\n    tag_94:\n        /* \"#utility.yul\":5487:5564   */\n      0x4e487b7100000000000000000000000000000000000000000000000000000000\n        /* \"#utility.yul\":5484:5485   */\n      0x00\n        /* \"#utility.yul\":5477:5565   */\n      mstore\n        /* \"#utility.yul\":5584:5588   */\n      0x12\n        /* \"#utility.yul\":5581:5582   */\n      0x04\n        /* \"#utility.yul\":5574:5589   */\n      mstore\n        /* \"#utility.yul\":5608:5612   */\n      0x24\n        /* \"#utility.yul\":5605:5606   */\n      0x00\n        /* \"#utility.yul\":5598:5613   */\n      revert\n        /* \"#utility.yul\":5625:5810   */\n    tag_51:\n        /* \"#utility.yul\":5665:5666   */\n      0x00\n        /* \"#utility.yul\":5682:5702   */\n      tag_158\n        /* \"#utility.yul\":5700:5701   */\n      dup3\n        /* \"#utility.yul\":5682:5702   */\n      tag_76\n      jump\t// in\n    tag_158:\n        /* \"#utility.yul\":5677:5702   */\n      swap2\n      pop\n        /* \"#utility.yul\":5716:5736   */\n      tag_159\n        /* \"#utility.yul\":5734:5735   */\n      dup4\n        /* \"#utility.yul\":5716:5736   */\n      tag_76\n      jump\t// in\n    tag_159:\n        /* \"#utility.yul\":5711:5736   */\n      swap3\n      pop\n        /* \"#utility.yul\":5755:5756   */\n      dup3\n        /* \"#utility.yul\":5745:5780   */\n      tag_160\n      jumpi\n        /* \"#utility.yul\":5760:5778   */\n      tag_161\n      tag_94\n      jump\t// in\n    tag_161:\n        /* \"#utility.yul\":5745:5780   */\n    tag_160:\n        /* \"#utility.yul\":5802:5803   */\n      dup3\n        /* \"#utility.yul\":5799:5800   */\n      dup3\n        /* \"#utility.yul\":5795:5804   */\n      div\n        /* \"#utility.yul\":5790:5804   */\n      swap1\n      pop\n        /* \"#utility.yul\":5625:5810   */\n      swap3\n      swap2\n      pop\n      pop\n      jump\t// out\n        /* \"#utility.yul\":5816:6036   */\n    tag_95:\n        /* \"#utility.yul\":5956:5990   */\n      0x4f6e6c79206f776e65722063616e20776974686472617720746865206d6f6e65\n        /* \"#utility.yul\":5952:5953   */\n      0x00\n        /* \"#utility.yul\":5944:5950   */\n      dup3\n        /* \"#utility.yul\":5940:5954   */\n      add\n        /* \"#utility.yul\":5933:5991   */\n      mstore\n        /* \"#utility.yul\":6025:6028   */\n      0x7900000000000000000000000000000000000000000000000000000000000000\n        /* \"#utility.yul\":6020:6022   */\n      0x20\n        /* \"#utility.yul\":6012:6018   */\n      dup3\n        /* \"#utility.yul\":6008:6023   */\n      add\n        /* \"#utility.yul\":6001:6029   */\n      mstore\n        /* \"#utility.yul\":5816:6036   */\n      pop\n      jump\t// out\n        /* \"#utility.yul\":6042:6408   */\n    tag_96:\n        /* \"#utility.yul\":6184:6187   */\n      0x00\n        /* \"#utility.yul\":6205:6272   */\n      tag_164\n        /* \"#utility.yul\":6269:6271   */\n      0x21\n        /* \"#utility.yul\":6264:6267   */\n      dup4\n        /* \"#utility.yul\":6205:6272   */\n      tag_88\n      jump\t// in\n    tag_164:\n        /* \"#utility.yul\":6198:6272   */\n      swap2\n      pop\n        /* \"#utility.yul\":6281:6374   */\n      tag_165\n        /* \"#utility.yul\":6370:6373   */\n      dup3\n        /* \"#utility.yul\":6281:6374   */\n      tag_95\n      jump\t// in\n    tag_165:\n        /* \"#utility.yul\":6399:6401   */\n      0x40\n        /* \"#utility.yul\":6394:6397   */\n      dup3\n        /* \"#utility.yul\":6390:6402   */\n      add\n        /* \"#utility.yul\":6383:6402   */\n      swap1\n      pop\n        /* \"#utility.yul\":6042:6408   */\n      swap2\n      swap1\n      pop\n      jump\t// out\n        /* \"#utility.yul\":6414:6833   */\n    tag_55:\n        /* \"#utility.yul\":6580:6584   */\n      0x00\n        /* \"#utility.yul\":6618:6620   */\n      0x20\n        /* \"#utility.yul\":6607:6616   */\n      dup3\n        /* \"#utility.yul\":6603:6621   */\n      add\n        /* \"#utility.yul\":6595:6621   */\n      swap1\n      pop\n        /* \"#utility.yul\":6667:6676   */\n      dup2\n        /* \"#utility.yul\":6661:6665   */\n      dup2\n        /* \"#utility.yul\":6657:6677   */\n      sub\n        /* \"#utility.yul\":6653:6654   */\n      0x00\n        /* \"#utility.yul\":6642:6651   */\n      dup4\n        /* \"#utility.yul\":6638:6655   */\n      add\n        /* \"#utility.yul\":6631:6678   */\n      mstore\n        /* \"#utility.yul\":6695:6826   */\n      tag_167\n        /* \"#utility.yul\":6821:6825   */\n      dup2\n        /* \"#utility.yul\":6695:6826   */\n      tag_96\n      jump\t// in\n    tag_167:\n        /* \"#utility.yul\":6687:6826   */\n      swap1\n      pop\n        /* \"#utility.yul\":6414:6833   */\n      swap2\n      swap1\n      pop\n      jump\t// out\n        /* \"#utility.yul\":6839:7009   */\n    tag_97:\n        /* \"#utility.yul\":6979:7001   */\n      0x4e6f2066756e647320746f205769746864726177000000000000000000000000\n        /* \"#utility.yul\":6975:6976   */\n      0x00\n        /* \"#utility.yul\":6967:6973   */\n      dup3\n        /* \"#utility.yul\":6963:6977   */\n      add\n        /* \"#utility.yul\":6956:7002   */\n      mstore\n        /* \"#utility.yul\":6839:7009   */\n      pop\n      jump\t// out\n        /* \"#utility.yul\":7015:7381   */\n    tag_98:\n        /* \"#utility.yul\":7157:7160   */\n      0x00\n        /* \"#utility.yul\":7178:7245   */\n      tag_170\n        /* \"#utility.yul\":7242:7244   */\n      0x14\n        /* \"#utility.yul\":7237:7240   */\n      dup4\n        /* \"#utility.yul\":7178:7245   */\n      tag_88\n      jump\t// in\n    tag_170:\n        /* \"#utility.yul\":7171:7245   */\n      swap2\n      pop\n        /* \"#utility.yul\":7254:7347   */\n      tag_171\n        /* \"#utility.yul\":7343:7346   */\n      dup3\n        /* \"#utility.yul\":7254:7347   */\n      tag_97\n      jump\t// in\n    tag_171:\n        /* \"#utility.yul\":7372:7374   */\n      0x20\n        /* \"#utility.yul\":7367:7370   */\n      dup3\n        /* \"#utility.yul\":7363:7375   */\n      add\n        /* \"#utility.yul\":7356:7375   */\n      swap1\n      pop\n        /* \"#utility.yul\":7015:7381   */\n      swap2\n      swap1\n      pop\n      jump\t// out\n        /* \"#utility.yul\":7387:7806   */\n    tag_58:\n        /* \"#utility.yul\":7553:7557   */\n      0x00\n        /* \"#utility.yul\":7591:7593   */\n      0x20\n        /* \"#utility.yul\":7580:7589   */\n      dup3\n        /* \"#utility.yul\":7576:7594   */\n      add\n        /* \"#utility.yul\":7568:7594   */\n      swap1\n      pop\n        /* \"#utility.yul\":7640:7649   */\n      dup2\n        /* \"#utility.yul\":7634:7638   */\n      dup2\n        /* \"#utility.yul\":7630:7650   */\n      sub\n        /* \"#utility.yul\":7626:7627   */\n      0x00\n        /* \"#utility.yul\":7615:7624   */\n      dup4\n        /* \"#utility.yul\":7611:7628   */\n      add\n        /* \"#utility.yul\":7604:7651   */\n      mstore\n        /* \"#utility.yul\":7668:7799   */\n      tag_173\n        /* \"#utility.yul\":7794:7798   */\n      dup2\n        /* \"#utility.yul\":7668:7799   */\n      tag_98\n      jump\t// in\n    tag_173:\n        /* \"#utility.yul\":7660:7799   */\n      swap1\n      pop\n        /* \"#utility.yul\":7387:7806   */\n      swap2\n      swap1\n      pop\n      jump\t// out\n        /* \"#utility.yul\":7812:8039   */\n    tag_99:\n        /* \"#utility.yul\":7952:7986   */\n      0x4465706f73697420616d6f756e74206d75737420626520677265617465722074\n        /* \"#utility.yul\":7948:7949   */\n      0x00\n        /* \"#utility.yul\":7940:7946   */\n      dup3\n        /* \"#utility.yul\":7936:7950   */\n      add\n        /* \"#utility.yul\":7929:7987   */\n      mstore\n        /* \"#utility.yul\":8021:8031   */\n      0x68616e207a65726f000000000000000000000000000000000000000000000000\n        /* \"#utility.yul\":8016:8018   */\n      0x20\n        /* \"#utility.yul\":8008:8014   */\n      dup3\n        /* \"#utility.yul\":8004:8019   */\n      add\n        /* \"#utility.yul\":7997:8032   */\n      mstore\n        /* \"#utility.yul\":7812:8039   */\n      pop\n      jump\t// out\n        /* \"#utility.yul\":8045:8411   */\n    tag_100:\n        /* \"#utility.yul\":8187:8190   */\n      0x00\n        /* \"#utility.yul\":8208:8275   */\n      tag_176\n        /* \"#utility.yul\":8272:8274   */\n      0x28\n        /* \"#utility.yul\":8267:8270   */\n      dup4\n        /* \"#utility.yul\":8208:8275   */\n      tag_88\n      jump\t// in\n    tag_176:\n        /* \"#utility.yul\":8201:8275   */\n      swap2\n      pop\n        /* \"#utility.yul\":8284:8377   */\n      tag_177\n        /* \"#utility.yul\":8373:8376   */\n      dup3\n        /* \"#utility.yul\":8284:8377   */\n      tag_99\n      jump\t// in\n    tag_177:\n        /* \"#utility.yul\":8402:8404   */\n      0x40\n        /* \"#utility.yul\":8397:8400   */\n      dup3\n        /* \"#utility.yul\":8393:8405   */\n      add\n        /* \"#utility.yul\":8386:8405   */\n      swap1\n      pop\n        /* \"#utility.yul\":8045:8411   */\n      swap2\n      swap1\n      pop\n      jump\t// out\n        /* \"#utility.yul\":8417:8836   */\n    tag_74:\n        /* \"#utility.yul\":8583:8587   */\n      0x00\n        /* \"#utility.yul\":8621:8623   */\n      0x20\n        /* \"#utility.yul\":8610:8619   */\n      dup3\n        /* \"#utility.yul\":8606:8624   */\n      add\n        /* \"#utility.yul\":8598:8624   */\n      swap1\n      pop\n        /* \"#utility.yul\":8670:8679   */\n      dup2\n        /* \"#utility.yul\":8664:8668   */\n      dup2\n        /* \"#utility.yul\":8660:8680   */\n      sub\n        /* \"#utility.yul\":8656:8657   */\n      0x00\n        /* \"#utility.yul\":8645:8654   */\n      dup4\n        /* \"#utility.yul\":8641:8658   */\n      add\n        /* \"#utility.yul\":8634:8681   */\n      mstore\n        /* \"#utility.yul\":8698:8829   */\n      tag_179\n        /* \"#utility.yul\":8824:8828   */\n      dup2\n        /* \"#utility.yul\":8698:8829   */\n      tag_100\n      jump\t// in\n    tag_179:\n        /* \"#utility.yul\":8690:8829   */\n      swap1\n      pop\n        /* \"#utility.yul\":8417:8836   */\n      swap2\n      swap1\n      pop\n      jump\t// out\n\n    auxdata: 0xa2646970667358221220660ccf91874997d6e802aaa7aeb64256996ad48ff53502dda150e66786ca05cd64736f6c634300081e0033\n}\n",
				"bytecode": {
					"linkReferences": {},
					"object": "6080604052348015600e575f5ffd5b50335f5f6101000a81548173ffffffffffffffffffffffffffffffffffffffff021916908373ffffffffffffffffffffffffffffffffffffffff160217905550610b8f8061005b5f395ff3fe608060405260043610610058575f3560e01c80630cc50936146100d157806312065fe0146100f95780632e1a7d4d14610123578063853828b61461014b5780638da5cb5b14610161578063d0e30db01461018b576100cd565b366100cd575f5f9054906101000a900473ffffffffffffffffffffffffffffffffffffffff1673ffffffffffffffffffffffffffffffffffffffff167f2da466a7b24304f47e87fa2e1e5a81b9831ce54fec19055ce277ca2f39ba42c4346040516100c391906106f8565b60405180910390a2005b5f5ffd5b3480156100dc575f5ffd5b506100f760048036038101906100f29190610799565b610195565b005b348015610104575f5ffd5b5061010d6102cc565b60405161011a91906106f8565b60405180910390f35b34801561012e575f5ffd5b50610149600480360381019061014491906107d7565b6102eb565b005b348015610156575f5ffd5b5061015f6104ef565b005b34801561016c575f5ffd5b5061017561060a565b6040516101829190610811565b60405180910390f35b61019361062e565b005b5f4790508082106101db576040517f08c379a00000000000000000000000000000000000000000000000000000000081526004016101d290610884565b60405180910390fd5b5f811161021d576040517f08c379a0000000000000000000000000000000000000000000000000000000008152600401610214906108ec565b60405180910390fd5b5f670de0b6b3a7640000836102329190610937565b90508373ffffffffffffffffffffffffffffffffffffffff166108fc8290811502906040515f60405180830381858888f19350505050158015610277573d5f5f3e3d5ffd5b508373ffffffffffffffffffffffffffffffffffffffff167f419013ffbfd3a7e95a13645088f1f9b8aff6057aaa2a840cc18ddbbec3d1677c826040516102be91906106f8565b60405180910390a250505050565b5f5f670de0b6b3a7640000476102e291906109a5565b90508091505090565b5f5f9054906101000a900473ffffffffffffffffffffffffffffffffffffffff1673ffffffffffffffffffffffffffffffffffffffff163373ffffffffffffffffffffffffffffffffffffffff1614610379576040517f08c379a000000000000000000000000000000000000000000000000000000000815260040161037090610a45565b60405180910390fd5b5f4790505f81116103bf576040517f08c379a00000000000000000000000000000000000000000000000000000000081526004016103b690610aad565b60405180910390fd5b808210610401576040517f08c379a00000000000000000000000000000000000000000000000000000000081526004016103f890610884565b60405180910390fd5b5f670de0b6b3a7640000836104169190610937565b90505f5f9054906101000a900473ffffffffffffffffffffffffffffffffffffffff1673ffffffffffffffffffffffffffffffffffffffff166108fc8290811502906040515f60405180830381858888f1935050505015801561047b573d5f5f3e3d5ffd5b505f5f9054906101000a900473ffffffffffffffffffffffffffffffffffffffff1673ffffffffffffffffffffffffffffffffffffffff167f884edad9ce6fa2440d8a54cc123490eb96d2768479d49ff9c7366125a9424364826040516104e291906106f8565b60405180910390a2505050565b5f4790505f8111610535576040517f08c379a000000000000000000000000000000000000000000000000000000000815260040161052c906108ec565b60405180910390fd5b5f5f9054906101000a900473ffffffffffffffffffffffffffffffffffffffff1673ffffffffffffffffffffffffffffffffffffffff166108fc8290811502906040515f60405180830381858888f19350505050158015610598573d5f5f3e3d5ffd5b505f5f9054906101000a900473ffffffffffffffffffffffffffffffffffffffff1673ffffffffffffffffffffffffffffffffffffffff167f884edad9ce6fa2440d8a54cc123490eb96d2768479d49ff9c7366125a9424364826040516105ff91906106f8565b60405180910390a250565b5f5f9054906101000a900473ffffffffffffffffffffffffffffffffffffffff1681565b5f3411610670576040517f08c379a000000000000000000000000000000000000000000000000000000000815260040161066790610b3b565b60405180910390fd5b5f5f9054906101000a900473ffffffffffffffffffffffffffffffffffffffff1673ffffffffffffffffffffffffffffffffffffffff167f2da466a7b24304f47e87fa2e1e5a81b9831ce54fec19055ce277ca2f39ba42c4346040516106d691906106f8565b60405180910390a2565b5f819050919050565b6106f2816106e0565b82525050565b5f60208201905061070b5f8301846106e9565b92915050565b5f5ffd5b5f73ffffffffffffffffffffffffffffffffffffffff82169050919050565b5f61073e82610715565b9050919050565b61074e81610734565b8114610758575f5ffd5b50565b5f8135905061076981610745565b92915050565b610778816106e0565b8114610782575f5ffd5b50565b5f813590506107938161076f565b92915050565b5f5f604083850312156107af576107ae610711565b5b5f6107bc8582860161075b565b92505060206107cd85828601610785565b9150509250929050565b5f602082840312156107ec576107eb610711565b5b5f6107f984828501610785565b91505092915050565b61080b81610734565b82525050565b5f6020820190506108245f830184610802565b92915050565b5f82825260208201905092915050565b7f496e73756666696369656e742042616c616e63650000000000000000000000005f82015250565b5f61086e60148361082a565b91506108798261083a565b602082019050919050565b5f6020820190508181035f83015261089b81610862565b9050919050565b7f4e6f2046756e647320746f205472616e736665720000000000000000000000005f82015250565b5f6108d660148361082a565b91506108e1826108a2565b602082019050919050565b5f6020820190508181035f830152610903816108ca565b9050919050565b7f4e487b71000000000000000000000000000000000000000000000000000000005f52601160045260245ffd5b5f610941826106e0565b915061094c836106e0565b925082820261095a816106e0565b915082820484148315176109715761097061090a565b5b5092915050565b7f4e487b71000000000000000000000000000000000000000000000000000000005f52601260045260245ffd5b5f6109af826106e0565b91506109ba836106e0565b9250826109ca576109c9610978565b5b828204905092915050565b7f4f6e6c79206f776e65722063616e20776974686472617720746865206d6f6e655f8201527f7900000000000000000000000000000000000000000000000000000000000000602082015250565b5f610a2f60218361082a565b9150610a3a826109d5565b604082019050919050565b5f6020820190508181035f830152610a5c81610a23565b9050919050565b7f4e6f2066756e647320746f2057697468647261770000000000000000000000005f82015250565b5f610a9760148361082a565b9150610aa282610a63565b602082019050919050565b5f6020820190508181035f830152610ac481610a8b565b9050919050565b7f4465706f73697420616d6f756e74206d757374206265206772656174657220745f8201527f68616e207a65726f000000000000000000000000000000000000000000000000602082015250565b5f610b2560288361082a565b9150610b3082610acb565b604082019050919050565b5f6020820190508181035f830152610b5281610b19565b905091905056fea2646970667358221220660ccf91874997d6e802aaa7aeb64256996ad48ff53502dda150e66786ca05cd64736f6c634300081e0033",
					"opcodes": "PUSH1 0x80 PUSH1 0x40 MSTORE CALLVALUE DUP1 ISZERO PUSH1 0xE JUMPI PUSH0 PUSH0 REVERT JUMPDEST POP CALLER PUSH0 PUSH0 PUSH2 0x100 EXP DUP2 SLOAD DUP2 PUSH20 0xFFFFFFFFFFFFFFFFFFFFFFFFFFFFFFFFFFFFFFFF MUL NOT AND SWAP1 DUP4 PUSH20 0xFFFFFFFFFFFFFFFFFFFFFFFFFFFFFFFFFFFFFFFF AND MUL OR SWAP1 SSTORE POP PUSH2 0xB8F DUP1 PUSH2 0x5B PUSH0 CODECOPY PUSH0 RETURN INVALID PUSH1 0x80 PUSH1 0x40 MSTORE PUSH1 0x4 CALLDATASIZE LT PUSH2 0x58 JUMPI PUSH0 CALLDATALOAD PUSH1 0xE0 SHR DUP1 PUSH4 0xCC50936 EQ PUSH2 0xD1 JUMPI DUP1 PUSH4 0x12065FE0 EQ PUSH2 0xF9 JUMPI DUP1 PUSH4 0x2E1A7D4D EQ PUSH2 0x123 JUMPI DUP1 PUSH4 0x853828B6 EQ PUSH2 0x14B JUMPI DUP1 PUSH4 0x8DA5CB5B EQ PUSH2 0x161 JUMPI DUP1 PUSH4 0xD0E30DB0 EQ PUSH2 0x18B JUMPI PUSH2 0xCD JUMP JUMPDEST CALLDATASIZE PUSH2 0xCD JUMPI PUSH0 PUSH0 SWAP1 SLOAD SWAP1 PUSH2 0x100 EXP SWAP1 DIV PUSH20 0xFFFFFFFFFFFFFFFFFFFFFFFFFFFFFFFFFFFFFFFF AND PUSH20 0xFFFFFFFFFFFFFFFFFFFFFFFFFFFFFFFFFFFFFFFF AND PUSH32 0x2DA466A7B24304F47E87FA2E1E5A81B9831CE54FEC19055CE277CA2F39BA42C4 CALLVALUE PUSH1 0x40 MLOAD PUSH2 0xC3 SWAP2 SWAP1 PUSH2 0x6F8 JUMP JUMPDEST PUSH1 0x40 MLOAD DUP1 SWAP2 SUB SWAP1 LOG2 STOP JUMPDEST PUSH0 PUSH0 REVERT JUMPDEST CALLVALUE DUP1 ISZERO PUSH2 0xDC JUMPI PUSH0 PUSH0 REVERT JUMPDEST POP PUSH2 0xF7 PUSH1 0x4 DUP1 CALLDATASIZE SUB DUP2 ADD SWAP1 PUSH2 0xF2 SWAP2 SWAP1 PUSH2 0x799 JUMP JUMPDEST PUSH2 0x195 JUMP JUMPDEST STOP JUMPDEST CALLVALUE DUP1 ISZERO PUSH2 0x104 JUMPI PUSH0 PUSH0 REVERT JUMPDEST POP PUSH2 0x10D PUSH2 0x2CC JUMP JUMPDEST PUSH1 0x40 MLOAD PUSH2 0x11A SWAP2 SWAP1 PUSH2 0x6F8 JUMP JUMPDEST PUSH1 0x40 MLOAD DUP1 SWAP2 SUB SWAP1 RETURN JUMPDEST CALLVALUE DUP1 ISZERO PUSH2 0x12E JUMPI PUSH0 PUSH0 REVERT JUMPDEST POP PUSH2 0x149 PUSH1 0x4 DUP1 CALLDATASIZE SUB DUP2 ADD SWAP1 PUSH2 0x144 SWAP2 SWAP1 PUSH2 0x7D7 JUMP JUMPDEST PUSH2 0x2EB JUMP JUMPDEST STOP JUMPDEST CALLVALUE DUP1 ISZERO PUSH2 0x156 JUMPI PUSH0 PUSH0 REVERT JUMPDEST POP PUSH2 0x15F PUSH2 0x4EF JUMP JUMPDEST STOP JUMPDEST CALLVALUE DUP1 ISZERO PUSH2 0x16C JUMPI PUSH0 PUSH0 REVERT JUMPDEST POP PUSH2 0x175 PUSH2 0x60A JUMP JUMPDEST PUSH1 0x40 MLOAD PUSH2 0x182 SWAP2 SWAP1 PUSH2 0x811 JUMP JUMPDEST PUSH1 0x40 MLOAD DUP1 SWAP2 SUB SWAP1 RETURN JUMPDEST PUSH2 0x193 PUSH2 0x62E JUMP JUMPDEST STOP JUMPDEST PUSH0 SELFBALANCE SWAP1 POP DUP1 DUP3 LT PUSH2 0x1DB JUMPI PUSH1 0x40 MLOAD PUSH32 0x8C379A000000000000000000000000000000000000000000000000000000000 DUP2 MSTORE PUSH1 0x4 ADD PUSH2 0x1D2 SWAP1 PUSH2 0x884 JUMP JUMPDEST PUSH1 0x40 MLOAD DUP1 SWAP2 SUB SWAP1 REVERT JUMPDEST PUSH0 DUP2 GT PUSH2 0x21D JUMPI PUSH1 0x40 MLOAD PUSH32 0x8C379A000000000000000000000000000000000000000000000000000000000 DUP2 MSTORE PUSH1 0x4 ADD PUSH2 0x214 SWAP1 PUSH2 0x8EC JUMP JUMPDEST PUSH1 0x40 MLOAD DUP1 SWAP2 SUB SWAP1 REVERT JUMPDEST PUSH0 PUSH8 0xDE0B6B3A7640000 DUP4 PUSH2 0x232 SWAP2 SWAP1 PUSH2 0x937 JUMP JUMPDEST SWAP1 POP DUP4 PUSH20 0xFFFFFFFFFFFFFFFFFFFFFFFFFFFFFFFFFFFFFFFF AND PUSH2 0x8FC DUP3 SWAP1 DUP2 ISZERO MUL SWAP1 PUSH1 0x40 MLOAD PUSH0 PUSH1 0x40 MLOAD DUP1 DUP4 SUB DUP2 DUP6 DUP9 DUP9 CALL SWAP4 POP POP POP POP ISZERO DUP1 ISZERO PUSH2 0x277 JUMPI RETURNDATASIZE PUSH0 PUSH0 RETURNDATACOPY RETURNDATASIZE PUSH0 REVERT JUMPDEST POP DUP4 PUSH20 0xFFFFFFFFFFFFFFFFFFFFFFFFFFFFFFFFFFFFFFFF AND PUSH32 0x419013FFBFD3A7E95A13645088F1F9B8AFF6057AAA2A840CC18DDBBEC3D1677C DUP3 PUSH1 0x40 MLOAD PUSH2 0x2BE SWAP2 SWAP1 PUSH2 0x6F8 JUMP JUMPDEST PUSH1 0x40 MLOAD DUP1 SWAP2 SUB SWAP1 LOG2 POP POP POP POP JUMP JUMPDEST PUSH0 PUSH0 PUSH8 0xDE0B6B3A7640000 SELFBALANCE PUSH2 0x2E2 SWAP2 SWAP1 PUSH2 0x9A5 JUMP JUMPDEST SWAP1 POP DUP1 SWAP2 POP POP SWAP1 JUMP JUMPDEST PUSH0 PUSH0 SWAP1 SLOAD SWAP1 PUSH2 0x100 EXP SWAP1 DIV PUSH20 0xFFFFFFFFFFFFFFFFFFFFFFFFFFFFFFFFFFFFFFFF AND PUSH20 0xFFFFFFFFFFFFFFFFFFFFFFFFFFFFFFFFFFFFFFFF AND CALLER PUSH20 0xFFFFFFFFFFFFFFFFFFFFFFFFFFFFFFFFFFFFFFFF AND EQ PUSH2 0x379 JUMPI PUSH1 0x40 MLOAD PUSH32 0x8C379A000000000000000000000000000000000000000000000000000000000 DUP2 MSTORE PUSH1 0x4 ADD PUSH2 0x370 SWAP1 PUSH2 0xA45 JUMP JUMPDEST PUSH1 0x40 MLOAD DUP1 SWAP2 SUB SWAP1 REVERT JUMPDEST PUSH0 SELFBALANCE SWAP1 POP PUSH0 DUP2 GT PUSH2 0x3BF JUMPI PUSH1 0x40 MLOAD PUSH32 0x8C379A000000000000000000000000000000000000000000000000000000000 DUP2 MSTORE PUSH1 0x4 ADD PUSH2 0x3B6 SWAP1 PUSH2 0xAAD JUMP JUMPDEST PUSH1 0x40 MLOAD DUP1 SWAP2 SUB SWAP1 REVERT JUMPDEST DUP1 DUP3 LT PUSH2 0x401 JUMPI PUSH1 0x40 MLOAD PUSH32 0x8C379A000000000000000000000000000000000000000000000000000000000 DUP2 MSTORE PUSH1 0x4 ADD PUSH2 0x3F8 SWAP1 PUSH2 0x884 JUMP JUMPDEST PUSH1 0x40 MLOAD DUP1 SWAP2 SUB SWAP1 REVERT JUMPDEST PUSH0 PUSH8 0xDE0B6B3A7640000 DUP4 PUSH2 0x416 SWAP2 SWAP1 PUSH2 0x937 JUMP JUMPDEST SWAP1 POP PUSH0 PUSH0 SWAP1 SLOAD SWAP1 PUSH2 0x100 EXP SWAP1 DIV PUSH20 0xFFFFFFFFFFFFFFFFFFFFFFFFFFFFFFFFFFFFFFFF AND PUSH20 0xFFFFFFFFFFFFFFFFFFFFFFFFFFFFFFFFFFFFFFFF AND PUSH2 0x8FC DUP3 SWAP1 DUP2 ISZERO MUL SWAP1 PUSH1 0x40 MLOAD PUSH0 PUSH1 0x40 MLOAD DUP1 DUP4 SUB DUP2 DUP6 DUP9 DUP9 CALL SWAP4 POP POP POP POP ISZERO DUP1 ISZERO PUSH2 0x47B JUMPI RETURNDATASIZE PUSH0 PUSH0 RETURNDATACOPY RETURNDATASIZE PUSH0 REVERT JUMPDEST POP PUSH0 PUSH0 SWAP1 SLOAD SWAP1 PUSH2 0x100 EXP SWAP1 DIV PUSH20 0xFFFFFFFFFFFFFFFFFFFFFFFFFFFFFFFFFFFFFFFF AND PUSH20 0xFFFFFFFFFFFFFFFFFFFFFFFFFFFFFFFFFFFFFFFF AND PUSH32 0x884EDAD9CE6FA2440D8A54CC123490EB96D2768479D49FF9C7366125A9424364 DUP3 PUSH1 0x40 MLOAD PUSH2 0x4E2 SWAP2 SWAP1 PUSH2 0x6F8 JUMP JUMPDEST PUSH1 0x40 MLOAD DUP1 SWAP2 SUB SWAP1 LOG2 POP POP POP JUMP JUMPDEST PUSH0 SELFBALANCE SWAP1 POP PUSH0 DUP2 GT PUSH2 0x535 JUMPI PUSH1 0x40 MLOAD PUSH32 0x8C379A000000000000000000000000000000000000000000000000000000000 DUP2 MSTORE PUSH1 0x4 ADD PUSH2 0x52C SWAP1 PUSH2 0x8EC JUMP JUMPDEST PUSH1 0x40 MLOAD DUP1 SWAP2 SUB SWAP1 REVERT JUMPDEST PUSH0 PUSH0 SWAP1 SLOAD SWAP1 PUSH2 0x100 EXP SWAP1 DIV PUSH20 0xFFFFFFFFFFFFFFFFFFFFFFFFFFFFFFFFFFFFFFFF AND PUSH20 0xFFFFFFFFFFFFFFFFFFFFFFFFFFFFFFFFFFFFFFFF AND PUSH2 0x8FC DUP3 SWAP1 DUP2 ISZERO MUL SWAP1 PUSH1 0x40 MLOAD PUSH0 PUSH1 0x40 MLOAD DUP1 DUP4 SUB DUP2 DUP6 DUP9 DUP9 CALL SWAP4 POP POP POP POP ISZERO DUP1 ISZERO PUSH2 0x598 JUMPI RETURNDATASIZE PUSH0 PUSH0 RETURNDATACOPY RETURNDATASIZE PUSH0 REVERT JUMPDEST POP PUSH0 PUSH0 SWAP1 SLOAD SWAP1 PUSH2 0x100 EXP SWAP1 DIV PUSH20 0xFFFFFFFFFFFFFFFFFFFFFFFFFFFFFFFFFFFFFFFF AND PUSH20 0xFFFFFFFFFFFFFFFFFFFFFFFFFFFFFFFFFFFFFFFF AND PUSH32 0x884EDAD9CE6FA2440D8A54CC123490EB96D2768479D49FF9C7366125A9424364 DUP3 PUSH1 0x40 MLOAD PUSH2 0x5FF SWAP2 SWAP1 PUSH2 0x6F8 JUMP JUMPDEST PUSH1 0x40 MLOAD DUP1 SWAP2 SUB SWAP1 LOG2 POP JUMP JUMPDEST PUSH0 PUSH0 SWAP1 SLOAD SWAP1 PUSH2 0x100 EXP SWAP1 DIV PUSH20 0xFFFFFFFFFFFFFFFFFFFFFFFFFFFFFFFFFFFFFFFF AND DUP2 JUMP JUMPDEST PUSH0 CALLVALUE GT PUSH2 0x670 JUMPI PUSH1 0x40 MLOAD PUSH32 0x8C379A000000000000000000000000000000000000000000000000000000000 DUP2 MSTORE PUSH1 0x4 ADD PUSH2 0x667 SWAP1 PUSH2 0xB3B JUMP JUMPDEST PUSH1 0x40 MLOAD DUP1 SWAP2 SUB SWAP1 REVERT JUMPDEST PUSH0 PUSH0 SWAP1 SLOAD SWAP1 PUSH2 0x100 EXP SWAP1 DIV PUSH20 0xFFFFFFFFFFFFFFFFFFFFFFFFFFFFFFFFFFFFFFFF AND PUSH20 0xFFFFFFFFFFFFFFFFFFFFFFFFFFFFFFFFFFFFFFFF AND PUSH32 0x2DA466A7B24304F47E87FA2E1E5A81B9831CE54FEC19055CE277CA2F39BA42C4 CALLVALUE PUSH1 0x40 MLOAD PUSH2 0x6D6 SWAP2 SWAP1 PUSH2 0x6F8 JUMP JUMPDEST PUSH1 0x40 MLOAD DUP1 SWAP2 SUB SWAP1 LOG2 JUMP JUMPDEST PUSH0 DUP2 SWAP1 POP SWAP2 SWAP1 POP JUMP JUMPDEST PUSH2 0x6F2 DUP2 PUSH2 0x6E0 JUMP JUMPDEST DUP3 MSTORE POP POP JUMP JUMPDEST PUSH0 PUSH1 0x20 DUP3 ADD SWAP1 POP PUSH2 0x70B PUSH0 DUP4 ADD DUP5 PUSH2 0x6E9 JUMP JUMPDEST SWAP3 SWAP2 POP POP JUMP JUMPDEST PUSH0 PUSH0 REVERT JUMPDEST PUSH0 PUSH20 0xFFFFFFFFFFFFFFFFFFFFFFFFFFFFFFFFFFFFFFFF DUP3 AND SWAP1 POP SWAP2 SWAP1 POP JUMP JUMPDEST PUSH0 PUSH2 0x73E DUP3 PUSH2 0x715 JUMP JUMPDEST SWAP1 POP SWAP2 SWAP1 POP JUMP JUMPDEST PUSH2 0x74E DUP2 PUSH2 0x734 JUMP JUMPDEST DUP2 EQ PUSH2 0x758 JUMPI PUSH0 PUSH0 REVERT JUMPDEST POP JUMP JUMPDEST PUSH0 DUP2 CALLDATALOAD SWAP1 POP PUSH2 0x769 DUP2 PUSH2 0x745 JUMP JUMPDEST SWAP3 SWAP2 POP POP JUMP JUMPDEST PUSH2 0x778 DUP2 PUSH2 0x6E0 JUMP JUMPDEST DUP2 EQ PUSH2 0x782 JUMPI PUSH0 PUSH0 REVERT JUMPDEST POP JUMP JUMPDEST PUSH0 DUP2 CALLDATALOAD SWAP1 POP PUSH2 0x793 DUP2 PUSH2 0x76F JUMP JUMPDEST SWAP3 SWAP2 POP POP JUMP JUMPDEST PUSH0 PUSH0 PUSH1 0x40 DUP4 DUP6 SUB SLT ISZERO PUSH2 0x7AF JUMPI PUSH2 0x7AE PUSH2 0x711 JUMP JUMPDEST JUMPDEST PUSH0 PUSH2 0x7BC DUP6 DUP3 DUP7 ADD PUSH2 0x75B JUMP JUMPDEST SWAP3 POP POP PUSH1 0x20 PUSH2 0x7CD DUP6 DUP3 DUP7 ADD PUSH2 0x785 JUMP JUMPDEST SWAP2 POP POP SWAP3 POP SWAP3 SWAP1 POP JUMP JUMPDEST PUSH0 PUSH1 0x20 DUP3 DUP5 SUB SLT ISZERO PUSH2 0x7EC JUMPI PUSH2 0x7EB PUSH2 0x711 JUMP JUMPDEST JUMPDEST PUSH0 PUSH2 0x7F9 DUP5 DUP3 DUP6 ADD PUSH2 0x785 JUMP JUMPDEST SWAP2 POP POP SWAP3 SWAP2 POP POP JUMP JUMPDEST PUSH2 0x80B DUP2 PUSH2 0x734 JUMP JUMPDEST DUP3 MSTORE POP POP JUMP JUMPDEST PUSH0 PUSH1 0x20 DUP3 ADD SWAP1 POP PUSH2 0x824 PUSH0 DUP4 ADD DUP5 PUSH2 0x802 JUMP JUMPDEST SWAP3 SWAP2 POP POP JUMP JUMPDEST PUSH0 DUP3 DUP3 MSTORE PUSH1 0x20 DUP3 ADD SWAP1 POP SWAP3 SWAP2 POP POP JUMP JUMPDEST PUSH32 0x496E73756666696369656E742042616C616E6365000000000000000000000000 PUSH0 DUP3 ADD MSTORE POP JUMP JUMPDEST PUSH0 PUSH2 0x86E PUSH1 0x14 DUP4 PUSH2 0x82A JUMP JUMPDEST SWAP2 POP PUSH2 0x879 DUP3 PUSH2 0x83A JUMP JUMPDEST PUSH1 0x20 DUP3 ADD SWAP1 POP SWAP2 SWAP1 POP JUMP JUMPDEST PUSH0 PUSH1 0x20 DUP3 ADD SWAP1 POP DUP2 DUP2 SUB PUSH0 DUP4 ADD MSTORE PUSH2 0x89B DUP2 PUSH2 0x862 JUMP JUMPDEST SWAP1 POP SWAP2 SWAP1 POP JUMP JUMPDEST PUSH32 0x4E6F2046756E647320746F205472616E73666572000000000000000000000000 PUSH0 DUP3 ADD MSTORE POP JUMP JUMPDEST PUSH0 PUSH2 0x8D6 PUSH1 0x14 DUP4 PUSH2 0x82A JUMP JUMPDEST SWAP2 POP PUSH2 0x8E1 DUP3 PUSH2 0x8A2 JUMP JUMPDEST PUSH1 0x20 DUP3 ADD SWAP1 POP SWAP2 SWAP1 POP JUMP JUMPDEST PUSH0 PUSH1 0x20 DUP3 ADD SWAP1 POP DUP2 DUP2 SUB PUSH0 DUP4 ADD MSTORE PUSH2 0x903 DUP2 PUSH2 0x8CA JUMP JUMPDEST SWAP1 POP SWAP2 SWAP1 POP JUMP JUMPDEST PUSH32 0x4E487B7100000000000000000000000000000000000000000000000000000000 PUSH0 MSTORE PUSH1 0x11 PUSH1 0x4 MSTORE PUSH1 0x24 PUSH0 REVERT JUMPDEST PUSH0 PUSH2 0x941 DUP3 PUSH2 0x6E0 JUMP JUMPDEST SWAP2 POP PUSH2 0x94C DUP4 PUSH2 0x6E0 JUMP JUMPDEST SWAP3 POP DUP3 DUP3 MUL PUSH2 0x95A DUP2 PUSH2 0x6E0 JUMP JUMPDEST SWAP2 POP DUP3 DUP3 DIV DUP5 EQ DUP4 ISZERO OR PUSH2 0x971 JUMPI PUSH2 0x970 PUSH2 0x90A JUMP JUMPDEST JUMPDEST POP SWAP3 SWAP2 POP POP JUMP JUMPDEST PUSH32 0x4E487B7100000000000000000000000000000000000000000000000000000000 PUSH0 MSTORE PUSH1 0x12 PUSH1 0x4 MSTORE PUSH1 0x24 PUSH0 REVERT JUMPDEST PUSH0 PUSH2 0x9AF DUP3 PUSH2 0x6E0 JUMP JUMPDEST SWAP2 POP PUSH2 0x9BA DUP4 PUSH2 0x6E0 JUMP JUMPDEST SWAP3 POP DUP3 PUSH2 0x9CA JUMPI PUSH2 0x9C9 PUSH2 0x978 JUMP JUMPDEST JUMPDEST DUP3 DUP3 DIV SWAP1 POP SWAP3 SWAP2 POP POP JUMP JUMPDEST PUSH32 0x4F6E6C79206F776E65722063616E20776974686472617720746865206D6F6E65 PUSH0 DUP3 ADD MSTORE PUSH32 0x7900000000000000000000000000000000000000000000000000000000000000 PUSH1 0x20 DUP3 ADD MSTORE POP JUMP JUMPDEST PUSH0 PUSH2 0xA2F PUSH1 0x21 DUP4 PUSH2 0x82A JUMP JUMPDEST SWAP2 POP PUSH2 0xA3A DUP3 PUSH2 0x9D5 JUMP JUMPDEST PUSH1 0x40 DUP3 ADD SWAP1 POP SWAP2 SWAP1 POP JUMP JUMPDEST PUSH0 PUSH1 0x20 DUP3 ADD SWAP1 POP DUP2 DUP2 SUB PUSH0 DUP4 ADD MSTORE PUSH2 0xA5C DUP2 PUSH2 0xA23 JUMP JUMPDEST SWAP1 POP SWAP2 SWAP1 POP JUMP JUMPDEST PUSH32 0x4E6F2066756E647320746F205769746864726177000000000000000000000000 PUSH0 DUP3 ADD MSTORE POP JUMP JUMPDEST PUSH0 PUSH2 0xA97 PUSH1 0x14 DUP4 PUSH2 0x82A JUMP JUMPDEST SWAP2 POP PUSH2 0xAA2 DUP3 PUSH2 0xA63 JUMP JUMPDEST PUSH1 0x20 DUP3 ADD SWAP1 POP SWAP2 SWAP1 POP JUMP JUMPDEST PUSH0 PUSH1 0x20 DUP3 ADD SWAP1 POP DUP2 DUP2 SUB PUSH0 DUP4 ADD MSTORE PUSH2 0xAC4 DUP2 PUSH2 0xA8B JUMP JUMPDEST SWAP1 POP SWAP2 SWAP1 POP JUMP JUMPDEST PUSH32 0x4465706F73697420616D6F756E74206D75737420626520677265617465722074 PUSH0 DUP3 ADD MSTORE PUSH32 0x68616E207A65726F000000000000000000000000000000000000000000000000 PUSH1 0x20 DUP3 ADD MSTORE POP JUMP JUMPDEST PUSH0 PUSH2 0xB25 PUSH1 0x28 DUP4 PUSH2 0x82A JUMP JUMPDEST SWAP2 POP PUSH2 0xB30 DUP3 PUSH2 0xACB JUMP JUMPDEST PUSH1 0x40 DUP3 ADD SWAP1 POP SWAP2 SWAP1 POP JUMP JUMPDEST PUSH0 PUSH1 0x20 DUP3 ADD SWAP1 POP DUP2 DUP2 SUB PUSH0 DUP4 ADD MSTORE PUSH2 0xB52 DUP2 PUSH2 0xB19 JUMP JUMPDEST SWAP1 POP SWAP2 SWAP1 POP JUMP INVALID LOG2 PUSH5 0x6970667358 0x22 SLT KECCAK256 PUSH7 0xCCF91874997D6 0xE8 MUL 0xAA 0xA7 0xAE 0xB6 TIMESTAMP JUMP SWAP10 PUSH11 0xD48FF53502DDA150E66786 0xCA SDIV 0xCD PUSH5 0x736F6C6343 STOP ADDMOD 0x1E STOP CALLER "
				},
				"gasEstimates": {
					"creation": {
						"codeDepositCost": "591800",
						"executionCost": "24887",
						"totalCost": "616687"
					},
					"external": {
						"deposit()": "3933",
						"getBalance()": "infinite",
						"owner()": "2573",
						"transwerFunds(address,uint256)": "infinite",
						"withdraw(uint256)": "infinite",
						"withdrawAll()": "infinite"
					}
				},
				"methodIdentifiers": {
					"deposit()": "d0e30db0",
					"getBalance()": "12065fe0",
					"owner()": "8da5cb5b",
					"transwerFunds(address,uint256)": "0cc50936",
					"withdraw(uint256)": "2e1a7d4d",
					"withdrawAll()": "853828b6"
				}
			},
			"storageLayout": {
				"storage": [
					{
						"astId": 3,
						"contract": "contracts/ether_piggy_bank.sol:EtherPiggyBank",
						"label": "owner",
						"offset": 0,
						"slot": "0",
						"type": "t_address"
					}
				],
				"types": {
					"t_address": {
						"encoding": "inplace",
						"label": "address",
						"numberOfBytes": "20"
					}
				}
			},
			"userdoc": {
				"kind": "user",
				"methods": {},
				"version": 1
			}
		}
	}
}