{
	"contracts/deccentralized_notes_app.sol": {
		"NotesApp": {
			"abi": [
				{
					"anonymous": false,
					"inputs": [
						{
							"indexed": false,
							"internalType": "address",
							"name": "_user",
							"type": "address"
						},
						{
							"indexed": false,
							"internalType": "uint256",
							"name": "_idx",
							"type": "uint256"
						}
					],
					"name": "noteDeleted",
					"type": "event"
				},
				{
					"anonymous": false,
					"inputs": [
						{
							"indexed": false,
							"internalType": "address",
							"name": "_user",
							"type": "address"
						},
						{
							"indexed": false,
							"internalType": "uint256",
							"name": "_idx",
							"type": "uint256"
						},
						{
							"indexed": false,
							"internalType": "string",
							"name": "_title",
							"type": "string"
						},
						{
							"indexed": false,
							"internalType": "string",
							"name": "_content",
							"type": "string"
						}
					],
					"name": "noteUpdated",
					"type": "event"
				},
				{
					"anonymous": false,
					"inputs": [
						{
							"indexed": false,
							"internalType": "address",
							"name": "_user",
							"type": "address"
						},
						{
							"indexed": false,
							"internalType": "string",
							"name": "_title",
							"type": "string"
						},
						{
							"indexed": false,
							"internalType": "uint256",
							"name": "_idx",
							"type": "uint256"
						}
					],
					"name": "notedAdded",
					"type": "event"
				},
				{
					"inputs": [
						{
							"internalType": "string",
							"name": "_title",
							"type": "string"
						},
						{
							"internalType": "string",
							"name": "_content",
							"type": "string"
						}
					],
					"name": "addNote",
					"outputs": [],
					"stateMutability": "nonpayable",
					"type": "function"
				},
				{
					"inputs": [
						{
							"internalType": "uint256",
							"name": "_idx",
							"type": "uint256"
						}
					],
					"name": "deleteNote",
					"outputs": [],
					"stateMutability": "nonpayable",
					"type": "function"
				},
				{
					"inputs": [],
					"name": "getAllNotes",
					"outputs": [
						{
							"components": [
								{
									"internalType": "uint256",
									"name": "idx",
									"type": "uint256"
								},
								{
									"internalType": "string",
									"name": "title",
									"type": "string"
								},
								{
									"internalType": "string",
									"name": "content",
									"type": "string"
								},
								{
									"internalType": "bool",
									"name": "isDeleted",
									"type": "bool"
								},
								{
									"internalType": "uint256",
									"name": "timeStamp",
									"type": "uint256"
								}
							],
							"internalType": "struct NotesApp.Note[]",
							"name": "",
							"type": "tuple[]"
						}
					],
					"stateMutability": "view",
					"type": "function"
				},
				{
					"inputs": [
						{
							"internalType": "uint256",
							"name": "_idx",
							"type": "uint256"
						},
						{
							"internalType": "string",
							"name": "_title",
							"type": "string"
						},
						{
							"internalType": "string",
							"name": "_content",
							"type": "string"
						}
					],
					"name": "updateNote",
					"outputs": [],
					"stateMutability": "nonpayable",
					"type": "function"
				}
			],
			"devdoc": {
				"kind": "dev",
				"methods": {},
				"version": 1
			},
			"evm": {
				"assembly": "    /* \"contracts/deccentralized_notes_app.sol\":61:2994  contract NotesApp{... */\n  mstore(0x40, 0x80)\n  callvalue\n  dup1\n  iszero\n  tag_1\n  jumpi\n  revert(0x00, 0x00)\ntag_1:\n  pop\n  dataSize(sub_0)\n  dup1\n  dataOffset(sub_0)\n  0x00\n  codecopy\n  0x00\n  return\nstop\n\nsub_0: assembly {\n        /* \"contracts/deccentralized_notes_app.sol\":61:2994  contract NotesApp{... */\n      mstore(0x40, 0x80)\n      callvalue\n      dup1\n      iszero\n      tag_1\n      jumpi\n      revert(0x00, 0x00)\n    tag_1:\n      pop\n      jumpi(tag_2, lt(calldatasize, 0x04))\n      shr(0xe0, calldataload(0x00))\n      dup1\n      0x09abcd3b\n      eq\n      tag_3\n      jumpi\n      dup1\n      0x2fdccd0b\n      eq\n      tag_4\n      jumpi\n      dup1\n      0xc47177f4\n      eq\n      tag_5\n      jumpi\n      dup1\n      0xde8f430c\n      eq\n      tag_6\n      jumpi\n    tag_2:\n      revert(0x00, 0x00)\n        /* \"contracts/deccentralized_notes_app.sol\":962:1544  function updateNote(uint256 _idx, string memory _title, string memory _content) public {... */\n    tag_3:\n      tag_7\n      0x04\n      dup1\n      calldatasize\n      sub\n      dup2\n      add\n      swap1\n      tag_8\n      swap2\n      swap1\n      tag_9\n      jump\t// in\n    tag_8:\n      tag_10\n      jump\t// in\n    tag_7:\n      stop\n        /* \"contracts/deccentralized_notes_app.sol\":615:921  function addNote(string memory _title, string memory _content) public {... */\n    tag_4:\n      tag_11\n      0x04\n      dup1\n      calldatasize\n      sub\n      dup2\n      add\n      swap1\n      tag_12\n      swap2\n      swap1\n      tag_13\n      jump\t// in\n    tag_12:\n      tag_14\n      jump\t// in\n    tag_11:\n      stop\n        /* \"contracts/deccentralized_notes_app.sol\":1587:1996  function deleteNote(uint256 _idx) public {... */\n    tag_5:\n      tag_15\n      0x04\n      dup1\n      calldatasize\n      sub\n      dup2\n      add\n      swap1\n      tag_16\n      swap2\n      swap1\n      tag_17\n      jump\t// in\n    tag_16:\n      tag_18\n      jump\t// in\n    tag_15:\n      stop\n        /* \"contracts/deccentralized_notes_app.sol\":2057:2991  function getAllNotes() public view returns(Note[] memory){... */\n    tag_6:\n      tag_19\n      tag_20\n      jump\t// in\n    tag_19:\n      mload(0x40)\n      tag_21\n      swap2\n      swap1\n      tag_22\n      jump\t// in\n    tag_21:\n      mload(0x40)\n      dup1\n      swap2\n      sub\n      swap1\n      return\n        /* \"contracts/deccentralized_notes_app.sol\":962:1544  function updateNote(uint256 _idx, string memory _title, string memory _content) public {... */\n    tag_10:\n        /* \"contracts/deccentralized_notes_app.sol\":1106:1116  savedNotes */\n      0x00\n        /* \"contracts/deccentralized_notes_app.sol\":1106:1128  savedNotes[msg.sender] */\n      0x00\n        /* \"contracts/deccentralized_notes_app.sol\":1117:1127  msg.sender */\n      caller\n        /* \"contracts/deccentralized_notes_app.sol\":1106:1128  savedNotes[msg.sender] */\n      0xffffffffffffffffffffffffffffffffffffffff\n      and\n      0xffffffffffffffffffffffffffffffffffffffff\n      and\n      dup2\n      mstore\n      0x20\n      add\n      swap1\n      dup2\n      mstore\n      0x20\n      add\n      0x00\n      keccak256\n        /* \"contracts/deccentralized_notes_app.sol\":1106:1135  savedNotes[msg.sender].length */\n      dup1\n      sload\n      swap1\n      pop\n        /* \"contracts/deccentralized_notes_app.sol\":1099:1103  _idx */\n      dup4\n        /* \"contracts/deccentralized_notes_app.sol\":1099:1135  _idx < savedNotes[msg.sender].length */\n      lt\n        /* \"contracts/deccentralized_notes_app.sol\":1091:1153  require(_idx < savedNotes[msg.sender].length, \"Invalid Index\") */\n      tag_24\n      jumpi\n      mload(0x40)\n      0x08c379a000000000000000000000000000000000000000000000000000000000\n      dup2\n      mstore\n      0x04\n      add\n      tag_25\n      swap1\n      tag_26\n      jump\t// in\n    tag_25:\n      mload(0x40)\n      dup1\n      swap2\n      sub\n      swap1\n      revert\n    tag_24:\n        /* \"contracts/deccentralized_notes_app.sol\":1173:1183  savedNotes */\n      0x00\n        /* \"contracts/deccentralized_notes_app.sol\":1173:1195  savedNotes[msg.sender] */\n      0x00\n        /* \"contracts/deccentralized_notes_app.sol\":1184:1194  msg.sender */\n      caller\n        /* \"contracts/deccentralized_notes_app.sol\":1173:1195  savedNotes[msg.sender] */\n      0xffffffffffffffffffffffffffffffffffffffff\n      and\n      0xffffffffffffffffffffffffffffffffffffffff\n      and\n      dup2\n      mstore\n      0x20\n      add\n      swap1\n      dup2\n      mstore\n      0x20\n      add\n      0x00\n      keccak256\n        /* \"contracts/deccentralized_notes_app.sol\":1196:1200  _idx */\n      dup4\n        /* \"contracts/deccentralized_notes_app.sol\":1173:1201  savedNotes[msg.sender][_idx] */\n      dup2\n      sload\n      dup2\n      lt\n      tag_27\n      jumpi\n      tag_28\n      tag_29\n      jump\t// in\n    tag_28:\n    tag_27:\n      swap1\n      0x00\n      mstore\n      keccak256(0x00, 0x20)\n      swap1\n      0x05\n      mul\n      add\n        /* \"contracts/deccentralized_notes_app.sol\":1173:1211  savedNotes[msg.sender][_idx].isDeleted */\n      0x03\n      add\n      0x00\n      swap1\n      sload\n      swap1\n      0x0100\n      exp\n      swap1\n      div\n      0xff\n      and\n        /* \"contracts/deccentralized_notes_app.sol\":1172:1211  !savedNotes[msg.sender][_idx].isDeleted */\n      iszero\n        /* \"contracts/deccentralized_notes_app.sol\":1164:1228  require(!savedNotes[msg.sender][_idx].isDeleted, \"Note Deleted\") */\n      tag_31\n      jumpi\n      mload(0x40)\n      0x08c379a000000000000000000000000000000000000000000000000000000000\n      dup2\n      mstore\n      0x04\n      add\n      tag_32\n      swap1\n      tag_33\n      jump\t// in\n    tag_32:\n      mload(0x40)\n      dup1\n      swap2\n      sub\n      swap1\n      revert\n    tag_31:\n        /* \"contracts/deccentralized_notes_app.sol\":1309:1315  _title */\n      dup2\n        /* \"contracts/deccentralized_notes_app.sol\":1272:1282  savedNotes */\n      0x00\n        /* \"contracts/deccentralized_notes_app.sol\":1272:1294  savedNotes[msg.sender] */\n      0x00\n        /* \"contracts/deccentralized_notes_app.sol\":1283:1293  msg.sender */\n      caller\n        /* \"contracts/deccentralized_notes_app.sol\":1272:1294  savedNotes[msg.sender] */\n      0xffffffffffffffffffffffffffffffffffffffff\n      and\n      0xffffffffffffffffffffffffffffffffffffffff\n      and\n      dup2\n      mstore\n      0x20\n      add\n      swap1\n      dup2\n      mstore\n      0x20\n      add\n      0x00\n      keccak256\n        /* \"contracts/deccentralized_notes_app.sol\":1295:1299  _idx */\n      dup5\n        /* \"contracts/deccentralized_notes_app.sol\":1272:1300  savedNotes[msg.sender][_idx] */\n      dup2\n      sload\n      dup2\n      lt\n      tag_34\n      jumpi\n      tag_35\n      tag_29\n      jump\t// in\n    tag_35:\n    tag_34:\n      swap1\n      0x00\n      mstore\n      keccak256(0x00, 0x20)\n      swap1\n      0x05\n      mul\n      add\n        /* \"contracts/deccentralized_notes_app.sol\":1272:1306  savedNotes[msg.sender][_idx].title */\n      0x01\n      add\n        /* \"contracts/deccentralized_notes_app.sol\":1272:1315  savedNotes[msg.sender][_idx].title = _title */\n      swap1\n      dup2\n      tag_37\n      swap2\n      swap1\n      tag_38\n      jump\t// in\n    tag_37:\n      pop\n        /* \"contracts/deccentralized_notes_app.sol\":1365:1373  _content */\n      dup1\n        /* \"contracts/deccentralized_notes_app.sol\":1326:1336  savedNotes */\n      0x00\n        /* \"contracts/deccentralized_notes_app.sol\":1326:1348  savedNotes[msg.sender] */\n      0x00\n        /* \"contracts/deccentralized_notes_app.sol\":1337:1347  msg.sender */\n      caller\n        /* \"contracts/deccentralized_notes_app.sol\":1326:1348  savedNotes[msg.sender] */\n      0xffffffffffffffffffffffffffffffffffffffff\n      and\n      0xffffffffffffffffffffffffffffffffffffffff\n      and\n      dup2\n      mstore\n      0x20\n      add\n      swap1\n      dup2\n      mstore\n      0x20\n      add\n      0x00\n      keccak256\n        /* \"contracts/deccentralized_notes_app.sol\":1349:1353  _idx */\n      dup5\n        /* \"contracts/deccentralized_notes_app.sol\":1326:1354  savedNotes[msg.sender][_idx] */\n      dup2\n      sload\n      dup2\n      lt\n      tag_39\n      jumpi\n      tag_40\n      tag_29\n      jump\t// in\n    tag_40:\n    tag_39:\n      swap1\n      0x00\n      mstore\n      keccak256(0x00, 0x20)\n      swap1\n      0x05\n      mul\n      add\n        /* \"contracts/deccentralized_notes_app.sol\":1326:1362  savedNotes[msg.sender][_idx].content */\n      0x02\n      add\n        /* \"contracts/deccentralized_notes_app.sol\":1326:1373  savedNotes[msg.sender][_idx].content = _content */\n      swap1\n      dup2\n      tag_42\n      swap2\n      swap1\n      tag_38\n      jump\t// in\n    tag_42:\n      pop\n        /* \"contracts/deccentralized_notes_app.sol\":1425:1440  block.timestamp */\n      timestamp\n        /* \"contracts/deccentralized_notes_app.sol\":1384:1394  savedNotes */\n      0x00\n        /* \"contracts/deccentralized_notes_app.sol\":1384:1406  savedNotes[msg.sender] */\n      0x00\n        /* \"contracts/deccentralized_notes_app.sol\":1395:1405  msg.sender */\n      caller\n        /* \"contracts/deccentralized_notes_app.sol\":1384:1406  savedNotes[msg.sender] */\n      0xffffffffffffffffffffffffffffffffffffffff\n      and\n      0xffffffffffffffffffffffffffffffffffffffff\n      and\n      dup2\n      mstore\n      0x20\n      add\n      swap1\n      dup2\n      mstore\n      0x20\n      add\n      0x00\n      keccak256\n        /* \"contracts/deccentralized_notes_app.sol\":1407:1411  _idx */\n      dup5\n        /* \"contracts/deccentralized_notes_app.sol\":1384:1412  savedNotes[msg.sender][_idx] */\n      dup2\n      sload\n      dup2\n      lt\n      tag_43\n      jumpi\n      tag_44\n      tag_29\n      jump\t// in\n    tag_44:\n    tag_43:\n      swap1\n      0x00\n      mstore\n      keccak256(0x00, 0x20)\n      swap1\n      0x05\n      mul\n      add\n        /* \"contracts/deccentralized_notes_app.sol\":1384:1422  savedNotes[msg.sender][_idx].timeStamp */\n      0x04\n      add\n        /* \"contracts/deccentralized_notes_app.sol\":1384:1440  savedNotes[msg.sender][_idx].timeStamp = block.timestamp */\n      dup2\n      swap1\n      sstore\n      pop\n        /* \"contracts/deccentralized_notes_app.sol\":1489:1536  noteUpdated(msg.sender, _idx, _title, _content) */\n      0x9df81c7ae47948d1c795751938f6355ba1253fe8bfdedb97ef26a066581a89c9\n        /* \"contracts/deccentralized_notes_app.sol\":1501:1511  msg.sender */\n      caller\n        /* \"contracts/deccentralized_notes_app.sol\":1513:1517  _idx */\n      dup5\n        /* \"contracts/deccentralized_notes_app.sol\":1519:1525  _title */\n      dup5\n        /* \"contracts/deccentralized_notes_app.sol\":1527:1535  _content */\n      dup5\n        /* \"contracts/deccentralized_notes_app.sol\":1489:1536  noteUpdated(msg.sender, _idx, _title, _content) */\n      mload(0x40)\n      tag_46\n      swap5\n      swap4\n      swap3\n      swap2\n      swap1\n      tag_47\n      jump\t// in\n    tag_46:\n      mload(0x40)\n      dup1\n      swap2\n      sub\n      swap1\n      log1\n        /* \"contracts/deccentralized_notes_app.sol\":962:1544  function updateNote(uint256 _idx, string memory _title, string memory _content) public {... */\n      pop\n      pop\n      pop\n      jump\t// out\n        /* \"contracts/deccentralized_notes_app.sol\":615:921  function addNote(string memory _title, string memory _content) public {... */\n    tag_14:\n        /* \"contracts/deccentralized_notes_app.sol\":696:708  uint256 _idx */\n      0x00\n        /* \"contracts/deccentralized_notes_app.sol\":711:721  savedNotes */\n      0x00\n        /* \"contracts/deccentralized_notes_app.sol\":711:733  savedNotes[msg.sender] */\n      0x00\n        /* \"contracts/deccentralized_notes_app.sol\":722:732  msg.sender */\n      caller\n        /* \"contracts/deccentralized_notes_app.sol\":711:733  savedNotes[msg.sender] */\n      0xffffffffffffffffffffffffffffffffffffffff\n      and\n      0xffffffffffffffffffffffffffffffffffffffff\n      and\n      dup2\n      mstore\n      0x20\n      add\n      swap1\n      dup2\n      mstore\n      0x20\n      add\n      0x00\n      keccak256\n        /* \"contracts/deccentralized_notes_app.sol\":711:740  savedNotes[msg.sender].length */\n      dup1\n      sload\n      swap1\n      pop\n        /* \"contracts/deccentralized_notes_app.sol\":696:740  uint256 _idx = savedNotes[msg.sender].length */\n      swap1\n      pop\n        /* \"contracts/deccentralized_notes_app.sol\":751:761  savedNotes */\n      0x00\n        /* \"contracts/deccentralized_notes_app.sol\":751:773  savedNotes[msg.sender] */\n      0x00\n        /* \"contracts/deccentralized_notes_app.sol\":762:772  msg.sender */\n      caller\n        /* \"contracts/deccentralized_notes_app.sol\":751:773  savedNotes[msg.sender] */\n      0xffffffffffffffffffffffffffffffffffffffff\n      and\n      0xffffffffffffffffffffffffffffffffffffffff\n      and\n      dup2\n      mstore\n      0x20\n      add\n      swap1\n      dup2\n      mstore\n      0x20\n      add\n      0x00\n      keccak256\n        /* \"contracts/deccentralized_notes_app.sol\":779:831  Note(_idx, _title, _content, false, block.timestamp) */\n      mload(0x40)\n      dup1\n      0xa0\n      add\n      0x40\n      mstore\n      dup1\n        /* \"contracts/deccentralized_notes_app.sol\":784:788  _idx */\n      dup4\n        /* \"contracts/deccentralized_notes_app.sol\":779:831  Note(_idx, _title, _content, false, block.timestamp) */\n      dup2\n      mstore\n      0x20\n      add\n        /* \"contracts/deccentralized_notes_app.sol\":790:796  _title */\n      dup6\n        /* \"contracts/deccentralized_notes_app.sol\":779:831  Note(_idx, _title, _content, false, block.timestamp) */\n      dup2\n      mstore\n      0x20\n      add\n        /* \"contracts/deccentralized_notes_app.sol\":798:806  _content */\n      dup5\n        /* \"contracts/deccentralized_notes_app.sol\":779:831  Note(_idx, _title, _content, false, block.timestamp) */\n      dup2\n      mstore\n      0x20\n      add\n        /* \"contracts/deccentralized_notes_app.sol\":808:813  false */\n      0x00\n        /* \"contracts/deccentralized_notes_app.sol\":779:831  Note(_idx, _title, _content, false, block.timestamp) */\n      iszero\n      iszero\n      dup2\n      mstore\n      0x20\n      add\n        /* \"contracts/deccentralized_notes_app.sol\":815:830  block.timestamp */\n      timestamp\n        /* \"contracts/deccentralized_notes_app.sol\":779:831  Note(_idx, _title, _content, false, block.timestamp) */\n      dup2\n      mstore\n      pop\n        /* \"contracts/deccentralized_notes_app.sol\":751:832  savedNotes[msg.sender].push(Note(_idx, _title, _content, false, block.timestamp)) */\n      swap1\n      dup1\n      0x01\n      dup2\n      sload\n      add\n      dup1\n      dup3\n      sstore\n      dup1\n      swap2\n      pop\n      pop\n      0x01\n      swap1\n      sub\n      swap1\n      0x00\n      mstore\n      keccak256(0x00, 0x20)\n      swap1\n      0x05\n      mul\n      add\n      0x00\n      swap1\n      swap2\n      swap1\n      swap2\n      swap1\n      swap2\n      pop\n      0x00\n      dup3\n      add\n      mload\n      dup2\n      0x00\n      add\n      sstore\n      0x20\n      dup3\n      add\n      mload\n      dup2\n      0x01\n      add\n      swap1\n      dup2\n      tag_50\n      swap2\n      swap1\n      tag_38\n      jump\t// in\n    tag_50:\n      pop\n      0x40\n      dup3\n      add\n      mload\n      dup2\n      0x02\n      add\n      swap1\n      dup2\n      tag_51\n      swap2\n      swap1\n      tag_38\n      jump\t// in\n    tag_51:\n      pop\n      0x60\n      dup3\n      add\n      mload\n      dup2\n      0x03\n      add\n      exp(0x0100, 0x00)\n      dup2\n      sload\n      dup2\n      0xff\n      mul\n      not\n      and\n      swap1\n      dup4\n      iszero\n      iszero\n      mul\n      or\n      swap1\n      sstore\n      pop\n      0x80\n      dup3\n      add\n      mload\n      dup2\n      0x04\n      add\n      sstore\n      pop\n      pop\n        /* \"contracts/deccentralized_notes_app.sol\":848:913  notedAdded(msg.sender, _title, savedNotes[msg.sender].length - 1) */\n      0x761c253c0f58cd3b81a17602ed6f3aaf892b25d833ac1ddfa099fae225a7d1a6\n        /* \"contracts/deccentralized_notes_app.sol\":859:869  msg.sender */\n      caller\n        /* \"contracts/deccentralized_notes_app.sol\":871:877  _title */\n      dup5\n        /* \"contracts/deccentralized_notes_app.sol\":911:912  1 */\n      0x01\n        /* \"contracts/deccentralized_notes_app.sol\":879:889  savedNotes */\n      0x00\n        /* \"contracts/deccentralized_notes_app.sol\":879:901  savedNotes[msg.sender] */\n      0x00\n        /* \"contracts/deccentralized_notes_app.sol\":890:900  msg.sender */\n      caller\n        /* \"contracts/deccentralized_notes_app.sol\":879:901  savedNotes[msg.sender] */\n      0xffffffffffffffffffffffffffffffffffffffff\n      and\n      0xffffffffffffffffffffffffffffffffffffffff\n      and\n      dup2\n      mstore\n      0x20\n      add\n      swap1\n      dup2\n      mstore\n      0x20\n      add\n      0x00\n      keccak256\n        /* \"contracts/deccentralized_notes_app.sol\":879:908  savedNotes[msg.sender].length */\n      dup1\n      sload\n      swap1\n      pop\n        /* \"contracts/deccentralized_notes_app.sol\":879:912  savedNotes[msg.sender].length - 1 */\n      tag_52\n      swap2\n      swap1\n      tag_53\n      jump\t// in\n    tag_52:\n        /* \"contracts/deccentralized_notes_app.sol\":848:913  notedAdded(msg.sender, _title, savedNotes[msg.sender].length - 1) */\n      mload(0x40)\n      tag_54\n      swap4\n      swap3\n      swap2\n      swap1\n      tag_55\n      jump\t// in\n    tag_54:\n      mload(0x40)\n      dup1\n      swap2\n      sub\n      swap1\n      log1\n        /* \"contracts/deccentralized_notes_app.sol\":685:921  {... */\n      pop\n        /* \"contracts/deccentralized_notes_app.sol\":615:921  function addNote(string memory _title, string memory _content) public {... */\n      pop\n      pop\n      jump\t// out\n        /* \"contracts/deccentralized_notes_app.sol\":1587:1996  function deleteNote(uint256 _idx) public {... */\n    tag_18:\n        /* \"contracts/deccentralized_notes_app.sol\":1686:1696  savedNotes */\n      0x00\n        /* \"contracts/deccentralized_notes_app.sol\":1686:1708  savedNotes[msg.sender] */\n      0x00\n        /* \"contracts/deccentralized_notes_app.sol\":1697:1707  msg.sender */\n      caller\n        /* \"contracts/deccentralized_notes_app.sol\":1686:1708  savedNotes[msg.sender] */\n      0xffffffffffffffffffffffffffffffffffffffff\n      and\n      0xffffffffffffffffffffffffffffffffffffffff\n      and\n      dup2\n      mstore\n      0x20\n      add\n      swap1\n      dup2\n      mstore\n      0x20\n      add\n      0x00\n      keccak256\n        /* \"contracts/deccentralized_notes_app.sol\":1686:1715  savedNotes[msg.sender].length */\n      dup1\n      sload\n      swap1\n      pop\n        /* \"contracts/deccentralized_notes_app.sol\":1679:1683  _idx */\n      dup2\n        /* \"contracts/deccentralized_notes_app.sol\":1679:1715  _idx < savedNotes[msg.sender].length */\n      lt\n        /* \"contracts/deccentralized_notes_app.sol\":1671:1733  require(_idx < savedNotes[msg.sender].length, \"Invalid Index\") */\n      tag_57\n      jumpi\n      mload(0x40)\n      0x08c379a000000000000000000000000000000000000000000000000000000000\n      dup2\n      mstore\n      0x04\n      add\n      tag_58\n      swap1\n      tag_26\n      jump\t// in\n    tag_58:\n      mload(0x40)\n      dup1\n      swap2\n      sub\n      swap1\n      revert\n    tag_57:\n        /* \"contracts/deccentralized_notes_app.sol\":1753:1763  savedNotes */\n      0x00\n        /* \"contracts/deccentralized_notes_app.sol\":1753:1775  savedNotes[msg.sender] */\n      0x00\n        /* \"contracts/deccentralized_notes_app.sol\":1764:1774  msg.sender */\n      caller\n        /* \"contracts/deccentralized_notes_app.sol\":1753:1775  savedNotes[msg.sender] */\n      0xffffffffffffffffffffffffffffffffffffffff\n      and\n      0xffffffffffffffffffffffffffffffffffffffff\n      and\n      dup2\n      mstore\n      0x20\n      add\n      swap1\n      dup2\n      mstore\n      0x20\n      add\n      0x00\n      keccak256\n        /* \"contracts/deccentralized_notes_app.sol\":1776:1780  _idx */\n      dup2\n        /* \"contracts/deccentralized_notes_app.sol\":1753:1781  savedNotes[msg.sender][_idx] */\n      dup2\n      sload\n      dup2\n      lt\n      tag_59\n      jumpi\n      tag_60\n      tag_29\n      jump\t// in\n    tag_60:\n    tag_59:\n      swap1\n      0x00\n      mstore\n      keccak256(0x00, 0x20)\n      swap1\n      0x05\n      mul\n      add\n        /* \"contracts/deccentralized_notes_app.sol\":1753:1791  savedNotes[msg.sender][_idx].isDeleted */\n      0x03\n      add\n      0x00\n      swap1\n      sload\n      swap1\n      0x0100\n      exp\n      swap1\n      div\n      0xff\n      and\n        /* \"contracts/deccentralized_notes_app.sol\":1752:1791  !savedNotes[msg.sender][_idx].isDeleted */\n      iszero\n        /* \"contracts/deccentralized_notes_app.sol\":1744:1817  require(!savedNotes[msg.sender][_idx].isDeleted, \"Note Already Deleted!\") */\n      tag_62\n      jumpi\n      mload(0x40)\n      0x08c379a000000000000000000000000000000000000000000000000000000000\n      dup2\n      mstore\n      0x04\n      add\n      tag_63\n      swap1\n      tag_64\n      jump\t// in\n    tag_63:\n      mload(0x40)\n      dup1\n      swap2\n      sub\n      swap1\n      revert\n    tag_62:\n        /* \"contracts/deccentralized_notes_app.sol\":1909:1913  true */\n      0x01\n        /* \"contracts/deccentralized_notes_app.sol\":1868:1878  savedNotes */\n      0x00\n        /* \"contracts/deccentralized_notes_app.sol\":1868:1890  savedNotes[msg.sender] */\n      0x00\n        /* \"contracts/deccentralized_notes_app.sol\":1879:1889  msg.sender */\n      caller\n        /* \"contracts/deccentralized_notes_app.sol\":1868:1890  savedNotes[msg.sender] */\n      0xffffffffffffffffffffffffffffffffffffffff\n      and\n      0xffffffffffffffffffffffffffffffffffffffff\n      and\n      dup2\n      mstore\n      0x20\n      add\n      swap1\n      dup2\n      mstore\n      0x20\n      add\n      0x00\n      keccak256\n        /* \"contracts/deccentralized_notes_app.sol\":1891:1895  _idx */\n      dup3\n        /* \"contracts/deccentralized_notes_app.sol\":1868:1896  savedNotes[msg.sender][_idx] */\n      dup2\n      sload\n      dup2\n      lt\n      tag_65\n      jumpi\n      tag_66\n      tag_29\n      jump\t// in\n    tag_66:\n    tag_65:\n      swap1\n      0x00\n      mstore\n      keccak256(0x00, 0x20)\n      swap1\n      0x05\n      mul\n      add\n        /* \"contracts/deccentralized_notes_app.sol\":1868:1906  savedNotes[msg.sender][_idx].isDeleted */\n      0x03\n      add\n      0x00\n        /* \"contracts/deccentralized_notes_app.sol\":1868:1913  savedNotes[msg.sender][_idx].isDeleted = true */\n      0x0100\n      exp\n      dup2\n      sload\n      dup2\n      0xff\n      mul\n      not\n      and\n      swap1\n      dup4\n      iszero\n      iszero\n      mul\n      or\n      swap1\n      sstore\n      pop\n        /* \"contracts/deccentralized_notes_app.sol\":1959:1988  noteDeleted(msg.sender, _idx) */\n      0xd651c969182e88c5ff4634f7f1e399568a1abbc781c0bbe2153e52edf0ea9cf8\n        /* \"contracts/deccentralized_notes_app.sol\":1971:1981  msg.sender */\n      caller\n        /* \"contracts/deccentralized_notes_app.sol\":1983:1987  _idx */\n      dup3\n        /* \"contracts/deccentralized_notes_app.sol\":1959:1988  noteDeleted(msg.sender, _idx) */\n      mload(0x40)\n      tag_68\n      swap3\n      swap2\n      swap1\n      tag_69\n      jump\t// in\n    tag_68:\n      mload(0x40)\n      dup1\n      swap2\n      sub\n      swap1\n      log1\n        /* \"contracts/deccentralized_notes_app.sol\":1587:1996  function deleteNote(uint256 _idx) public {... */\n      pop\n      jump\t// out\n        /* \"contracts/deccentralized_notes_app.sol\":2057:2991  function getAllNotes() public view returns(Note[] memory){... */\n    tag_20:\n        /* \"contracts/deccentralized_notes_app.sol\":2100:2113  Note[] memory */\n      0x60\n        /* \"contracts/deccentralized_notes_app.sol\":2204:2205  0 */\n      0x00\n        /* \"contracts/deccentralized_notes_app.sol\":2173:2183  savedNotes */\n      0x00\n        /* \"contracts/deccentralized_notes_app.sol\":2173:2195  savedNotes[msg.sender] */\n      0x00\n        /* \"contracts/deccentralized_notes_app.sol\":2184:2194  msg.sender */\n      caller\n        /* \"contracts/deccentralized_notes_app.sol\":2173:2195  savedNotes[msg.sender] */\n      0xffffffffffffffffffffffffffffffffffffffff\n      and\n      0xffffffffffffffffffffffffffffffffffffffff\n      and\n      dup2\n      mstore\n      0x20\n      add\n      swap1\n      dup2\n      mstore\n      0x20\n      add\n      0x00\n      keccak256\n        /* \"contracts/deccentralized_notes_app.sol\":2173:2202  savedNotes[msg.sender].length */\n      dup1\n      sload\n      swap1\n      pop\n        /* \"contracts/deccentralized_notes_app.sol\":2173:2205  savedNotes[msg.sender].length!=0 */\n      sub\n        /* \"contracts/deccentralized_notes_app.sol\":2165:2224  require(savedNotes[msg.sender].length!=0, \"No Notes Added\") */\n      tag_71\n      jumpi\n      mload(0x40)\n      0x08c379a000000000000000000000000000000000000000000000000000000000\n      dup2\n      mstore\n      0x04\n      add\n      tag_72\n      swap1\n      tag_73\n      jump\t// in\n    tag_72:\n      mload(0x40)\n      dup1\n      swap2\n      sub\n      swap1\n      revert\n    tag_71:\n        /* \"contracts/deccentralized_notes_app.sol\":2298:2311  uint256 count */\n      0x00\n        /* \"contracts/deccentralized_notes_app.sol\":2314:2315  0 */\n      0x00\n        /* \"contracts/deccentralized_notes_app.sol\":2298:2315  uint256 count = 0 */\n      swap1\n      pop\n        /* \"contracts/deccentralized_notes_app.sol\":2330:2339  uint256 i */\n      0x00\n        /* \"contracts/deccentralized_notes_app.sol\":2340:2341  0 */\n      0x00\n        /* \"contracts/deccentralized_notes_app.sol\":2330:2341  uint256 i=0 */\n      swap1\n      pop\n        /* \"contracts/deccentralized_notes_app.sol\":2326:2489  for(uint256 i=0; i<savedNotes[msg.sender].length; i++){... */\n    tag_74:\n        /* \"contracts/deccentralized_notes_app.sol\":2345:2355  savedNotes */\n      0x00\n        /* \"contracts/deccentralized_notes_app.sol\":2345:2367  savedNotes[msg.sender] */\n      0x00\n        /* \"contracts/deccentralized_notes_app.sol\":2356:2366  msg.sender */\n      caller\n        /* \"contracts/deccentralized_notes_app.sol\":2345:2367  savedNotes[msg.sender] */\n      0xffffffffffffffffffffffffffffffffffffffff\n      and\n      0xffffffffffffffffffffffffffffffffffffffff\n      and\n      dup2\n      mstore\n      0x20\n      add\n      swap1\n      dup2\n      mstore\n      0x20\n      add\n      0x00\n      keccak256\n        /* \"contracts/deccentralized_notes_app.sol\":2345:2374  savedNotes[msg.sender].length */\n      dup1\n      sload\n      swap1\n      pop\n        /* \"contracts/deccentralized_notes_app.sol\":2343:2344  i */\n      dup2\n        /* \"contracts/deccentralized_notes_app.sol\":2343:2374  i<savedNotes[msg.sender].length */\n      lt\n        /* \"contracts/deccentralized_notes_app.sol\":2326:2489  for(uint256 i=0; i<savedNotes[msg.sender].length; i++){... */\n      iszero\n      tag_75\n      jumpi\n        /* \"contracts/deccentralized_notes_app.sol\":2399:2409  savedNotes */\n      0x00\n        /* \"contracts/deccentralized_notes_app.sol\":2399:2421  savedNotes[msg.sender] */\n      0x00\n        /* \"contracts/deccentralized_notes_app.sol\":2410:2420  msg.sender */\n      caller\n        /* \"contracts/deccentralized_notes_app.sol\":2399:2421  savedNotes[msg.sender] */\n      0xffffffffffffffffffffffffffffffffffffffff\n      and\n      0xffffffffffffffffffffffffffffffffffffffff\n      and\n      dup2\n      mstore\n      0x20\n      add\n      swap1\n      dup2\n      mstore\n      0x20\n      add\n      0x00\n      keccak256\n        /* \"contracts/deccentralized_notes_app.sol\":2422:2423  i */\n      dup2\n        /* \"contracts/deccentralized_notes_app.sol\":2399:2424  savedNotes[msg.sender][i] */\n      dup2\n      sload\n      dup2\n      lt\n      tag_77\n      jumpi\n      tag_78\n      tag_29\n      jump\t// in\n    tag_78:\n    tag_77:\n      swap1\n      0x00\n      mstore\n      keccak256(0x00, 0x20)\n      swap1\n      0x05\n      mul\n      add\n        /* \"contracts/deccentralized_notes_app.sol\":2399:2434  savedNotes[msg.sender][i].isDeleted */\n      0x03\n      add\n      0x00\n      swap1\n      sload\n      swap1\n      0x0100\n      exp\n      swap1\n      div\n      0xff\n      and\n        /* \"contracts/deccentralized_notes_app.sol\":2395:2478  if(!savedNotes[msg.sender][i].isDeleted){... */\n      tag_80\n      jumpi\n        /* \"contracts/deccentralized_notes_app.sol\":2454:2462  count ++ */\n      dup2\n      dup1\n      tag_81\n      swap1\n      tag_82\n      jump\t// in\n    tag_81:\n      swap3\n      pop\n      pop\n        /* \"contracts/deccentralized_notes_app.sol\":2395:2478  if(!savedNotes[msg.sender][i].isDeleted){... */\n    tag_80:\n        /* \"contracts/deccentralized_notes_app.sol\":2376:2379  i++ */\n      dup1\n      dup1\n      0x01\n      add\n      swap2\n      pop\n      pop\n        /* \"contracts/deccentralized_notes_app.sol\":2326:2489  for(uint256 i=0; i<savedNotes[msg.sender].length; i++){... */\n      jump(tag_74)\n    tag_75:\n      pop\n        /* \"contracts/deccentralized_notes_app.sol\":2543:2568  Note[] memory activeNotes */\n      0x00\n        /* \"contracts/deccentralized_notes_app.sol\":2582:2587  count */\n      dup2\n        /* \"contracts/deccentralized_notes_app.sol\":2571:2588  new Note[](count) */\n      0xffffffffffffffff\n      dup2\n      gt\n      iszero\n      tag_83\n      jumpi\n      tag_84\n      tag_85\n      jump\t// in\n    tag_84:\n    tag_83:\n      mload(0x40)\n      swap1\n      dup1\n      dup3\n      mstore\n      dup1\n      0x20\n      mul\n      0x20\n      add\n      dup3\n      add\n      0x40\n      mstore\n      dup1\n      iszero\n      tag_86\n      jumpi\n      dup2\n      0x20\n      add\n    tag_87:\n      tag_88\n      tag_89\n      jump\t// in\n    tag_88:\n      dup2\n      mstore\n      0x20\n      add\n      swap1\n      0x01\n      swap1\n      sub\n      swap1\n      dup2\n      tag_87\n      jumpi\n      swap1\n      pop\n    tag_86:\n      pop\n        /* \"contracts/deccentralized_notes_app.sol\":2543:2588  Note[] memory activeNotes = new Note[](count) */\n      swap1\n      pop\n        /* \"contracts/deccentralized_notes_app.sol\":2599:2612  uint256 index */\n      0x00\n        /* \"contracts/deccentralized_notes_app.sol\":2615:2616  0 */\n      0x00\n        /* \"contracts/deccentralized_notes_app.sol\":2599:2616  uint256 index = 0 */\n      swap1\n      pop\n        /* \"contracts/deccentralized_notes_app.sol\":2686:2695  uint256 i */\n      0x00\n        /* \"contracts/deccentralized_notes_app.sol\":2696:2697  0 */\n      0x00\n        /* \"contracts/deccentralized_notes_app.sol\":2686:2697  uint256 i=0 */\n      swap1\n      pop\n        /* \"contracts/deccentralized_notes_app.sol\":2682:2909  for(uint256 i=0; i<savedNotes[msg.sender].length; i++){... */\n    tag_90:\n        /* \"contracts/deccentralized_notes_app.sol\":2701:2711  savedNotes */\n      0x00\n        /* \"contracts/deccentralized_notes_app.sol\":2701:2723  savedNotes[msg.sender] */\n      0x00\n        /* \"contracts/deccentralized_notes_app.sol\":2712:2722  msg.sender */\n      caller\n        /* \"contracts/deccentralized_notes_app.sol\":2701:2723  savedNotes[msg.sender] */\n      0xffffffffffffffffffffffffffffffffffffffff\n      and\n      0xffffffffffffffffffffffffffffffffffffffff\n      and\n      dup2\n      mstore\n      0x20\n      add\n      swap1\n      dup2\n      mstore\n      0x20\n      add\n      0x00\n      keccak256\n        /* \"contracts/deccentralized_notes_app.sol\":2701:2730  savedNotes[msg.sender].length */\n      dup1\n      sload\n      swap1\n      pop\n        /* \"contracts/deccentralized_notes_app.sol\":2699:2700  i */\n      dup2\n        /* \"contracts/deccentralized_notes_app.sol\":2699:2730  i<savedNotes[msg.sender].length */\n      lt\n        /* \"contracts/deccentralized_notes_app.sol\":2682:2909  for(uint256 i=0; i<savedNotes[msg.sender].length; i++){... */\n      iszero\n      tag_91\n      jumpi\n        /* \"contracts/deccentralized_notes_app.sol\":2755:2765  savedNotes */\n      0x00\n        /* \"contracts/deccentralized_notes_app.sol\":2755:2777  savedNotes[msg.sender] */\n      0x00\n        /* \"contracts/deccentralized_notes_app.sol\":2766:2776  msg.sender */\n      caller\n        /* \"contracts/deccentralized_notes_app.sol\":2755:2777  savedNotes[msg.sender] */\n      0xffffffffffffffffffffffffffffffffffffffff\n      and\n      0xffffffffffffffffffffffffffffffffffffffff\n      and\n      dup2\n      mstore\n      0x20\n      add\n      swap1\n      dup2\n      mstore\n      0x20\n      add\n      0x00\n      keccak256\n        /* \"contracts/deccentralized_notes_app.sol\":2778:2779  i */\n      dup2\n        /* \"contracts/deccentralized_notes_app.sol\":2755:2780  savedNotes[msg.sender][i] */\n      dup2\n      sload\n      dup2\n      lt\n      tag_93\n      jumpi\n      tag_94\n      tag_29\n      jump\t// in\n    tag_94:\n    tag_93:\n      swap1\n      0x00\n      mstore\n      keccak256(0x00, 0x20)\n      swap1\n      0x05\n      mul\n      add\n        /* \"contracts/deccentralized_notes_app.sol\":2755:2790  savedNotes[msg.sender][i].isDeleted */\n      0x03\n      add\n      0x00\n      swap1\n      sload\n      swap1\n      0x0100\n      exp\n      swap1\n      div\n      0xff\n      and\n        /* \"contracts/deccentralized_notes_app.sol\":2751:2898  if(!savedNotes[msg.sender][i].isDeleted){... */\n      tag_96\n      jumpi\n        /* \"contracts/deccentralized_notes_app.sol\":2831:2841  savedNotes */\n      0x00\n        /* \"contracts/deccentralized_notes_app.sol\":2831:2853  savedNotes[msg.sender] */\n      0x00\n        /* \"contracts/deccentralized_notes_app.sol\":2842:2852  msg.sender */\n      caller\n        /* \"contracts/deccentralized_notes_app.sol\":2831:2853  savedNotes[msg.sender] */\n      0xffffffffffffffffffffffffffffffffffffffff\n      and\n      0xffffffffffffffffffffffffffffffffffffffff\n      and\n      dup2\n      mstore\n      0x20\n      add\n      swap1\n      dup2\n      mstore\n      0x20\n      add\n      0x00\n      keccak256\n        /* \"contracts/deccentralized_notes_app.sol\":2854:2855  i */\n      dup2\n        /* \"contracts/deccentralized_notes_app.sol\":2831:2856  savedNotes[msg.sender][i] */\n      dup2\n      sload\n      dup2\n      lt\n      tag_97\n      jumpi\n      tag_98\n      tag_29\n      jump\t// in\n    tag_98:\n    tag_97:\n      swap1\n      0x00\n      mstore\n      keccak256(0x00, 0x20)\n      swap1\n      0x05\n      mul\n      add\n        /* \"contracts/deccentralized_notes_app.sol\":2810:2856  activeNotes[index] = savedNotes[msg.sender][i] */\n      mload(0x40)\n      dup1\n      0xa0\n      add\n      0x40\n      mstore\n      swap1\n      dup2\n      0x00\n      dup3\n      add\n      sload\n      dup2\n      mstore\n      0x20\n      add\n      0x01\n      dup3\n      add\n      dup1\n      sload\n      tag_100\n      swap1\n      tag_101\n      jump\t// in\n    tag_100:\n      dup1\n      0x1f\n      add\n      0x20\n      dup1\n      swap2\n      div\n      mul\n      0x20\n      add\n      mload(0x40)\n      swap1\n      dup2\n      add\n      0x40\n      mstore\n      dup1\n      swap3\n      swap2\n      swap1\n      dup2\n      dup2\n      mstore\n      0x20\n      add\n      dup3\n      dup1\n      sload\n      tag_102\n      swap1\n      tag_101\n      jump\t// in\n    tag_102:\n      dup1\n      iszero\n      tag_103\n      jumpi\n      dup1\n      0x1f\n      lt\n      tag_104\n      jumpi\n      0x0100\n      dup1\n      dup4\n      sload\n      div\n      mul\n      dup4\n      mstore\n      swap2\n      0x20\n      add\n      swap2\n      jump(tag_103)\n    tag_104:\n      dup3\n      add\n      swap2\n      swap1\n      0x00\n      mstore\n      keccak256(0x00, 0x20)\n      swap1\n    tag_105:\n      dup2\n      sload\n      dup2\n      mstore\n      swap1\n      0x01\n      add\n      swap1\n      0x20\n      add\n      dup1\n      dup4\n      gt\n      tag_105\n      jumpi\n      dup3\n      swap1\n      sub\n      0x1f\n      and\n      dup3\n      add\n      swap2\n    tag_103:\n      pop\n      pop\n      pop\n      pop\n      pop\n      dup2\n      mstore\n      0x20\n      add\n      0x02\n      dup3\n      add\n      dup1\n      sload\n      tag_106\n      swap1\n      tag_101\n      jump\t// in\n    tag_106:\n      dup1\n      0x1f\n      add\n      0x20\n      dup1\n      swap2\n      div\n      mul\n      0x20\n      add\n      mload(0x40)\n      swap1\n      dup2\n      add\n      0x40\n      mstore\n      dup1\n      swap3\n      swap2\n      swap1\n      dup2\n      dup2\n      mstore\n      0x20\n      add\n      dup3\n      dup1\n      sload\n      tag_107\n      swap1\n      tag_101\n      jump\t// in\n    tag_107:\n      dup1\n      iszero\n      tag_108\n      jumpi\n      dup1\n      0x1f\n      lt\n      tag_109\n      jumpi\n      0x0100\n      dup1\n      dup4\n      sload\n      div\n      mul\n      dup4\n      mstore\n      swap2\n      0x20\n      add\n      swap2\n      jump(tag_108)\n    tag_109:\n      dup3\n      add\n      swap2\n      swap1\n      0x00\n      mstore\n      keccak256(0x00, 0x20)\n      swap1\n    tag_110:\n      dup2\n      sload\n      dup2\n      mstore\n      swap1\n      0x01\n      add\n      swap1\n      0x20\n      add\n      dup1\n      dup4\n      gt\n      tag_110\n      jumpi\n      dup3\n      swap1\n      sub\n      0x1f\n      and\n      dup3\n      add\n      swap2\n    tag_108:\n      pop\n      pop\n      pop\n      pop\n      pop\n      dup2\n      mstore\n      0x20\n      add\n      0x03\n      dup3\n      add\n      0x00\n      swap1\n      sload\n      swap1\n      0x0100\n      exp\n      swap1\n      div\n      0xff\n      and\n      iszero\n      iszero\n      iszero\n      iszero\n      dup2\n      mstore\n      0x20\n      add\n      0x04\n      dup3\n      add\n      sload\n      dup2\n      mstore\n      pop\n      pop\n        /* \"contracts/deccentralized_notes_app.sol\":2810:2821  activeNotes */\n      dup4\n        /* \"contracts/deccentralized_notes_app.sol\":2822:2827  index */\n      dup4\n        /* \"contracts/deccentralized_notes_app.sol\":2810:2828  activeNotes[index] */\n      dup2\n      mload\n      dup2\n      lt\n      tag_111\n      jumpi\n      tag_112\n      tag_29\n      jump\t// in\n    tag_112:\n    tag_111:\n      0x20\n      mul\n      0x20\n      add\n      add\n        /* \"contracts/deccentralized_notes_app.sol\":2810:2856  activeNotes[index] = savedNotes[msg.sender][i] */\n      dup2\n      swap1\n      mstore\n      pop\n        /* \"contracts/deccentralized_notes_app.sol\":2875:2882  index++ */\n      dup2\n      dup1\n      tag_113\n      swap1\n      tag_82\n      jump\t// in\n    tag_113:\n      swap3\n      pop\n      pop\n        /* \"contracts/deccentralized_notes_app.sol\":2751:2898  if(!savedNotes[msg.sender][i].isDeleted){... */\n    tag_96:\n        /* \"contracts/deccentralized_notes_app.sol\":2732:2735  i++ */\n      dup1\n      dup1\n      0x01\n      add\n      swap2\n      pop\n      pop\n        /* \"contracts/deccentralized_notes_app.sol\":2682:2909  for(uint256 i=0; i<savedNotes[msg.sender].length; i++){... */\n      jump(tag_90)\n    tag_91:\n      pop\n        /* \"contracts/deccentralized_notes_app.sol\":2972:2983  activeNotes */\n      dup2\n        /* \"contracts/deccentralized_notes_app.sol\":2965:2983  return activeNotes */\n      swap4\n      pop\n      pop\n      pop\n      pop\n        /* \"contracts/deccentralized_notes_app.sol\":2057:2991  function getAllNotes() public view returns(Note[] memory){... */\n      swap1\n      jump\t// out\n    tag_89:\n      mload(0x40)\n      dup1\n      0xa0\n      add\n      0x40\n      mstore\n      dup1\n      0x00\n      dup2\n      mstore\n      0x20\n      add\n      0x60\n      dup2\n      mstore\n      0x20\n      add\n      0x60\n      dup2\n      mstore\n      0x20\n      add\n      iszero(iszero(0x00))\n      dup2\n      mstore\n      0x20\n      add\n      0x00\n      dup2\n      mstore\n      pop\n      swap1\n      jump\t// out\n        /* \"#utility.yul\":7:82   */\n    tag_114:\n        /* \"#utility.yul\":40:46   */\n      0x00\n        /* \"#utility.yul\":73:75   */\n      0x40\n        /* \"#utility.yul\":67:76   */\n      mload\n        /* \"#utility.yul\":57:76   */\n      swap1\n      pop\n        /* \"#utility.yul\":7:82   */\n      swap1\n      jump\t// out\n        /* \"#utility.yul\":88:205   */\n    tag_115:\n        /* \"#utility.yul\":197:198   */\n      0x00\n        /* \"#utility.yul\":194:195   */\n      0x00\n        /* \"#utility.yul\":187:199   */\n      revert\n        /* \"#utility.yul\":211:328   */\n    tag_116:\n        /* \"#utility.yul\":320:321   */\n      0x00\n        /* \"#utility.yul\":317:318   */\n      0x00\n        /* \"#utility.yul\":310:322   */\n      revert\n        /* \"#utility.yul\":334:411   */\n    tag_117:\n        /* \"#utility.yul\":371:378   */\n      0x00\n        /* \"#utility.yul\":400:405   */\n      dup2\n        /* \"#utility.yul\":389:405   */\n      swap1\n      pop\n        /* \"#utility.yul\":334:411   */\n      swap2\n      swap1\n      pop\n      jump\t// out\n        /* \"#utility.yul\":417:539   */\n    tag_118:\n        /* \"#utility.yul\":490:514   */\n      tag_180\n        /* \"#utility.yul\":508:513   */\n      dup2\n        /* \"#utility.yul\":490:514   */\n      tag_117\n      jump\t// in\n    tag_180:\n        /* \"#utility.yul\":483:488   */\n      dup2\n        /* \"#utility.yul\":480:515   */\n      eq\n        /* \"#utility.yul\":470:533   */\n      tag_181\n      jumpi\n        /* \"#utility.yul\":529:530   */\n      0x00\n        /* \"#utility.yul\":526:527   */\n      0x00\n        /* \"#utility.yul\":519:531   */\n      revert\n        /* \"#utility.yul\":470:533   */\n    tag_181:\n        /* \"#utility.yul\":417:539   */\n      pop\n      jump\t// out\n        /* \"#utility.yul\":545:684   */\n    tag_119:\n        /* \"#utility.yul\":591:596   */\n      0x00\n        /* \"#utility.yul\":629:635   */\n      dup2\n        /* \"#utility.yul\":616:636   */\n      calldataload\n        /* \"#utility.yul\":607:636   */\n      swap1\n      pop\n        /* \"#utility.yul\":645:678   */\n      tag_183\n        /* \"#utility.yul\":672:677   */\n      dup2\n        /* \"#utility.yul\":645:678   */\n      tag_118\n      jump\t// in\n    tag_183:\n        /* \"#utility.yul\":545:684   */\n      swap3\n      swap2\n      pop\n      pop\n      jump\t// out\n        /* \"#utility.yul\":690:807   */\n    tag_120:\n        /* \"#utility.yul\":799:800   */\n      0x00\n        /* \"#utility.yul\":796:797   */\n      0x00\n        /* \"#utility.yul\":789:801   */\n      revert\n        /* \"#utility.yul\":813:930   */\n    tag_121:\n        /* \"#utility.yul\":922:923   */\n      0x00\n        /* \"#utility.yul\":919:920   */\n      0x00\n        /* \"#utility.yul\":912:924   */\n      revert\n        /* \"#utility.yul\":936:1038   */\n    tag_122:\n        /* \"#utility.yul\":977:983   */\n      0x00\n        /* \"#utility.yul\":1028:1030   */\n      0x1f\n        /* \"#utility.yul\":1024:1031   */\n      not\n        /* \"#utility.yul\":1019:1021   */\n      0x1f\n        /* \"#utility.yul\":1012:1017   */\n      dup4\n        /* \"#utility.yul\":1008:1022   */\n      add\n        /* \"#utility.yul\":1004:1032   */\n      and\n        /* \"#utility.yul\":994:1032   */\n      swap1\n      pop\n        /* \"#utility.yul\":936:1038   */\n      swap2\n      swap1\n      pop\n      jump\t// out\n        /* \"#utility.yul\":1044:1224   */\n    tag_85:\n        /* \"#utility.yul\":1092:1169   */\n      0x4e487b7100000000000000000000000000000000000000000000000000000000\n        /* \"#utility.yul\":1089:1090   */\n      0x00\n        /* \"#utility.yul\":1082:1170   */\n      mstore\n        /* \"#utility.yul\":1189:1193   */\n      0x41\n        /* \"#utility.yul\":1186:1187   */\n      0x04\n        /* \"#utility.yul\":1179:1194   */\n      mstore\n        /* \"#utility.yul\":1213:1217   */\n      0x24\n        /* \"#utility.yul\":1210:1211   */\n      0x00\n        /* \"#utility.yul\":1203:1218   */\n      revert\n        /* \"#utility.yul\":1230:1511   */\n    tag_123:\n        /* \"#utility.yul\":1313:1340   */\n      tag_189\n        /* \"#utility.yul\":1335:1339   */\n      dup3\n        /* \"#utility.yul\":1313:1340   */\n      tag_122\n      jump\t// in\n    tag_189:\n        /* \"#utility.yul\":1305:1311   */\n      dup2\n        /* \"#utility.yul\":1301:1341   */\n      add\n        /* \"#utility.yul\":1443:1449   */\n      dup2\n        /* \"#utility.yul\":1431:1441   */\n      dup2\n        /* \"#utility.yul\":1428:1450   */\n      lt\n        /* \"#utility.yul\":1407:1425   */\n      0xffffffffffffffff\n        /* \"#utility.yul\":1395:1405   */\n      dup3\n        /* \"#utility.yul\":1392:1426   */\n      gt\n        /* \"#utility.yul\":1389:1451   */\n      or\n        /* \"#utility.yul\":1386:1474   */\n      iszero\n      tag_190\n      jumpi\n        /* \"#utility.yul\":1454:1472   */\n      tag_191\n      tag_85\n      jump\t// in\n    tag_191:\n        /* \"#utility.yul\":1386:1474   */\n    tag_190:\n        /* \"#utility.yul\":1494:1504   */\n      dup1\n        /* \"#utility.yul\":1490:1492   */\n      0x40\n        /* \"#utility.yul\":1483:1505   */\n      mstore\n        /* \"#utility.yul\":1273:1511   */\n      pop\n        /* \"#utility.yul\":1230:1511   */\n      pop\n      pop\n      jump\t// out\n        /* \"#utility.yul\":1517:1646   */\n    tag_124:\n        /* \"#utility.yul\":1551:1557   */\n      0x00\n        /* \"#utility.yul\":1578:1598   */\n      tag_193\n      tag_114\n      jump\t// in\n    tag_193:\n        /* \"#utility.yul\":1568:1598   */\n      swap1\n      pop\n        /* \"#utility.yul\":1607:1640   */\n      tag_194\n        /* \"#utility.yul\":1635:1639   */\n      dup3\n        /* \"#utility.yul\":1627:1633   */\n      dup3\n        /* \"#utility.yul\":1607:1640   */\n      tag_123\n      jump\t// in\n    tag_194:\n        /* \"#utility.yul\":1517:1646   */\n      swap2\n      swap1\n      pop\n      jump\t// out\n        /* \"#utility.yul\":1652:1960   */\n    tag_125:\n        /* \"#utility.yul\":1714:1718   */\n      0x00\n        /* \"#utility.yul\":1804:1822   */\n      0xffffffffffffffff\n        /* \"#utility.yul\":1796:1802   */\n      dup3\n        /* \"#utility.yul\":1793:1823   */\n      gt\n        /* \"#utility.yul\":1790:1846   */\n      iszero\n      tag_196\n      jumpi\n        /* \"#utility.yul\":1826:1844   */\n      tag_197\n      tag_85\n      jump\t// in\n    tag_197:\n        /* \"#utility.yul\":1790:1846   */\n    tag_196:\n        /* \"#utility.yul\":1864:1893   */\n      tag_198\n        /* \"#utility.yul\":1886:1892   */\n      dup3\n        /* \"#utility.yul\":1864:1893   */\n      tag_122\n      jump\t// in\n    tag_198:\n        /* \"#utility.yul\":1856:1893   */\n      swap1\n      pop\n        /* \"#utility.yul\":1948:1952   */\n      0x20\n        /* \"#utility.yul\":1942:1946   */\n      dup2\n        /* \"#utility.yul\":1938:1953   */\n      add\n        /* \"#utility.yul\":1930:1953   */\n      swap1\n      pop\n        /* \"#utility.yul\":1652:1960   */\n      swap2\n      swap1\n      pop\n      jump\t// out\n        /* \"#utility.yul\":1966:2114   */\n    tag_126:\n        /* \"#utility.yul\":2064:2070   */\n      dup3\n        /* \"#utility.yul\":2059:2062   */\n      dup2\n        /* \"#utility.yul\":2054:2057   */\n      dup4\n        /* \"#utility.yul\":2041:2071   */\n      calldatacopy\n        /* \"#utility.yul\":2105:2106   */\n      0x00\n        /* \"#utility.yul\":2096:2102   */\n      dup4\n        /* \"#utility.yul\":2091:2094   */\n      dup4\n        /* \"#utility.yul\":2087:2103   */\n      add\n        /* \"#utility.yul\":2080:2107   */\n      mstore\n        /* \"#utility.yul\":1966:2114   */\n      pop\n      pop\n      pop\n      jump\t// out\n        /* \"#utility.yul\":2120:2545   */\n    tag_127:\n        /* \"#utility.yul\":2198:2203   */\n      0x00\n        /* \"#utility.yul\":2223:2289   */\n      tag_201\n        /* \"#utility.yul\":2239:2288   */\n      tag_202\n        /* \"#utility.yul\":2281:2287   */\n      dup5\n        /* \"#utility.yul\":2239:2288   */\n      tag_125\n      jump\t// in\n    tag_202:\n        /* \"#utility.yul\":2223:2289   */\n      tag_124\n      jump\t// in\n    tag_201:\n        /* \"#utility.yul\":2214:2289   */\n      swap1\n      pop\n        /* \"#utility.yul\":2312:2318   */\n      dup3\n        /* \"#utility.yul\":2305:2310   */\n      dup2\n        /* \"#utility.yul\":2298:2319   */\n      mstore\n        /* \"#utility.yul\":2350:2354   */\n      0x20\n        /* \"#utility.yul\":2343:2348   */\n      dup2\n        /* \"#utility.yul\":2339:2355   */\n      add\n        /* \"#utility.yul\":2388:2391   */\n      dup5\n        /* \"#utility.yul\":2379:2385   */\n      dup5\n        /* \"#utility.yul\":2374:2377   */\n      dup5\n        /* \"#utility.yul\":2370:2386   */\n      add\n        /* \"#utility.yul\":2367:2392   */\n      gt\n        /* \"#utility.yul\":2364:2476   */\n      iszero\n      tag_203\n      jumpi\n        /* \"#utility.yul\":2395:2474   */\n      tag_204\n      tag_121\n      jump\t// in\n    tag_204:\n        /* \"#utility.yul\":2364:2476   */\n    tag_203:\n        /* \"#utility.yul\":2485:2539   */\n      tag_205\n        /* \"#utility.yul\":2532:2538   */\n      dup5\n        /* \"#utility.yul\":2527:2530   */\n      dup3\n        /* \"#utility.yul\":2522:2525   */\n      dup6\n        /* \"#utility.yul\":2485:2539   */\n      tag_126\n      jump\t// in\n    tag_205:\n        /* \"#utility.yul\":2204:2545   */\n      pop\n        /* \"#utility.yul\":2120:2545   */\n      swap4\n      swap3\n      pop\n      pop\n      pop\n      jump\t// out\n        /* \"#utility.yul\":2565:2905   */\n    tag_128:\n        /* \"#utility.yul\":2621:2626   */\n      0x00\n        /* \"#utility.yul\":2670:2673   */\n      dup3\n        /* \"#utility.yul\":2663:2667   */\n      0x1f\n        /* \"#utility.yul\":2655:2661   */\n      dup4\n        /* \"#utility.yul\":2651:2668   */\n      add\n        /* \"#utility.yul\":2647:2674   */\n      slt\n        /* \"#utility.yul\":2637:2759   */\n      tag_207\n      jumpi\n        /* \"#utility.yul\":2678:2757   */\n      tag_208\n      tag_120\n      jump\t// in\n    tag_208:\n        /* \"#utility.yul\":2637:2759   */\n    tag_207:\n        /* \"#utility.yul\":2795:2801   */\n      dup2\n        /* \"#utility.yul\":2782:2802   */\n      calldataload\n        /* \"#utility.yul\":2820:2899   */\n      tag_209\n        /* \"#utility.yul\":2895:2898   */\n      dup5\n        /* \"#utility.yul\":2887:2893   */\n      dup3\n        /* \"#utility.yul\":2880:2884   */\n      0x20\n        /* \"#utility.yul\":2872:2878   */\n      dup7\n        /* \"#utility.yul\":2868:2885   */\n      add\n        /* \"#utility.yul\":2820:2899   */\n      tag_127\n      jump\t// in\n    tag_209:\n        /* \"#utility.yul\":2811:2899   */\n      swap2\n      pop\n        /* \"#utility.yul\":2627:2905   */\n      pop\n        /* \"#utility.yul\":2565:2905   */\n      swap3\n      swap2\n      pop\n      pop\n      jump\t// out\n        /* \"#utility.yul\":2911:3890   */\n    tag_9:\n        /* \"#utility.yul\":3008:3014   */\n      0x00\n        /* \"#utility.yul\":3016:3022   */\n      0x00\n        /* \"#utility.yul\":3024:3030   */\n      0x00\n        /* \"#utility.yul\":3073:3075   */\n      0x60\n        /* \"#utility.yul\":3061:3070   */\n      dup5\n        /* \"#utility.yul\":3052:3059   */\n      dup7\n        /* \"#utility.yul\":3048:3071   */\n      sub\n        /* \"#utility.yul\":3044:3076   */\n      slt\n        /* \"#utility.yul\":3041:3160   */\n      iszero\n      tag_211\n      jumpi\n        /* \"#utility.yul\":3079:3158   */\n      tag_212\n      tag_115\n      jump\t// in\n    tag_212:\n        /* \"#utility.yul\":3041:3160   */\n    tag_211:\n        /* \"#utility.yul\":3199:3200   */\n      0x00\n        /* \"#utility.yul\":3224:3277   */\n      tag_213\n        /* \"#utility.yul\":3269:3276   */\n      dup7\n        /* \"#utility.yul\":3260:3266   */\n      dup3\n        /* \"#utility.yul\":3249:3258   */\n      dup8\n        /* \"#utility.yul\":3245:3267   */\n      add\n        /* \"#utility.yul\":3224:3277   */\n      tag_119\n      jump\t// in\n    tag_213:\n        /* \"#utility.yul\":3214:3277   */\n      swap4\n      pop\n        /* \"#utility.yul\":3170:3287   */\n      pop\n        /* \"#utility.yul\":3354:3356   */\n      0x20\n        /* \"#utility.yul\":3343:3352   */\n      dup5\n        /* \"#utility.yul\":3339:3357   */\n      add\n        /* \"#utility.yul\":3326:3358   */\n      calldataload\n        /* \"#utility.yul\":3385:3403   */\n      0xffffffffffffffff\n        /* \"#utility.yul\":3377:3383   */\n      dup2\n        /* \"#utility.yul\":3374:3404   */\n      gt\n        /* \"#utility.yul\":3371:3488   */\n      iszero\n      tag_214\n      jumpi\n        /* \"#utility.yul\":3407:3486   */\n      tag_215\n      tag_116\n      jump\t// in\n    tag_215:\n        /* \"#utility.yul\":3371:3488   */\n    tag_214:\n        /* \"#utility.yul\":3512:3575   */\n      tag_216\n        /* \"#utility.yul\":3567:3574   */\n      dup7\n        /* \"#utility.yul\":3558:3564   */\n      dup3\n        /* \"#utility.yul\":3547:3556   */\n      dup8\n        /* \"#utility.yul\":3543:3565   */\n      add\n        /* \"#utility.yul\":3512:3575   */\n      tag_128\n      jump\t// in\n    tag_216:\n        /* \"#utility.yul\":3502:3575   */\n      swap3\n      pop\n        /* \"#utility.yul\":3297:3585   */\n      pop\n        /* \"#utility.yul\":3652:3654   */\n      0x40\n        /* \"#utility.yul\":3641:3650   */\n      dup5\n        /* \"#utility.yul\":3637:3655   */\n      add\n        /* \"#utility.yul\":3624:3656   */\n      calldataload\n        /* \"#utility.yul\":3683:3701   */\n      0xffffffffffffffff\n        /* \"#utility.yul\":3675:3681   */\n      dup2\n        /* \"#utility.yul\":3672:3702   */\n      gt\n        /* \"#utility.yul\":3669:3786   */\n      iszero\n      tag_217\n      jumpi\n        /* \"#utility.yul\":3705:3784   */\n      tag_218\n      tag_116\n      jump\t// in\n    tag_218:\n        /* \"#utility.yul\":3669:3786   */\n    tag_217:\n        /* \"#utility.yul\":3810:3873   */\n      tag_219\n        /* \"#utility.yul\":3865:3872   */\n      dup7\n        /* \"#utility.yul\":3856:3862   */\n      dup3\n        /* \"#utility.yul\":3845:3854   */\n      dup8\n        /* \"#utility.yul\":3841:3863   */\n      add\n        /* \"#utility.yul\":3810:3873   */\n      tag_128\n      jump\t// in\n    tag_219:\n        /* \"#utility.yul\":3800:3873   */\n      swap2\n      pop\n        /* \"#utility.yul\":3595:3883   */\n      pop\n        /* \"#utility.yul\":2911:3890   */\n      swap3\n      pop\n      swap3\n      pop\n      swap3\n      jump\t// out\n        /* \"#utility.yul\":3896:4730   */\n    tag_13:\n        /* \"#utility.yul\":3984:3990   */\n      0x00\n        /* \"#utility.yul\":3992:3998   */\n      0x00\n        /* \"#utility.yul\":4041:4043   */\n      0x40\n        /* \"#utility.yul\":4029:4038   */\n      dup4\n        /* \"#utility.yul\":4020:4027   */\n      dup6\n        /* \"#utility.yul\":4016:4039   */\n      sub\n        /* \"#utility.yul\":4012:4044   */\n      slt\n        /* \"#utility.yul\":4009:4128   */\n      iszero\n      tag_221\n      jumpi\n        /* \"#utility.yul\":4047:4126   */\n      tag_222\n      tag_115\n      jump\t// in\n    tag_222:\n        /* \"#utility.yul\":4009:4128   */\n    tag_221:\n        /* \"#utility.yul\":4195:4196   */\n      0x00\n        /* \"#utility.yul\":4184:4193   */\n      dup4\n        /* \"#utility.yul\":4180:4197   */\n      add\n        /* \"#utility.yul\":4167:4198   */\n      calldataload\n        /* \"#utility.yul\":4225:4243   */\n      0xffffffffffffffff\n        /* \"#utility.yul\":4217:4223   */\n      dup2\n        /* \"#utility.yul\":4214:4244   */\n      gt\n        /* \"#utility.yul\":4211:4328   */\n      iszero\n      tag_223\n      jumpi\n        /* \"#utility.yul\":4247:4326   */\n      tag_224\n      tag_116\n      jump\t// in\n    tag_224:\n        /* \"#utility.yul\":4211:4328   */\n    tag_223:\n        /* \"#utility.yul\":4352:4415   */\n      tag_225\n        /* \"#utility.yul\":4407:4414   */\n      dup6\n        /* \"#utility.yul\":4398:4404   */\n      dup3\n        /* \"#utility.yul\":4387:4396   */\n      dup7\n        /* \"#utility.yul\":4383:4405   */\n      add\n        /* \"#utility.yul\":4352:4415   */\n      tag_128\n      jump\t// in\n    tag_225:\n        /* \"#utility.yul\":4342:4415   */\n      swap3\n      pop\n        /* \"#utility.yul\":4138:4425   */\n      pop\n        /* \"#utility.yul\":4492:4494   */\n      0x20\n        /* \"#utility.yul\":4481:4490   */\n      dup4\n        /* \"#utility.yul\":4477:4495   */\n      add\n        /* \"#utility.yul\":4464:4496   */\n      calldataload\n        /* \"#utility.yul\":4523:4541   */\n      0xffffffffffffffff\n        /* \"#utility.yul\":4515:4521   */\n      dup2\n        /* \"#utility.yul\":4512:4542   */\n      gt\n        /* \"#utility.yul\":4509:4626   */\n      iszero\n      tag_226\n      jumpi\n        /* \"#utility.yul\":4545:4624   */\n      tag_227\n      tag_116\n      jump\t// in\n    tag_227:\n        /* \"#utility.yul\":4509:4626   */\n    tag_226:\n        /* \"#utility.yul\":4650:4713   */\n      tag_228\n        /* \"#utility.yul\":4705:4712   */\n      dup6\n        /* \"#utility.yul\":4696:4702   */\n      dup3\n        /* \"#utility.yul\":4685:4694   */\n      dup7\n        /* \"#utility.yul\":4681:4703   */\n      add\n        /* \"#utility.yul\":4650:4713   */\n      tag_128\n      jump\t// in\n    tag_228:\n        /* \"#utility.yul\":4640:4713   */\n      swap2\n      pop\n        /* \"#utility.yul\":4435:4723   */\n      pop\n        /* \"#utility.yul\":3896:4730   */\n      swap3\n      pop\n      swap3\n      swap1\n      pop\n      jump\t// out\n        /* \"#utility.yul\":4736:5065   */\n    tag_17:\n        /* \"#utility.yul\":4795:4801   */\n      0x00\n        /* \"#utility.yul\":4844:4846   */\n      0x20\n        /* \"#utility.yul\":4832:4841   */\n      dup3\n        /* \"#utility.yul\":4823:4830   */\n      dup5\n        /* \"#utility.yul\":4819:4842   */\n      sub\n        /* \"#utility.yul\":4815:4847   */\n      slt\n        /* \"#utility.yul\":4812:4931   */\n      iszero\n      tag_230\n      jumpi\n        /* \"#utility.yul\":4850:4929   */\n      tag_231\n      tag_115\n      jump\t// in\n    tag_231:\n        /* \"#utility.yul\":4812:4931   */\n    tag_230:\n        /* \"#utility.yul\":4970:4971   */\n      0x00\n        /* \"#utility.yul\":4995:5048   */\n      tag_232\n        /* \"#utility.yul\":5040:5047   */\n      dup5\n        /* \"#utility.yul\":5031:5037   */\n      dup3\n        /* \"#utility.yul\":5020:5029   */\n      dup6\n        /* \"#utility.yul\":5016:5038   */\n      add\n        /* \"#utility.yul\":4995:5048   */\n      tag_119\n      jump\t// in\n    tag_232:\n        /* \"#utility.yul\":4985:5048   */\n      swap2\n      pop\n        /* \"#utility.yul\":4941:5058   */\n      pop\n        /* \"#utility.yul\":4736:5065   */\n      swap3\n      swap2\n      pop\n      pop\n      jump\t// out\n        /* \"#utility.yul\":5071:5205   */\n    tag_129:\n        /* \"#utility.yul\":5158:5164   */\n      0x00\n        /* \"#utility.yul\":5192:5197   */\n      dup2\n        /* \"#utility.yul\":5186:5198   */\n      mload\n        /* \"#utility.yul\":5176:5198   */\n      swap1\n      pop\n        /* \"#utility.yul\":5071:5205   */\n      swap2\n      swap1\n      pop\n      jump\t// out\n        /* \"#utility.yul\":5211:5415   */\n    tag_130:\n        /* \"#utility.yul\":5330:5341   */\n      0x00\n        /* \"#utility.yul\":5364:5370   */\n      dup3\n        /* \"#utility.yul\":5359:5362   */\n      dup3\n        /* \"#utility.yul\":5352:5371   */\n      mstore\n        /* \"#utility.yul\":5404:5408   */\n      0x20\n        /* \"#utility.yul\":5399:5402   */\n      dup3\n        /* \"#utility.yul\":5395:5409   */\n      add\n        /* \"#utility.yul\":5380:5409   */\n      swap1\n      pop\n        /* \"#utility.yul\":5211:5415   */\n      swap3\n      swap2\n      pop\n      pop\n      jump\t// out\n        /* \"#utility.yul\":5421:5573   */\n    tag_131:\n        /* \"#utility.yul\":5508:5512   */\n      0x00\n        /* \"#utility.yul\":5531:5534   */\n      dup2\n        /* \"#utility.yul\":5523:5534   */\n      swap1\n      pop\n        /* \"#utility.yul\":5561:5565   */\n      0x20\n        /* \"#utility.yul\":5556:5559   */\n      dup3\n        /* \"#utility.yul\":5552:5566   */\n      add\n        /* \"#utility.yul\":5544:5566   */\n      swap1\n      pop\n        /* \"#utility.yul\":5421:5573   */\n      swap2\n      swap1\n      pop\n      jump\t// out\n        /* \"#utility.yul\":5579:5687   */\n    tag_132:\n        /* \"#utility.yul\":5656:5680   */\n      tag_237\n        /* \"#utility.yul\":5674:5679   */\n      dup2\n        /* \"#utility.yul\":5656:5680   */\n      tag_117\n      jump\t// in\n    tag_237:\n        /* \"#utility.yul\":5651:5654   */\n      dup3\n        /* \"#utility.yul\":5644:5681   */\n      mstore\n        /* \"#utility.yul\":5579:5687   */\n      pop\n      pop\n      jump\t// out\n        /* \"#utility.yul\":5693:5792   */\n    tag_133:\n        /* \"#utility.yul\":5745:5751   */\n      0x00\n        /* \"#utility.yul\":5779:5784   */\n      dup2\n        /* \"#utility.yul\":5773:5785   */\n      mload\n        /* \"#utility.yul\":5763:5785   */\n      swap1\n      pop\n        /* \"#utility.yul\":5693:5792   */\n      swap2\n      swap1\n      pop\n      jump\t// out\n        /* \"#utility.yul\":5798:5957   */\n    tag_134:\n        /* \"#utility.yul\":5872:5883   */\n      0x00\n        /* \"#utility.yul\":5906:5912   */\n      dup3\n        /* \"#utility.yul\":5901:5904   */\n      dup3\n        /* \"#utility.yul\":5894:5913   */\n      mstore\n        /* \"#utility.yul\":5946:5950   */\n      0x20\n        /* \"#utility.yul\":5941:5944   */\n      dup3\n        /* \"#utility.yul\":5937:5951   */\n      add\n        /* \"#utility.yul\":5922:5951   */\n      swap1\n      pop\n        /* \"#utility.yul\":5798:5957   */\n      swap3\n      swap2\n      pop\n      pop\n      jump\t// out\n        /* \"#utility.yul\":5963:6102   */\n    tag_135:\n        /* \"#utility.yul\":6052:6058   */\n      dup3\n        /* \"#utility.yul\":6047:6050   */\n      dup2\n        /* \"#utility.yul\":6042:6045   */\n      dup4\n        /* \"#utility.yul\":6036:6059   */\n      mcopy\n        /* \"#utility.yul\":6093:6094   */\n      0x00\n        /* \"#utility.yul\":6084:6090   */\n      dup4\n        /* \"#utility.yul\":6079:6082   */\n      dup4\n        /* \"#utility.yul\":6075:6091   */\n      add\n        /* \"#utility.yul\":6068:6095   */\n      mstore\n        /* \"#utility.yul\":5963:6102   */\n      pop\n      pop\n      pop\n      jump\t// out\n        /* \"#utility.yul\":6108:6465   */\n    tag_136:\n        /* \"#utility.yul\":6186:6189   */\n      0x00\n        /* \"#utility.yul\":6214:6253   */\n      tag_242\n        /* \"#utility.yul\":6247:6252   */\n      dup3\n        /* \"#utility.yul\":6214:6253   */\n      tag_133\n      jump\t// in\n    tag_242:\n        /* \"#utility.yul\":6269:6330   */\n      tag_243\n        /* \"#utility.yul\":6323:6329   */\n      dup2\n        /* \"#utility.yul\":6318:6321   */\n      dup6\n        /* \"#utility.yul\":6269:6330   */\n      tag_134\n      jump\t// in\n    tag_243:\n        /* \"#utility.yul\":6262:6330   */\n      swap4\n      pop\n        /* \"#utility.yul\":6339:6404   */\n      tag_244\n        /* \"#utility.yul\":6397:6403   */\n      dup2\n        /* \"#utility.yul\":6392:6395   */\n      dup6\n        /* \"#utility.yul\":6385:6389   */\n      0x20\n        /* \"#utility.yul\":6378:6383   */\n      dup7\n        /* \"#utility.yul\":6374:6390   */\n      add\n        /* \"#utility.yul\":6339:6404   */\n      tag_135\n      jump\t// in\n    tag_244:\n        /* \"#utility.yul\":6429:6458   */\n      tag_245\n        /* \"#utility.yul\":6451:6457   */\n      dup2\n        /* \"#utility.yul\":6429:6458   */\n      tag_122\n      jump\t// in\n    tag_245:\n        /* \"#utility.yul\":6424:6427   */\n      dup5\n        /* \"#utility.yul\":6420:6459   */\n      add\n        /* \"#utility.yul\":6413:6459   */\n      swap2\n      pop\n        /* \"#utility.yul\":6190:6465   */\n      pop\n        /* \"#utility.yul\":6108:6465   */\n      swap3\n      swap2\n      pop\n      pop\n      jump\t// out\n        /* \"#utility.yul\":6471:6561   */\n    tag_137:\n        /* \"#utility.yul\":6505:6512   */\n      0x00\n        /* \"#utility.yul\":6548:6553   */\n      dup2\n        /* \"#utility.yul\":6541:6554   */\n      iszero\n        /* \"#utility.yul\":6534:6555   */\n      iszero\n        /* \"#utility.yul\":6523:6555   */\n      swap1\n      pop\n        /* \"#utility.yul\":6471:6561   */\n      swap2\n      swap1\n      pop\n      jump\t// out\n        /* \"#utility.yul\":6567:6666   */\n    tag_138:\n        /* \"#utility.yul\":6638:6659   */\n      tag_248\n        /* \"#utility.yul\":6653:6658   */\n      dup2\n        /* \"#utility.yul\":6638:6659   */\n      tag_137\n      jump\t// in\n    tag_248:\n        /* \"#utility.yul\":6633:6636   */\n      dup3\n        /* \"#utility.yul\":6626:6660   */\n      mstore\n        /* \"#utility.yul\":6567:6666   */\n      pop\n      pop\n      jump\t// out\n        /* \"#utility.yul\":6724:7910   */\n    tag_139:\n        /* \"#utility.yul\":6823:6826   */\n      0x00\n        /* \"#utility.yul\":6859:6863   */\n      0xa0\n        /* \"#utility.yul\":6854:6857   */\n      dup4\n        /* \"#utility.yul\":6850:6864   */\n      add\n        /* \"#utility.yul\":6945:6949   */\n      0x00\n        /* \"#utility.yul\":6938:6943   */\n      dup4\n        /* \"#utility.yul\":6934:6950   */\n      add\n        /* \"#utility.yul\":6928:6951   */\n      mload\n        /* \"#utility.yul\":6964:7027   */\n      tag_250\n        /* \"#utility.yul\":7021:7025   */\n      0x00\n        /* \"#utility.yul\":7016:7019   */\n      dup7\n        /* \"#utility.yul\":7012:7026   */\n      add\n        /* \"#utility.yul\":6998:7010   */\n      dup3\n        /* \"#utility.yul\":6964:7027   */\n      tag_132\n      jump\t// in\n    tag_250:\n        /* \"#utility.yul\":6874:7037   */\n      pop\n        /* \"#utility.yul\":7120:7124   */\n      0x20\n        /* \"#utility.yul\":7113:7118   */\n      dup4\n        /* \"#utility.yul\":7109:7125   */\n      add\n        /* \"#utility.yul\":7103:7126   */\n      mload\n        /* \"#utility.yul\":7173:7176   */\n      dup5\n        /* \"#utility.yul\":7167:7171   */\n      dup3\n        /* \"#utility.yul\":7163:7177   */\n      sub\n        /* \"#utility.yul\":7156:7160   */\n      0x20\n        /* \"#utility.yul\":7151:7154   */\n      dup7\n        /* \"#utility.yul\":7147:7161   */\n      add\n        /* \"#utility.yul\":7140:7178   */\n      mstore\n        /* \"#utility.yul\":7199:7272   */\n      tag_251\n        /* \"#utility.yul\":7267:7271   */\n      dup3\n        /* \"#utility.yul\":7253:7265   */\n      dup3\n        /* \"#utility.yul\":7199:7272   */\n      tag_136\n      jump\t// in\n    tag_251:\n        /* \"#utility.yul\":7191:7272   */\n      swap2\n      pop\n        /* \"#utility.yul\":7047:7283   */\n      pop\n        /* \"#utility.yul\":7368:7372   */\n      0x40\n        /* \"#utility.yul\":7361:7366   */\n      dup4\n        /* \"#utility.yul\":7357:7373   */\n      add\n        /* \"#utility.yul\":7351:7374   */\n      mload\n        /* \"#utility.yul\":7421:7424   */\n      dup5\n        /* \"#utility.yul\":7415:7419   */\n      dup3\n        /* \"#utility.yul\":7411:7425   */\n      sub\n        /* \"#utility.yul\":7404:7408   */\n      0x40\n        /* \"#utility.yul\":7399:7402   */\n      dup7\n        /* \"#utility.yul\":7395:7409   */\n      add\n        /* \"#utility.yul\":7388:7426   */\n      mstore\n        /* \"#utility.yul\":7447:7520   */\n      tag_252\n        /* \"#utility.yul\":7515:7519   */\n      dup3\n        /* \"#utility.yul\":7501:7513   */\n      dup3\n        /* \"#utility.yul\":7447:7520   */\n      tag_136\n      jump\t// in\n    tag_252:\n        /* \"#utility.yul\":7439:7520   */\n      swap2\n      pop\n        /* \"#utility.yul\":7293:7531   */\n      pop\n        /* \"#utility.yul\":7618:7622   */\n      0x60\n        /* \"#utility.yul\":7611:7616   */\n      dup4\n        /* \"#utility.yul\":7607:7623   */\n      add\n        /* \"#utility.yul\":7601:7624   */\n      mload\n        /* \"#utility.yul\":7637:7694   */\n      tag_253\n        /* \"#utility.yul\":7688:7692   */\n      0x60\n        /* \"#utility.yul\":7683:7686   */\n      dup7\n        /* \"#utility.yul\":7679:7693   */\n      add\n        /* \"#utility.yul\":7665:7677   */\n      dup3\n        /* \"#utility.yul\":7637:7694   */\n      tag_138\n      jump\t// in\n    tag_253:\n        /* \"#utility.yul\":7541:7704   */\n      pop\n        /* \"#utility.yul\":7791:7795   */\n      0x80\n        /* \"#utility.yul\":7784:7789   */\n      dup4\n        /* \"#utility.yul\":7780:7796   */\n      add\n        /* \"#utility.yul\":7774:7797   */\n      mload\n        /* \"#utility.yul\":7810:7873   */\n      tag_254\n        /* \"#utility.yul\":7867:7871   */\n      0x80\n        /* \"#utility.yul\":7862:7865   */\n      dup7\n        /* \"#utility.yul\":7858:7872   */\n      add\n        /* \"#utility.yul\":7844:7856   */\n      dup3\n        /* \"#utility.yul\":7810:7873   */\n      tag_132\n      jump\t// in\n    tag_254:\n        /* \"#utility.yul\":7714:7883   */\n      pop\n        /* \"#utility.yul\":7900:7904   */\n      dup1\n        /* \"#utility.yul\":7893:7904   */\n      swap2\n      pop\n        /* \"#utility.yul\":6828:7910   */\n      pop\n        /* \"#utility.yul\":6724:7910   */\n      swap3\n      swap2\n      pop\n      pop\n      jump\t// out\n        /* \"#utility.yul\":7916:8152   */\n    tag_140:\n        /* \"#utility.yul\":8025:8035   */\n      0x00\n        /* \"#utility.yul\":8060:8146   */\n      tag_256\n        /* \"#utility.yul\":8142:8145   */\n      dup4\n        /* \"#utility.yul\":8134:8140   */\n      dup4\n        /* \"#utility.yul\":8060:8146   */\n      tag_139\n      jump\t// in\n    tag_256:\n        /* \"#utility.yul\":8046:8146   */\n      swap1\n      pop\n        /* \"#utility.yul\":7916:8152   */\n      swap3\n      swap2\n      pop\n      pop\n      jump\t// out\n        /* \"#utility.yul\":8158:8291   */\n    tag_141:\n        /* \"#utility.yul\":8248:8252   */\n      0x00\n        /* \"#utility.yul\":8280:8284   */\n      0x20\n        /* \"#utility.yul\":8275:8278   */\n      dup3\n        /* \"#utility.yul\":8271:8285   */\n      add\n        /* \"#utility.yul\":8263:8285   */\n      swap1\n      pop\n        /* \"#utility.yul\":8158:8291   */\n      swap2\n      swap1\n      pop\n      jump\t// out\n        /* \"#utility.yul\":8353:9424   */\n    tag_142:\n        /* \"#utility.yul\":8512:8515   */\n      0x00\n        /* \"#utility.yul\":8541:8615   */\n      tag_259\n        /* \"#utility.yul\":8609:8614   */\n      dup3\n        /* \"#utility.yul\":8541:8615   */\n      tag_129\n      jump\t// in\n    tag_259:\n        /* \"#utility.yul\":8631:8737   */\n      tag_260\n        /* \"#utility.yul\":8730:8736   */\n      dup2\n        /* \"#utility.yul\":8725:8728   */\n      dup6\n        /* \"#utility.yul\":8631:8737   */\n      tag_130\n      jump\t// in\n    tag_260:\n        /* \"#utility.yul\":8624:8737   */\n      swap4\n      pop\n        /* \"#utility.yul\":8763:8766   */\n      dup4\n        /* \"#utility.yul\":8808:8812   */\n      0x20\n        /* \"#utility.yul\":8800:8806   */\n      dup3\n        /* \"#utility.yul\":8796:8813   */\n      mul\n        /* \"#utility.yul\":8791:8794   */\n      dup6\n        /* \"#utility.yul\":8787:8814   */\n      add\n        /* \"#utility.yul\":8838:8914   */\n      tag_261\n        /* \"#utility.yul\":8908:8913   */\n      dup6\n        /* \"#utility.yul\":8838:8914   */\n      tag_131\n      jump\t// in\n    tag_261:\n        /* \"#utility.yul\":8937:8944   */\n      dup1\n        /* \"#utility.yul\":8968:8969   */\n      0x00\n        /* \"#utility.yul\":8953:9379   */\n    tag_262:\n        /* \"#utility.yul\":8978:8984   */\n      dup6\n        /* \"#utility.yul\":8975:8976   */\n      dup2\n        /* \"#utility.yul\":8972:8985   */\n      lt\n        /* \"#utility.yul\":8953:9379   */\n      iszero\n      tag_264\n      jumpi\n        /* \"#utility.yul\":9049:9058   */\n      dup5\n        /* \"#utility.yul\":9043:9047   */\n      dup5\n        /* \"#utility.yul\":9039:9059   */\n      sub\n        /* \"#utility.yul\":9034:9037   */\n      dup10\n        /* \"#utility.yul\":9027:9060   */\n      mstore\n        /* \"#utility.yul\":9100:9106   */\n      dup2\n        /* \"#utility.yul\":9094:9107   */\n      mload\n        /* \"#utility.yul\":9128:9232   */\n      tag_265\n        /* \"#utility.yul\":9227:9231   */\n      dup6\n        /* \"#utility.yul\":9212:9225   */\n      dup3\n        /* \"#utility.yul\":9128:9232   */\n      tag_140\n      jump\t// in\n    tag_265:\n        /* \"#utility.yul\":9120:9232   */\n      swap5\n      pop\n        /* \"#utility.yul\":9255:9335   */\n      tag_266\n        /* \"#utility.yul\":9328:9334   */\n      dup4\n        /* \"#utility.yul\":9255:9335   */\n      tag_141\n      jump\t// in\n    tag_266:\n        /* \"#utility.yul\":9245:9335   */\n      swap3\n      pop\n        /* \"#utility.yul\":9364:9368   */\n      0x20\n        /* \"#utility.yul\":9359:9362   */\n      dup11\n        /* \"#utility.yul\":9355:9369   */\n      add\n        /* \"#utility.yul\":9348:9369   */\n      swap10\n      pop\n        /* \"#utility.yul\":9013:9379   */\n      pop\n        /* \"#utility.yul\":9000:9001   */\n      0x01\n        /* \"#utility.yul\":8997:8998   */\n      dup2\n        /* \"#utility.yul\":8993:9002   */\n      add\n        /* \"#utility.yul\":8988:9002   */\n      swap1\n      pop\n        /* \"#utility.yul\":8953:9379   */\n      jump(tag_262)\n    tag_264:\n        /* \"#utility.yul\":8957:8971   */\n      pop\n        /* \"#utility.yul\":9395:9399   */\n      dup3\n        /* \"#utility.yul\":9388:9399   */\n      swap8\n      pop\n        /* \"#utility.yul\":9415:9418   */\n      dup8\n        /* \"#utility.yul\":9408:9418   */\n      swap6\n      pop\n        /* \"#utility.yul\":8517:9424   */\n      pop\n      pop\n      pop\n      pop\n      pop\n        /* \"#utility.yul\":8353:9424   */\n      swap3\n      swap2\n      pop\n      pop\n      jump\t// out\n        /* \"#utility.yul\":9430:9883   */\n    tag_22:\n        /* \"#utility.yul\":9613:9617   */\n      0x00\n        /* \"#utility.yul\":9651:9653   */\n      0x20\n        /* \"#utility.yul\":9640:9649   */\n      dup3\n        /* \"#utility.yul\":9636:9654   */\n      add\n        /* \"#utility.yul\":9628:9654   */\n      swap1\n      pop\n        /* \"#utility.yul\":9700:9709   */\n      dup2\n        /* \"#utility.yul\":9694:9698   */\n      dup2\n        /* \"#utility.yul\":9690:9710   */\n      sub\n        /* \"#utility.yul\":9686:9687   */\n      0x00\n        /* \"#utility.yul\":9675:9684   */\n      dup4\n        /* \"#utility.yul\":9671:9688   */\n      add\n        /* \"#utility.yul\":9664:9711   */\n      mstore\n        /* \"#utility.yul\":9728:9876   */\n      tag_268\n        /* \"#utility.yul\":9871:9875   */\n      dup2\n        /* \"#utility.yul\":9862:9868   */\n      dup5\n        /* \"#utility.yul\":9728:9876   */\n      tag_142\n      jump\t// in\n    tag_268:\n        /* \"#utility.yul\":9720:9876   */\n      swap1\n      pop\n        /* \"#utility.yul\":9430:9883   */\n      swap3\n      swap2\n      pop\n      pop\n      jump\t// out\n        /* \"#utility.yul\":9889:10058   */\n    tag_143:\n        /* \"#utility.yul\":9973:9984   */\n      0x00\n        /* \"#utility.yul\":10007:10013   */\n      dup3\n        /* \"#utility.yul\":10002:10005   */\n      dup3\n        /* \"#utility.yul\":9995:10014   */\n      mstore\n        /* \"#utility.yul\":10047:10051   */\n      0x20\n        /* \"#utility.yul\":10042:10045   */\n      dup3\n        /* \"#utility.yul\":10038:10052   */\n      add\n        /* \"#utility.yul\":10023:10052   */\n      swap1\n      pop\n        /* \"#utility.yul\":9889:10058   */\n      swap3\n      swap2\n      pop\n      pop\n      jump\t// out\n        /* \"#utility.yul\":10064:10227   */\n    tag_144:\n        /* \"#utility.yul\":10204:10219   */\n      0x496e76616c696420496e64657800000000000000000000000000000000000000\n        /* \"#utility.yul\":10200:10201   */\n      0x00\n        /* \"#utility.yul\":10192:10198   */\n      dup3\n        /* \"#utility.yul\":10188:10202   */\n      add\n        /* \"#utility.yul\":10181:10220   */\n      mstore\n        /* \"#utility.yul\":10064:10227   */\n      pop\n      jump\t// out\n        /* \"#utility.yul\":10233:10599   */\n    tag_145:\n        /* \"#utility.yul\":10375:10378   */\n      0x00\n        /* \"#utility.yul\":10396:10463   */\n      tag_272\n        /* \"#utility.yul\":10460:10462   */\n      0x0d\n        /* \"#utility.yul\":10455:10458   */\n      dup4\n        /* \"#utility.yul\":10396:10463   */\n      tag_143\n      jump\t// in\n    tag_272:\n        /* \"#utility.yul\":10389:10463   */\n      swap2\n      pop\n        /* \"#utility.yul\":10472:10565   */\n      tag_273\n        /* \"#utility.yul\":10561:10564   */\n      dup3\n        /* \"#utility.yul\":10472:10565   */\n      tag_144\n      jump\t// in\n    tag_273:\n        /* \"#utility.yul\":10590:10592   */\n      0x20\n        /* \"#utility.yul\":10585:10588   */\n      dup3\n        /* \"#utility.yul\":10581:10593   */\n      add\n        /* \"#utility.yul\":10574:10593   */\n      swap1\n      pop\n        /* \"#utility.yul\":10233:10599   */\n      swap2\n      swap1\n      pop\n      jump\t// out\n        /* \"#utility.yul\":10605:11024   */\n    tag_26:\n        /* \"#utility.yul\":10771:10775   */\n      0x00\n        /* \"#utility.yul\":10809:10811   */\n      0x20\n        /* \"#utility.yul\":10798:10807   */\n      dup3\n        /* \"#utility.yul\":10794:10812   */\n      add\n        /* \"#utility.yul\":10786:10812   */\n      swap1\n      pop\n        /* \"#utility.yul\":10858:10867   */\n      dup2\n        /* \"#utility.yul\":10852:10856   */\n      dup2\n        /* \"#utility.yul\":10848:10868   */\n      sub\n        /* \"#utility.yul\":10844:10845   */\n      0x00\n        /* \"#utility.yul\":10833:10842   */\n      dup4\n        /* \"#utility.yul\":10829:10846   */\n      add\n        /* \"#utility.yul\":10822:10869   */\n      mstore\n        /* \"#utility.yul\":10886:11017   */\n      tag_275\n        /* \"#utility.yul\":11012:11016   */\n      dup2\n        /* \"#utility.yul\":10886:11017   */\n      tag_145\n      jump\t// in\n    tag_275:\n        /* \"#utility.yul\":10878:11017   */\n      swap1\n      pop\n        /* \"#utility.yul\":10605:11024   */\n      swap2\n      swap1\n      pop\n      jump\t// out\n        /* \"#utility.yul\":11030:11210   */\n    tag_29:\n        /* \"#utility.yul\":11078:11155   */\n      0x4e487b7100000000000000000000000000000000000000000000000000000000\n        /* \"#utility.yul\":11075:11076   */\n      0x00\n        /* \"#utility.yul\":11068:11156   */\n      mstore\n        /* \"#utility.yul\":11175:11179   */\n      0x32\n        /* \"#utility.yul\":11172:11173   */\n      0x04\n        /* \"#utility.yul\":11165:11180   */\n      mstore\n        /* \"#utility.yul\":11199:11203   */\n      0x24\n        /* \"#utility.yul\":11196:11197   */\n      0x00\n        /* \"#utility.yul\":11189:11204   */\n      revert\n        /* \"#utility.yul\":11216:11378   */\n    tag_146:\n        /* \"#utility.yul\":11356:11370   */\n      0x4e6f74652044656c657465640000000000000000000000000000000000000000\n        /* \"#utility.yul\":11352:11353   */\n      0x00\n        /* \"#utility.yul\":11344:11350   */\n      dup3\n        /* \"#utility.yul\":11340:11354   */\n      add\n        /* \"#utility.yul\":11333:11371   */\n      mstore\n        /* \"#utility.yul\":11216:11378   */\n      pop\n      jump\t// out\n        /* \"#utility.yul\":11384:11750   */\n    tag_147:\n        /* \"#utility.yul\":11526:11529   */\n      0x00\n        /* \"#utility.yul\":11547:11614   */\n      tag_279\n        /* \"#utility.yul\":11611:11613   */\n      0x0c\n        /* \"#utility.yul\":11606:11609   */\n      dup4\n        /* \"#utility.yul\":11547:11614   */\n      tag_143\n      jump\t// in\n    tag_279:\n        /* \"#utility.yul\":11540:11614   */\n      swap2\n      pop\n        /* \"#utility.yul\":11623:11716   */\n      tag_280\n        /* \"#utility.yul\":11712:11715   */\n      dup3\n        /* \"#utility.yul\":11623:11716   */\n      tag_146\n      jump\t// in\n    tag_280:\n        /* \"#utility.yul\":11741:11743   */\n      0x20\n        /* \"#utility.yul\":11736:11739   */\n      dup3\n        /* \"#utility.yul\":11732:11744   */\n      add\n        /* \"#utility.yul\":11725:11744   */\n      swap1\n      pop\n        /* \"#utility.yul\":11384:11750   */\n      swap2\n      swap1\n      pop\n      jump\t// out\n        /* \"#utility.yul\":11756:12175   */\n    tag_33:\n        /* \"#utility.yul\":11922:11926   */\n      0x00\n        /* \"#utility.yul\":11960:11962   */\n      0x20\n        /* \"#utility.yul\":11949:11958   */\n      dup3\n        /* \"#utility.yul\":11945:11963   */\n      add\n        /* \"#utility.yul\":11937:11963   */\n      swap1\n      pop\n        /* \"#utility.yul\":12009:12018   */\n      dup2\n        /* \"#utility.yul\":12003:12007   */\n      dup2\n        /* \"#utility.yul\":11999:12019   */\n      sub\n        /* \"#utility.yul\":11995:11996   */\n      0x00\n        /* \"#utility.yul\":11984:11993   */\n      dup4\n        /* \"#utility.yul\":11980:11997   */\n      add\n        /* \"#utility.yul\":11973:12020   */\n      mstore\n        /* \"#utility.yul\":12037:12168   */\n      tag_282\n        /* \"#utility.yul\":12163:12167   */\n      dup2\n        /* \"#utility.yul\":12037:12168   */\n      tag_147\n      jump\t// in\n    tag_282:\n        /* \"#utility.yul\":12029:12168   */\n      swap1\n      pop\n        /* \"#utility.yul\":11756:12175   */\n      swap2\n      swap1\n      pop\n      jump\t// out\n        /* \"#utility.yul\":12181:12361   */\n    tag_148:\n        /* \"#utility.yul\":12229:12306   */\n      0x4e487b7100000000000000000000000000000000000000000000000000000000\n        /* \"#utility.yul\":12226:12227   */\n      0x00\n        /* \"#utility.yul\":12219:12307   */\n      mstore\n        /* \"#utility.yul\":12326:12330   */\n      0x22\n        /* \"#utility.yul\":12323:12324   */\n      0x04\n        /* \"#utility.yul\":12316:12331   */\n      mstore\n        /* \"#utility.yul\":12350:12354   */\n      0x24\n        /* \"#utility.yul\":12347:12348   */\n      0x00\n        /* \"#utility.yul\":12340:12355   */\n      revert\n        /* \"#utility.yul\":12367:12687   */\n    tag_101:\n        /* \"#utility.yul\":12411:12417   */\n      0x00\n        /* \"#utility.yul\":12448:12449   */\n      0x02\n        /* \"#utility.yul\":12442:12446   */\n      dup3\n        /* \"#utility.yul\":12438:12450   */\n      div\n        /* \"#utility.yul\":12428:12450   */\n      swap1\n      pop\n        /* \"#utility.yul\":12495:12496   */\n      0x01\n        /* \"#utility.yul\":12489:12493   */\n      dup3\n        /* \"#utility.yul\":12485:12497   */\n      and\n        /* \"#utility.yul\":12516:12534   */\n      dup1\n        /* \"#utility.yul\":12506:12587   */\n      tag_285\n      jumpi\n        /* \"#utility.yul\":12572:12576   */\n      0x7f\n        /* \"#utility.yul\":12564:12570   */\n      dup3\n        /* \"#utility.yul\":12560:12577   */\n      and\n        /* \"#utility.yul\":12550:12577   */\n      swap2\n      pop\n        /* \"#utility.yul\":12506:12587   */\n    tag_285:\n        /* \"#utility.yul\":12634:12636   */\n      0x20\n        /* \"#utility.yul\":12626:12632   */\n      dup3\n        /* \"#utility.yul\":12623:12637   */\n      lt\n        /* \"#utility.yul\":12603:12621   */\n      dup2\n        /* \"#utility.yul\":12600:12638   */\n      sub\n        /* \"#utility.yul\":12597:12681   */\n      tag_286\n      jumpi\n        /* \"#utility.yul\":12653:12671   */\n      tag_287\n      tag_148\n      jump\t// in\n    tag_287:\n        /* \"#utility.yul\":12597:12681   */\n    tag_286:\n        /* \"#utility.yul\":12418:12687   */\n      pop\n        /* \"#utility.yul\":12367:12687   */\n      swap2\n      swap1\n      pop\n      jump\t// out\n        /* \"#utility.yul\":12693:12834   */\n    tag_149:\n        /* \"#utility.yul\":12742:12746   */\n      0x00\n        /* \"#utility.yul\":12765:12768   */\n      dup2\n        /* \"#utility.yul\":12757:12768   */\n      swap1\n      pop\n        /* \"#utility.yul\":12788:12791   */\n      dup2\n        /* \"#utility.yul\":12785:12786   */\n      0x00\n        /* \"#utility.yul\":12778:12792   */\n      mstore\n        /* \"#utility.yul\":12822:12826   */\n      0x20\n        /* \"#utility.yul\":12819:12820   */\n      0x00\n        /* \"#utility.yul\":12809:12827   */\n      keccak256\n        /* \"#utility.yul\":12801:12827   */\n      swap1\n      pop\n        /* \"#utility.yul\":12693:12834   */\n      swap2\n      swap1\n      pop\n      jump\t// out\n        /* \"#utility.yul\":12840:12933   */\n    tag_150:\n        /* \"#utility.yul\":12877:12883   */\n      0x00\n        /* \"#utility.yul\":12924:12926   */\n      0x20\n        /* \"#utility.yul\":12919:12921   */\n      0x1f\n        /* \"#utility.yul\":12912:12917   */\n      dup4\n        /* \"#utility.yul\":12908:12922   */\n      add\n        /* \"#utility.yul\":12904:12927   */\n      div\n        /* \"#utility.yul\":12894:12927   */\n      swap1\n      pop\n        /* \"#utility.yul\":12840:12933   */\n      swap2\n      swap1\n      pop\n      jump\t// out\n        /* \"#utility.yul\":12939:13046   */\n    tag_151:\n        /* \"#utility.yul\":12983:12991   */\n      0x00\n        /* \"#utility.yul\":13033:13038   */\n      dup3\n        /* \"#utility.yul\":13027:13031   */\n      dup3\n        /* \"#utility.yul\":13023:13039   */\n      shl\n        /* \"#utility.yul\":13002:13039   */\n      swap1\n      pop\n        /* \"#utility.yul\":12939:13046   */\n      swap3\n      swap2\n      pop\n      pop\n      jump\t// out\n        /* \"#utility.yul\":13052:13445   */\n    tag_152:\n        /* \"#utility.yul\":13121:13127   */\n      0x00\n        /* \"#utility.yul\":13171:13172   */\n      0x08\n        /* \"#utility.yul\":13159:13169   */\n      dup4\n        /* \"#utility.yul\":13155:13173   */\n      mul\n        /* \"#utility.yul\":13194:13291   */\n      tag_292\n        /* \"#utility.yul\":13224:13290   */\n      0xffffffffffffffffffffffffffffffffffffffffffffffffffffffffffffffff\n        /* \"#utility.yul\":13213:13222   */\n      dup3\n        /* \"#utility.yul\":13194:13291   */\n      tag_151\n      jump\t// in\n    tag_292:\n        /* \"#utility.yul\":13312:13351   */\n      tag_293\n        /* \"#utility.yul\":13342:13350   */\n      dup7\n        /* \"#utility.yul\":13331:13340   */\n      dup4\n        /* \"#utility.yul\":13312:13351   */\n      tag_151\n      jump\t// in\n    tag_293:\n        /* \"#utility.yul\":13300:13351   */\n      swap6\n      pop\n        /* \"#utility.yul\":13384:13388   */\n      dup1\n        /* \"#utility.yul\":13380:13389   */\n      not\n        /* \"#utility.yul\":13373:13378   */\n      dup5\n        /* \"#utility.yul\":13369:13390   */\n      and\n        /* \"#utility.yul\":13360:13390   */\n      swap4\n      pop\n        /* \"#utility.yul\":13433:13437   */\n      dup1\n        /* \"#utility.yul\":13423:13431   */\n      dup7\n        /* \"#utility.yul\":13419:13438   */\n      and\n        /* \"#utility.yul\":13412:13417   */\n      dup5\n        /* \"#utility.yul\":13409:13439   */\n      or\n        /* \"#utility.yul\":13399:13439   */\n      swap3\n      pop\n        /* \"#utility.yul\":13128:13445   */\n      pop\n      pop\n        /* \"#utility.yul\":13052:13445   */\n      swap4\n      swap3\n      pop\n      pop\n      pop\n      jump\t// out\n        /* \"#utility.yul\":13451:13511   */\n    tag_153:\n        /* \"#utility.yul\":13479:13482   */\n      0x00\n        /* \"#utility.yul\":13500:13505   */\n      dup2\n        /* \"#utility.yul\":13493:13505   */\n      swap1\n      pop\n        /* \"#utility.yul\":13451:13511   */\n      swap2\n      swap1\n      pop\n      jump\t// out\n        /* \"#utility.yul\":13517:13659   */\n    tag_154:\n        /* \"#utility.yul\":13567:13576   */\n      0x00\n        /* \"#utility.yul\":13600:13653   */\n      tag_296\n        /* \"#utility.yul\":13618:13652   */\n      tag_297\n        /* \"#utility.yul\":13627:13651   */\n      tag_298\n        /* \"#utility.yul\":13645:13650   */\n      dup5\n        /* \"#utility.yul\":13627:13651   */\n      tag_117\n      jump\t// in\n    tag_298:\n        /* \"#utility.yul\":13618:13652   */\n      tag_153\n      jump\t// in\n    tag_297:\n        /* \"#utility.yul\":13600:13653   */\n      tag_117\n      jump\t// in\n    tag_296:\n        /* \"#utility.yul\":13587:13653   */\n      swap1\n      pop\n        /* \"#utility.yul\":13517:13659   */\n      swap2\n      swap1\n      pop\n      jump\t// out\n        /* \"#utility.yul\":13665:13740   */\n    tag_155:\n        /* \"#utility.yul\":13708:13711   */\n      0x00\n        /* \"#utility.yul\":13729:13734   */\n      dup2\n        /* \"#utility.yul\":13722:13734   */\n      swap1\n      pop\n        /* \"#utility.yul\":13665:13740   */\n      swap2\n      swap1\n      pop\n      jump\t// out\n        /* \"#utility.yul\":13746:14015   */\n    tag_156:\n        /* \"#utility.yul\":13856:13895   */\n      tag_301\n        /* \"#utility.yul\":13887:13894   */\n      dup4\n        /* \"#utility.yul\":13856:13895   */\n      tag_154\n      jump\t// in\n    tag_301:\n        /* \"#utility.yul\":13917:14008   */\n      tag_302\n        /* \"#utility.yul\":13966:14007   */\n      tag_303\n        /* \"#utility.yul\":13990:14006   */\n      dup3\n        /* \"#utility.yul\":13966:14007   */\n      tag_155\n      jump\t// in\n    tag_303:\n        /* \"#utility.yul\":13958:13964   */\n      dup5\n        /* \"#utility.yul\":13951:13955   */\n      dup5\n        /* \"#utility.yul\":13945:13956   */\n      sload\n        /* \"#utility.yul\":13917:14008   */\n      tag_152\n      jump\t// in\n    tag_302:\n        /* \"#utility.yul\":13911:13915   */\n      dup3\n        /* \"#utility.yul\":13904:14009   */\n      sstore\n        /* \"#utility.yul\":13822:14015   */\n      pop\n        /* \"#utility.yul\":13746:14015   */\n      pop\n      pop\n      pop\n      jump\t// out\n        /* \"#utility.yul\":14021:14094   */\n    tag_157:\n        /* \"#utility.yul\":14066:14069   */\n      0x00\n        /* \"#utility.yul\":14087:14088   */\n      0x00\n        /* \"#utility.yul\":14080:14088   */\n      swap1\n      pop\n        /* \"#utility.yul\":14021:14094   */\n      swap1\n      jump\t// out\n        /* \"#utility.yul\":14100:14289   */\n    tag_158:\n        /* \"#utility.yul\":14177:14209   */\n      tag_306\n      tag_157\n      jump\t// in\n    tag_306:\n        /* \"#utility.yul\":14218:14283   */\n      tag_307\n        /* \"#utility.yul\":14276:14282   */\n      dup2\n        /* \"#utility.yul\":14268:14274   */\n      dup5\n        /* \"#utility.yul\":14262:14266   */\n      dup5\n        /* \"#utility.yul\":14218:14283   */\n      tag_156\n      jump\t// in\n    tag_307:\n        /* \"#utility.yul\":14153:14289   */\n      pop\n        /* \"#utility.yul\":14100:14289   */\n      pop\n      pop\n      jump\t// out\n        /* \"#utility.yul\":14295:14481   */\n    tag_159:\n        /* \"#utility.yul\":14355:14475   */\n    tag_309:\n        /* \"#utility.yul\":14372:14375   */\n      dup2\n        /* \"#utility.yul\":14365:14370   */\n      dup2\n        /* \"#utility.yul\":14362:14376   */\n      lt\n        /* \"#utility.yul\":14355:14475   */\n      iszero\n      tag_311\n      jumpi\n        /* \"#utility.yul\":14426:14465   */\n      tag_312\n        /* \"#utility.yul\":14463:14464   */\n      0x00\n        /* \"#utility.yul\":14456:14461   */\n      dup3\n        /* \"#utility.yul\":14426:14465   */\n      tag_158\n      jump\t// in\n    tag_312:\n        /* \"#utility.yul\":14399:14400   */\n      0x01\n        /* \"#utility.yul\":14392:14397   */\n      dup2\n        /* \"#utility.yul\":14388:14401   */\n      add\n        /* \"#utility.yul\":14379:14401   */\n      swap1\n      pop\n        /* \"#utility.yul\":14355:14475   */\n      jump(tag_309)\n    tag_311:\n        /* \"#utility.yul\":14295:14481   */\n      pop\n      pop\n      jump\t// out\n        /* \"#utility.yul\":14487:15030   */\n    tag_160:\n        /* \"#utility.yul\":14588:14590   */\n      0x1f\n        /* \"#utility.yul\":14583:14586   */\n      dup3\n        /* \"#utility.yul\":14580:14591   */\n      gt\n        /* \"#utility.yul\":14577:15023   */\n      iszero\n      tag_314\n      jumpi\n        /* \"#utility.yul\":14622:14660   */\n      tag_315\n        /* \"#utility.yul\":14654:14659   */\n      dup2\n        /* \"#utility.yul\":14622:14660   */\n      tag_149\n      jump\t// in\n    tag_315:\n        /* \"#utility.yul\":14706:14735   */\n      tag_316\n        /* \"#utility.yul\":14724:14734   */\n      dup5\n        /* \"#utility.yul\":14706:14735   */\n      tag_150\n      jump\t// in\n    tag_316:\n        /* \"#utility.yul\":14696:14704   */\n      dup2\n        /* \"#utility.yul\":14692:14736   */\n      add\n        /* \"#utility.yul\":14889:14891   */\n      0x20\n        /* \"#utility.yul\":14877:14887   */\n      dup6\n        /* \"#utility.yul\":14874:14892   */\n      lt\n        /* \"#utility.yul\":14871:14920   */\n      iszero\n      tag_317\n      jumpi\n        /* \"#utility.yul\":14910:14918   */\n      dup2\n        /* \"#utility.yul\":14895:14918   */\n      swap1\n      pop\n        /* \"#utility.yul\":14871:14920   */\n    tag_317:\n        /* \"#utility.yul\":14933:15013   */\n      tag_318\n        /* \"#utility.yul\":14989:15011   */\n      tag_319\n        /* \"#utility.yul\":15007:15010   */\n      dup6\n        /* \"#utility.yul\":14989:15011   */\n      tag_150\n      jump\t// in\n    tag_319:\n        /* \"#utility.yul\":14979:14987   */\n      dup4\n        /* \"#utility.yul\":14975:15012   */\n      add\n        /* \"#utility.yul\":14962:14973   */\n      dup3\n        /* \"#utility.yul\":14933:15013   */\n      tag_159\n      jump\t// in\n    tag_318:\n        /* \"#utility.yul\":14592:15023   */\n      pop\n      pop\n        /* \"#utility.yul\":14577:15023   */\n    tag_314:\n        /* \"#utility.yul\":14487:15030   */\n      pop\n      pop\n      pop\n      jump\t// out\n        /* \"#utility.yul\":15036:15153   */\n    tag_161:\n        /* \"#utility.yul\":15090:15098   */\n      0x00\n        /* \"#utility.yul\":15140:15145   */\n      dup3\n        /* \"#utility.yul\":15134:15138   */\n      dup3\n        /* \"#utility.yul\":15130:15146   */\n      shr\n        /* \"#utility.yul\":15109:15146   */\n      swap1\n      pop\n        /* \"#utility.yul\":15036:15153   */\n      swap3\n      swap2\n      pop\n      pop\n      jump\t// out\n        /* \"#utility.yul\":15159:15328   */\n    tag_162:\n        /* \"#utility.yul\":15203:15209   */\n      0x00\n        /* \"#utility.yul\":15236:15287   */\n      tag_322\n        /* \"#utility.yul\":15284:15285   */\n      0x00\n        /* \"#utility.yul\":15280:15286   */\n      not\n        /* \"#utility.yul\":15272:15277   */\n      dup5\n        /* \"#utility.yul\":15269:15270   */\n      0x08\n        /* \"#utility.yul\":15265:15278   */\n      mul\n        /* \"#utility.yul\":15236:15287   */\n      tag_161\n      jump\t// in\n    tag_322:\n        /* \"#utility.yul\":15232:15288   */\n      not\n        /* \"#utility.yul\":15317:15321   */\n      dup1\n        /* \"#utility.yul\":15311:15315   */\n      dup4\n        /* \"#utility.yul\":15307:15322   */\n      and\n        /* \"#utility.yul\":15297:15322   */\n      swap2\n      pop\n        /* \"#utility.yul\":15210:15328   */\n      pop\n        /* \"#utility.yul\":15159:15328   */\n      swap3\n      swap2\n      pop\n      pop\n      jump\t// out\n        /* \"#utility.yul\":15333:15628   */\n    tag_163:\n        /* \"#utility.yul\":15409:15413   */\n      0x00\n        /* \"#utility.yul\":15555:15584   */\n      tag_324\n        /* \"#utility.yul\":15580:15583   */\n      dup4\n        /* \"#utility.yul\":15574:15578   */\n      dup4\n        /* \"#utility.yul\":15555:15584   */\n      tag_162\n      jump\t// in\n    tag_324:\n        /* \"#utility.yul\":15547:15584   */\n      swap2\n      pop\n        /* \"#utility.yul\":15617:15620   */\n      dup3\n        /* \"#utility.yul\":15614:15615   */\n      0x02\n        /* \"#utility.yul\":15610:15621   */\n      mul\n        /* \"#utility.yul\":15604:15608   */\n      dup3\n        /* \"#utility.yul\":15601:15622   */\n      or\n        /* \"#utility.yul\":15593:15622   */\n      swap1\n      pop\n        /* \"#utility.yul\":15333:15628   */\n      swap3\n      swap2\n      pop\n      pop\n      jump\t// out\n        /* \"#utility.yul\":15633:17028   */\n    tag_38:\n        /* \"#utility.yul\":15750:15787   */\n      tag_326\n        /* \"#utility.yul\":15783:15786   */\n      dup3\n        /* \"#utility.yul\":15750:15787   */\n      tag_133\n      jump\t// in\n    tag_326:\n        /* \"#utility.yul\":15852:15870   */\n      0xffffffffffffffff\n        /* \"#utility.yul\":15844:15850   */\n      dup2\n        /* \"#utility.yul\":15841:15871   */\n      gt\n        /* \"#utility.yul\":15838:15894   */\n      iszero\n      tag_327\n      jumpi\n        /* \"#utility.yul\":15874:15892   */\n      tag_328\n      tag_85\n      jump\t// in\n    tag_328:\n        /* \"#utility.yul\":15838:15894   */\n    tag_327:\n        /* \"#utility.yul\":15918:15956   */\n      tag_329\n        /* \"#utility.yul\":15950:15954   */\n      dup3\n        /* \"#utility.yul\":15944:15955   */\n      sload\n        /* \"#utility.yul\":15918:15956   */\n      tag_101\n      jump\t// in\n    tag_329:\n        /* \"#utility.yul\":16003:16070   */\n      tag_330\n        /* \"#utility.yul\":16063:16069   */\n      dup3\n        /* \"#utility.yul\":16055:16061   */\n      dup3\n        /* \"#utility.yul\":16049:16053   */\n      dup6\n        /* \"#utility.yul\":16003:16070   */\n      tag_160\n      jump\t// in\n    tag_330:\n        /* \"#utility.yul\":16097:16098   */\n      0x00\n        /* \"#utility.yul\":16121:16125   */\n      0x20\n        /* \"#utility.yul\":16108:16125   */\n      swap1\n      pop\n        /* \"#utility.yul\":16153:16155   */\n      0x1f\n        /* \"#utility.yul\":16145:16151   */\n      dup4\n        /* \"#utility.yul\":16142:16156   */\n      gt\n        /* \"#utility.yul\":16170:16171   */\n      0x01\n        /* \"#utility.yul\":16165:16783   */\n      dup2\n      eq\n      tag_332\n      jumpi\n        /* \"#utility.yul\":16827:16828   */\n      0x00\n        /* \"#utility.yul\":16844:16850   */\n      dup5\n        /* \"#utility.yul\":16841:16918   */\n      iszero\n      tag_333\n      jumpi\n        /* \"#utility.yul\":16893:16902   */\n      dup3\n        /* \"#utility.yul\":16888:16891   */\n      dup8\n        /* \"#utility.yul\":16884:16903   */\n      add\n        /* \"#utility.yul\":16878:16904   */\n      mload\n        /* \"#utility.yul\":16869:16904   */\n      swap1\n      pop\n        /* \"#utility.yul\":16841:16918   */\n    tag_333:\n        /* \"#utility.yul\":16944:17011   */\n      tag_334\n        /* \"#utility.yul\":17004:17010   */\n      dup6\n        /* \"#utility.yul\":16997:17002   */\n      dup3\n        /* \"#utility.yul\":16944:17011   */\n      tag_163\n      jump\t// in\n    tag_334:\n        /* \"#utility.yul\":16938:16942   */\n      dup7\n        /* \"#utility.yul\":16931:17012   */\n      sstore\n        /* \"#utility.yul\":16800:17022   */\n      pop\n        /* \"#utility.yul\":16135:17022   */\n      jump(tag_331)\n        /* \"#utility.yul\":16165:16783   */\n    tag_332:\n        /* \"#utility.yul\":16217:16221   */\n      0x1f\n        /* \"#utility.yul\":16213:16222   */\n      not\n        /* \"#utility.yul\":16205:16211   */\n      dup5\n        /* \"#utility.yul\":16201:16223   */\n      and\n        /* \"#utility.yul\":16251:16288   */\n      tag_335\n        /* \"#utility.yul\":16283:16287   */\n      dup7\n        /* \"#utility.yul\":16251:16288   */\n      tag_149\n      jump\t// in\n    tag_335:\n        /* \"#utility.yul\":16310:16311   */\n      0x00\n        /* \"#utility.yul\":16324:16532   */\n    tag_336:\n        /* \"#utility.yul\":16338:16345   */\n      dup3\n        /* \"#utility.yul\":16335:16336   */\n      dup2\n        /* \"#utility.yul\":16332:16346   */\n      lt\n        /* \"#utility.yul\":16324:16532   */\n      iszero\n      tag_338\n      jumpi\n        /* \"#utility.yul\":16417:16426   */\n      dup5\n        /* \"#utility.yul\":16412:16415   */\n      dup10\n        /* \"#utility.yul\":16408:16427   */\n      add\n        /* \"#utility.yul\":16402:16428   */\n      mload\n        /* \"#utility.yul\":16394:16400   */\n      dup3\n        /* \"#utility.yul\":16387:16429   */\n      sstore\n        /* \"#utility.yul\":16468:16469   */\n      0x01\n        /* \"#utility.yul\":16460:16466   */\n      dup3\n        /* \"#utility.yul\":16456:16470   */\n      add\n        /* \"#utility.yul\":16446:16470   */\n      swap2\n      pop\n        /* \"#utility.yul\":16515:16517   */\n      0x20\n        /* \"#utility.yul\":16504:16513   */\n      dup6\n        /* \"#utility.yul\":16500:16518   */\n      add\n        /* \"#utility.yul\":16487:16518   */\n      swap5\n      pop\n        /* \"#utility.yul\":16361:16365   */\n      0x20\n        /* \"#utility.yul\":16358:16359   */\n      dup2\n        /* \"#utility.yul\":16354:16366   */\n      add\n        /* \"#utility.yul\":16349:16366   */\n      swap1\n      pop\n        /* \"#utility.yul\":16324:16532   */\n      jump(tag_336)\n    tag_338:\n        /* \"#utility.yul\":16560:16566   */\n      dup7\n        /* \"#utility.yul\":16551:16558   */\n      dup4\n        /* \"#utility.yul\":16548:16567   */\n      lt\n        /* \"#utility.yul\":16545:16724   */\n      iszero\n      tag_339\n      jumpi\n        /* \"#utility.yul\":16618:16627   */\n      dup5\n        /* \"#utility.yul\":16613:16616   */\n      dup10\n        /* \"#utility.yul\":16609:16628   */\n      add\n        /* \"#utility.yul\":16603:16629   */\n      mload\n        /* \"#utility.yul\":16661:16709   */\n      tag_340\n        /* \"#utility.yul\":16703:16707   */\n      0x1f\n        /* \"#utility.yul\":16695:16701   */\n      dup10\n        /* \"#utility.yul\":16691:16708   */\n      and\n        /* \"#utility.yul\":16680:16689   */\n      dup3\n        /* \"#utility.yul\":16661:16709   */\n      tag_162\n      jump\t// in\n    tag_340:\n        /* \"#utility.yul\":16653:16659   */\n      dup4\n        /* \"#utility.yul\":16646:16710   */\n      sstore\n        /* \"#utility.yul\":16568:16724   */\n      pop\n        /* \"#utility.yul\":16545:16724   */\n    tag_339:\n        /* \"#utility.yul\":16770:16771   */\n      0x01\n        /* \"#utility.yul\":16766:16767   */\n      0x02\n        /* \"#utility.yul\":16758:16764   */\n      dup9\n        /* \"#utility.yul\":16754:16768   */\n      mul\n        /* \"#utility.yul\":16750:16772   */\n      add\n        /* \"#utility.yul\":16744:16748   */\n      dup9\n        /* \"#utility.yul\":16737:16773   */\n      sstore\n        /* \"#utility.yul\":16172:16783   */\n      pop\n      pop\n      pop\n        /* \"#utility.yul\":16135:17022   */\n    tag_331:\n      pop\n        /* \"#utility.yul\":15725:17028   */\n      pop\n      pop\n      pop\n        /* \"#utility.yul\":15633:17028   */\n      pop\n      pop\n      jump\t// out\n        /* \"#utility.yul\":17034:17160   */\n    tag_164:\n        /* \"#utility.yul\":17071:17078   */\n      0x00\n        /* \"#utility.yul\":17111:17153   */\n      0xffffffffffffffffffffffffffffffffffffffff\n        /* \"#utility.yul\":17104:17109   */\n      dup3\n        /* \"#utility.yul\":17100:17154   */\n      and\n        /* \"#utility.yul\":17089:17154   */\n      swap1\n      pop\n        /* \"#utility.yul\":17034:17160   */\n      swap2\n      swap1\n      pop\n      jump\t// out\n        /* \"#utility.yul\":17166:17262   */\n    tag_165:\n        /* \"#utility.yul\":17203:17210   */\n      0x00\n        /* \"#utility.yul\":17232:17256   */\n      tag_343\n        /* \"#utility.yul\":17250:17255   */\n      dup3\n        /* \"#utility.yul\":17232:17256   */\n      tag_164\n      jump\t// in\n    tag_343:\n        /* \"#utility.yul\":17221:17256   */\n      swap1\n      pop\n        /* \"#utility.yul\":17166:17262   */\n      swap2\n      swap1\n      pop\n      jump\t// out\n        /* \"#utility.yul\":17268:17386   */\n    tag_166:\n        /* \"#utility.yul\":17355:17379   */\n      tag_345\n        /* \"#utility.yul\":17373:17378   */\n      dup2\n        /* \"#utility.yul\":17355:17379   */\n      tag_165\n      jump\t// in\n    tag_345:\n        /* \"#utility.yul\":17350:17353   */\n      dup3\n        /* \"#utility.yul\":17343:17380   */\n      mstore\n        /* \"#utility.yul\":17268:17386   */\n      pop\n      pop\n      jump\t// out\n        /* \"#utility.yul\":17392:17510   */\n    tag_167:\n        /* \"#utility.yul\":17479:17503   */\n      tag_347\n        /* \"#utility.yul\":17497:17502   */\n      dup2\n        /* \"#utility.yul\":17479:17503   */\n      tag_117\n      jump\t// in\n    tag_347:\n        /* \"#utility.yul\":17474:17477   */\n      dup3\n        /* \"#utility.yul\":17467:17504   */\n      mstore\n        /* \"#utility.yul\":17392:17510   */\n      pop\n      pop\n      jump\t// out\n        /* \"#utility.yul\":17516:17893   */\n    tag_168:\n        /* \"#utility.yul\":17604:17607   */\n      0x00\n        /* \"#utility.yul\":17632:17671   */\n      tag_349\n        /* \"#utility.yul\":17665:17670   */\n      dup3\n        /* \"#utility.yul\":17632:17671   */\n      tag_133\n      jump\t// in\n    tag_349:\n        /* \"#utility.yul\":17687:17758   */\n      tag_350\n        /* \"#utility.yul\":17751:17757   */\n      dup2\n        /* \"#utility.yul\":17746:17749   */\n      dup6\n        /* \"#utility.yul\":17687:17758   */\n      tag_143\n      jump\t// in\n    tag_350:\n        /* \"#utility.yul\":17680:17758   */\n      swap4\n      pop\n        /* \"#utility.yul\":17767:17832   */\n      tag_351\n        /* \"#utility.yul\":17825:17831   */\n      dup2\n        /* \"#utility.yul\":17820:17823   */\n      dup6\n        /* \"#utility.yul\":17813:17817   */\n      0x20\n        /* \"#utility.yul\":17806:17811   */\n      dup7\n        /* \"#utility.yul\":17802:17818   */\n      add\n        /* \"#utility.yul\":17767:17832   */\n      tag_135\n      jump\t// in\n    tag_351:\n        /* \"#utility.yul\":17857:17886   */\n      tag_352\n        /* \"#utility.yul\":17879:17885   */\n      dup2\n        /* \"#utility.yul\":17857:17886   */\n      tag_122\n      jump\t// in\n    tag_352:\n        /* \"#utility.yul\":17852:17855   */\n      dup5\n        /* \"#utility.yul\":17848:17887   */\n      add\n        /* \"#utility.yul\":17841:17887   */\n      swap2\n      pop\n        /* \"#utility.yul\":17608:17893   */\n      pop\n        /* \"#utility.yul\":17516:17893   */\n      swap3\n      swap2\n      pop\n      pop\n      jump\t// out\n        /* \"#utility.yul\":17899:18634   */\n    tag_47:\n        /* \"#utility.yul\":18116:18120   */\n      0x00\n        /* \"#utility.yul\":18154:18157   */\n      0x80\n        /* \"#utility.yul\":18143:18152   */\n      dup3\n        /* \"#utility.yul\":18139:18158   */\n      add\n        /* \"#utility.yul\":18131:18158   */\n      swap1\n      pop\n        /* \"#utility.yul\":18168:18239   */\n      tag_354\n        /* \"#utility.yul\":18236:18237   */\n      0x00\n        /* \"#utility.yul\":18225:18234   */\n      dup4\n        /* \"#utility.yul\":18221:18238   */\n      add\n        /* \"#utility.yul\":18212:18218   */\n      dup8\n        /* \"#utility.yul\":18168:18239   */\n      tag_166\n      jump\t// in\n    tag_354:\n        /* \"#utility.yul\":18249:18321   */\n      tag_355\n        /* \"#utility.yul\":18317:18319   */\n      0x20\n        /* \"#utility.yul\":18306:18315   */\n      dup4\n        /* \"#utility.yul\":18302:18320   */\n      add\n        /* \"#utility.yul\":18293:18299   */\n      dup7\n        /* \"#utility.yul\":18249:18321   */\n      tag_167\n      jump\t// in\n    tag_355:\n        /* \"#utility.yul\":18368:18377   */\n      dup2\n        /* \"#utility.yul\":18362:18366   */\n      dup2\n        /* \"#utility.yul\":18358:18378   */\n      sub\n        /* \"#utility.yul\":18353:18355   */\n      0x40\n        /* \"#utility.yul\":18342:18351   */\n      dup4\n        /* \"#utility.yul\":18338:18356   */\n      add\n        /* \"#utility.yul\":18331:18379   */\n      mstore\n        /* \"#utility.yul\":18396:18474   */\n      tag_356\n        /* \"#utility.yul\":18469:18473   */\n      dup2\n        /* \"#utility.yul\":18460:18466   */\n      dup6\n        /* \"#utility.yul\":18396:18474   */\n      tag_168\n      jump\t// in\n    tag_356:\n        /* \"#utility.yul\":18388:18474   */\n      swap1\n      pop\n        /* \"#utility.yul\":18521:18530   */\n      dup2\n        /* \"#utility.yul\":18515:18519   */\n      dup2\n        /* \"#utility.yul\":18511:18531   */\n      sub\n        /* \"#utility.yul\":18506:18508   */\n      0x60\n        /* \"#utility.yul\":18495:18504   */\n      dup4\n        /* \"#utility.yul\":18491:18509   */\n      add\n        /* \"#utility.yul\":18484:18532   */\n      mstore\n        /* \"#utility.yul\":18549:18627   */\n      tag_357\n        /* \"#utility.yul\":18622:18626   */\n      dup2\n        /* \"#utility.yul\":18613:18619   */\n      dup5\n        /* \"#utility.yul\":18549:18627   */\n      tag_168\n      jump\t// in\n    tag_357:\n        /* \"#utility.yul\":18541:18627   */\n      swap1\n      pop\n        /* \"#utility.yul\":17899:18634   */\n      swap6\n      swap5\n      pop\n      pop\n      pop\n      pop\n      pop\n      jump\t// out\n        /* \"#utility.yul\":18640:18820   */\n    tag_169:\n        /* \"#utility.yul\":18688:18765   */\n      0x4e487b7100000000000000000000000000000000000000000000000000000000\n        /* \"#utility.yul\":18685:18686   */\n      0x00\n        /* \"#utility.yul\":18678:18766   */\n      mstore\n        /* \"#utility.yul\":18785:18789   */\n      0x11\n        /* \"#utility.yul\":18782:18783   */\n      0x04\n        /* \"#utility.yul\":18775:18790   */\n      mstore\n        /* \"#utility.yul\":18809:18813   */\n      0x24\n        /* \"#utility.yul\":18806:18807   */\n      0x00\n        /* \"#utility.yul\":18799:18814   */\n      revert\n        /* \"#utility.yul\":18826:19020   */\n    tag_53:\n        /* \"#utility.yul\":18866:18870   */\n      0x00\n        /* \"#utility.yul\":18886:18906   */\n      tag_360\n        /* \"#utility.yul\":18904:18905   */\n      dup3\n        /* \"#utility.yul\":18886:18906   */\n      tag_117\n      jump\t// in\n    tag_360:\n        /* \"#utility.yul\":18881:18906   */\n      swap2\n      pop\n        /* \"#utility.yul\":18920:18940   */\n      tag_361\n        /* \"#utility.yul\":18938:18939   */\n      dup4\n        /* \"#utility.yul\":18920:18940   */\n      tag_117\n      jump\t// in\n    tag_361:\n        /* \"#utility.yul\":18915:18940   */\n      swap3\n      pop\n        /* \"#utility.yul\":18964:18965   */\n      dup3\n        /* \"#utility.yul\":18961:18962   */\n      dup3\n        /* \"#utility.yul\":18957:18966   */\n      sub\n        /* \"#utility.yul\":18949:18966   */\n      swap1\n      pop\n        /* \"#utility.yul\":18988:18989   */\n      dup2\n        /* \"#utility.yul\":18982:18986   */\n      dup2\n        /* \"#utility.yul\":18979:18990   */\n      gt\n        /* \"#utility.yul\":18976:19013   */\n      iszero\n      tag_362\n      jumpi\n        /* \"#utility.yul\":18993:19011   */\n      tag_363\n      tag_169\n      jump\t// in\n    tag_363:\n        /* \"#utility.yul\":18976:19013   */\n    tag_362:\n        /* \"#utility.yul\":18826:19020   */\n      swap3\n      swap2\n      pop\n      pop\n      jump\t// out\n        /* \"#utility.yul\":19026:19559   */\n    tag_55:\n        /* \"#utility.yul\":19195:19199   */\n      0x00\n        /* \"#utility.yul\":19233:19235   */\n      0x60\n        /* \"#utility.yul\":19222:19231   */\n      dup3\n        /* \"#utility.yul\":19218:19236   */\n      add\n        /* \"#utility.yul\":19210:19236   */\n      swap1\n      pop\n        /* \"#utility.yul\":19246:19317   */\n      tag_365\n        /* \"#utility.yul\":19314:19315   */\n      0x00\n        /* \"#utility.yul\":19303:19312   */\n      dup4\n        /* \"#utility.yul\":19299:19316   */\n      add\n        /* \"#utility.yul\":19290:19296   */\n      dup7\n        /* \"#utility.yul\":19246:19317   */\n      tag_166\n      jump\t// in\n    tag_365:\n        /* \"#utility.yul\":19364:19373   */\n      dup2\n        /* \"#utility.yul\":19358:19362   */\n      dup2\n        /* \"#utility.yul\":19354:19374   */\n      sub\n        /* \"#utility.yul\":19349:19351   */\n      0x20\n        /* \"#utility.yul\":19338:19347   */\n      dup4\n        /* \"#utility.yul\":19334:19352   */\n      add\n        /* \"#utility.yul\":19327:19375   */\n      mstore\n        /* \"#utility.yul\":19392:19470   */\n      tag_366\n        /* \"#utility.yul\":19465:19469   */\n      dup2\n        /* \"#utility.yul\":19456:19462   */\n      dup6\n        /* \"#utility.yul\":19392:19470   */\n      tag_168\n      jump\t// in\n    tag_366:\n        /* \"#utility.yul\":19384:19470   */\n      swap1\n      pop\n        /* \"#utility.yul\":19480:19552   */\n      tag_367\n        /* \"#utility.yul\":19548:19550   */\n      0x40\n        /* \"#utility.yul\":19537:19546   */\n      dup4\n        /* \"#utility.yul\":19533:19551   */\n      add\n        /* \"#utility.yul\":19524:19530   */\n      dup5\n        /* \"#utility.yul\":19480:19552   */\n      tag_167\n      jump\t// in\n    tag_367:\n        /* \"#utility.yul\":19026:19559   */\n      swap5\n      swap4\n      pop\n      pop\n      pop\n      pop\n      jump\t// out\n        /* \"#utility.yul\":19565:19736   */\n    tag_170:\n        /* \"#utility.yul\":19705:19728   */\n      0x4e6f746520416c72656164792044656c65746564210000000000000000000000\n        /* \"#utility.yul\":19701:19702   */\n      0x00\n        /* \"#utility.yul\":19693:19699   */\n      dup3\n        /* \"#utility.yul\":19689:19703   */\n      add\n        /* \"#utility.yul\":19682:19729   */\n      mstore\n        /* \"#utility.yul\":19565:19736   */\n      pop\n      jump\t// out\n        /* \"#utility.yul\":19742:20108   */\n    tag_171:\n        /* \"#utility.yul\":19884:19887   */\n      0x00\n        /* \"#utility.yul\":19905:19972   */\n      tag_370\n        /* \"#utility.yul\":19969:19971   */\n      0x15\n        /* \"#utility.yul\":19964:19967   */\n      dup4\n        /* \"#utility.yul\":19905:19972   */\n      tag_143\n      jump\t// in\n    tag_370:\n        /* \"#utility.yul\":19898:19972   */\n      swap2\n      pop\n        /* \"#utility.yul\":19981:20074   */\n      tag_371\n        /* \"#utility.yul\":20070:20073   */\n      dup3\n        /* \"#utility.yul\":19981:20074   */\n      tag_170\n      jump\t// in\n    tag_371:\n        /* \"#utility.yul\":20099:20101   */\n      0x20\n        /* \"#utility.yul\":20094:20097   */\n      dup3\n        /* \"#utility.yul\":20090:20102   */\n      add\n        /* \"#utility.yul\":20083:20102   */\n      swap1\n      pop\n        /* \"#utility.yul\":19742:20108   */\n      swap2\n      swap1\n      pop\n      jump\t// out\n        /* \"#utility.yul\":20114:20533   */\n    tag_64:\n        /* \"#utility.yul\":20280:20284   */\n      0x00\n        /* \"#utility.yul\":20318:20320   */\n      0x20\n        /* \"#utility.yul\":20307:20316   */\n      dup3\n        /* \"#utility.yul\":20303:20321   */\n      add\n        /* \"#utility.yul\":20295:20321   */\n      swap1\n      pop\n        /* \"#utility.yul\":20367:20376   */\n      dup2\n        /* \"#utility.yul\":20361:20365   */\n      dup2\n        /* \"#utility.yul\":20357:20377   */\n      sub\n        /* \"#utility.yul\":20353:20354   */\n      0x00\n        /* \"#utility.yul\":20342:20351   */\n      dup4\n        /* \"#utility.yul\":20338:20355   */\n      add\n        /* \"#utility.yul\":20331:20378   */\n      mstore\n        /* \"#utility.yul\":20395:20526   */\n      tag_373\n        /* \"#utility.yul\":20521:20525   */\n      dup2\n        /* \"#utility.yul\":20395:20526   */\n      tag_171\n      jump\t// in\n    tag_373:\n        /* \"#utility.yul\":20387:20526   */\n      swap1\n      pop\n        /* \"#utility.yul\":20114:20533   */\n      swap2\n      swap1\n      pop\n      jump\t// out\n        /* \"#utility.yul\":20539:20871   */\n    tag_69:\n        /* \"#utility.yul\":20660:20664   */\n      0x00\n        /* \"#utility.yul\":20698:20700   */\n      0x40\n        /* \"#utility.yul\":20687:20696   */\n      dup3\n        /* \"#utility.yul\":20683:20701   */\n      add\n        /* \"#utility.yul\":20675:20701   */\n      swap1\n      pop\n        /* \"#utility.yul\":20711:20782   */\n      tag_375\n        /* \"#utility.yul\":20779:20780   */\n      0x00\n        /* \"#utility.yul\":20768:20777   */\n      dup4\n        /* \"#utility.yul\":20764:20781   */\n      add\n        /* \"#utility.yul\":20755:20761   */\n      dup6\n        /* \"#utility.yul\":20711:20782   */\n      tag_166\n      jump\t// in\n    tag_375:\n        /* \"#utility.yul\":20792:20864   */\n      tag_376\n        /* \"#utility.yul\":20860:20862   */\n      0x20\n        /* \"#utility.yul\":20849:20858   */\n      dup4\n        /* \"#utility.yul\":20845:20863   */\n      add\n        /* \"#utility.yul\":20836:20842   */\n      dup5\n        /* \"#utility.yul\":20792:20864   */\n      tag_167\n      jump\t// in\n    tag_376:\n        /* \"#utility.yul\":20539:20871   */\n      swap4\n      swap3\n      pop\n      pop\n      pop\n      jump\t// out\n        /* \"#utility.yul\":20877:21041   */\n    tag_172:\n        /* \"#utility.yul\":21017:21033   */\n      0x4e6f204e6f746573204164646564000000000000000000000000000000000000\n        /* \"#utility.yul\":21013:21014   */\n      0x00\n        /* \"#utility.yul\":21005:21011   */\n      dup3\n        /* \"#utility.yul\":21001:21015   */\n      add\n        /* \"#utility.yul\":20994:21034   */\n      mstore\n        /* \"#utility.yul\":20877:21041   */\n      pop\n      jump\t// out\n        /* \"#utility.yul\":21047:21413   */\n    tag_173:\n        /* \"#utility.yul\":21189:21192   */\n      0x00\n        /* \"#utility.yul\":21210:21277   */\n      tag_379\n        /* \"#utility.yul\":21274:21276   */\n      0x0e\n        /* \"#utility.yul\":21269:21272   */\n      dup4\n        /* \"#utility.yul\":21210:21277   */\n      tag_143\n      jump\t// in\n    tag_379:\n        /* \"#utility.yul\":21203:21277   */\n      swap2\n      pop\n        /* \"#utility.yul\":21286:21379   */\n      tag_380\n        /* \"#utility.yul\":21375:21378   */\n      dup3\n        /* \"#utility.yul\":21286:21379   */\n      tag_172\n      jump\t// in\n    tag_380:\n        /* \"#utility.yul\":21404:21406   */\n      0x20\n        /* \"#utility.yul\":21399:21402   */\n      dup3\n        /* \"#utility.yul\":21395:21407   */\n      add\n        /* \"#utility.yul\":21388:21407   */\n      swap1\n      pop\n        /* \"#utility.yul\":21047:21413   */\n      swap2\n      swap1\n      pop\n      jump\t// out\n        /* \"#utility.yul\":21419:21838   */\n    tag_73:\n        /* \"#utility.yul\":21585:21589   */\n      0x00\n        /* \"#utility.yul\":21623:21625   */\n      0x20\n        /* \"#utility.yul\":21612:21621   */\n      dup3\n        /* \"#utility.yul\":21608:21626   */\n      add\n        /* \"#utility.yul\":21600:21626   */\n      swap1\n      pop\n        /* \"#utility.yul\":21672:21681   */\n      dup2\n        /* \"#utility.yul\":21666:21670   */\n      dup2\n        /* \"#utility.yul\":21662:21682   */\n      sub\n        /* \"#utility.yul\":21658:21659   */\n      0x00\n        /* \"#utility.yul\":21647:21656   */\n      dup4\n        /* \"#utility.yul\":21643:21660   */\n      add\n        /* \"#utility.yul\":21636:21683   */\n      mstore\n        /* \"#utility.yul\":21700:21831   */\n      tag_382\n        /* \"#utility.yul\":21826:21830   */\n      dup2\n        /* \"#utility.yul\":21700:21831   */\n      tag_173\n      jump\t// in\n    tag_382:\n        /* \"#utility.yul\":21692:21831   */\n      swap1\n      pop\n        /* \"#utility.yul\":21419:21838   */\n      swap2\n      swap1\n      pop\n      jump\t// out\n        /* \"#utility.yul\":21844:22077   */\n    tag_82:\n        /* \"#utility.yul\":21883:21886   */\n      0x00\n        /* \"#utility.yul\":21906:21930   */\n      tag_384\n        /* \"#utility.yul\":21924:21929   */\n      dup3\n        /* \"#utility.yul\":21906:21930   */\n      tag_117\n      jump\t// in\n    tag_384:\n        /* \"#utility.yul\":21897:21930   */\n      swap2\n      pop\n        /* \"#utility.yul\":21952:22018   */\n      0xffffffffffffffffffffffffffffffffffffffffffffffffffffffffffffffff\n        /* \"#utility.yul\":21945:21950   */\n      dup3\n        /* \"#utility.yul\":21942:22019   */\n      sub\n        /* \"#utility.yul\":21939:22042   */\n      tag_385\n      jumpi\n        /* \"#utility.yul\":22022:22040   */\n      tag_386\n      tag_169\n      jump\t// in\n    tag_386:\n        /* \"#utility.yul\":21939:22042   */\n    tag_385:\n        /* \"#utility.yul\":22069:22070   */\n      0x01\n        /* \"#utility.yul\":22062:22067   */\n      dup3\n        /* \"#utility.yul\":22058:22071   */\n      add\n        /* \"#utility.yul\":22051:22071   */\n      swap1\n      pop\n        /* \"#utility.yul\":21844:22077   */\n      swap2\n      swap1\n      pop\n      jump\t// out\n\n    auxdata: 0xa26469706673582212200a2c310bbb6d0c63c3d2f79dd7375c8ebdf1396e53f20a36d262f01290738e5264736f6c634300081e0033\n}\n",
				"bytecode": {
					"linkReferences": {},
					"object": "6080604052348015600e575f5ffd5b506116d78061001c5f395ff3fe608060405234801561000f575f5ffd5b506004361061004a575f3560e01c806309abcd3b1461004e5780632fdccd0b1461006a578063c47177f414610086578063de8f430c146100a2575b5f5ffd5b61006860048036038101906100639190610d10565b6100c0565b005b610084600480360381019061007f9190610d98565b610365565b005b6100a0600480360381019061009b9190610e0e565b61051d565b005b6100aa6106f9565b6040516100b79190610ff7565b60405180910390f35b5f5f3373ffffffffffffffffffffffffffffffffffffffff1673ffffffffffffffffffffffffffffffffffffffff1681526020019081526020015f20805490508310610141576040517f08c379a000000000000000000000000000000000000000000000000000000000815260040161013890611071565b60405180910390fd5b5f5f3373ffffffffffffffffffffffffffffffffffffffff1673ffffffffffffffffffffffffffffffffffffffff1681526020019081526020015f20838154811061018f5761018e61108f565b5b905f5260205f2090600502016003015f9054906101000a900460ff16156101eb576040517f08c379a00000000000000000000000000000000000000000000000000000000081526004016101e290611106565b60405180910390fd5b815f5f3373ffffffffffffffffffffffffffffffffffffffff1673ffffffffffffffffffffffffffffffffffffffff1681526020019081526020015f20848154811061023a5761023961108f565b5b905f5260205f20906005020160010190816102559190611321565b50805f5f3373ffffffffffffffffffffffffffffffffffffffff1673ffffffffffffffffffffffffffffffffffffffff1681526020019081526020015f2084815481106102a5576102a461108f565b5b905f5260205f20906005020160020190816102c09190611321565b50425f5f3373ffffffffffffffffffffffffffffffffffffffff1673ffffffffffffffffffffffffffffffffffffffff1681526020019081526020015f2084815481106103105761030f61108f565b5b905f5260205f209060050201600401819055507f9df81c7ae47948d1c795751938f6355ba1253fe8bfdedb97ef26a066581a89c9338484846040516103589493929190611476565b60405180910390a1505050565b5f5f5f3373ffffffffffffffffffffffffffffffffffffffff1673ffffffffffffffffffffffffffffffffffffffff1681526020019081526020015f208054905090505f5f3373ffffffffffffffffffffffffffffffffffffffff1673ffffffffffffffffffffffffffffffffffffffff1681526020019081526020015f206040518060a001604052808381526020018581526020018481526020015f1515815260200142815250908060018154018082558091505060019003905f5260205f2090600502015f909190919091505f820151815f015560208201518160010190816104509190611321565b5060408201518160020190816104669190611321565b506060820151816003015f6101000a81548160ff0219169083151502179055506080820151816004015550507f761c253c0f58cd3b81a17602ed6f3aaf892b25d833ac1ddfa099fae225a7d1a6338460015f5f3373ffffffffffffffffffffffffffffffffffffffff1673ffffffffffffffffffffffffffffffffffffffff1681526020019081526020015f208054905061050191906114f4565b60405161051093929190611527565b60405180910390a1505050565b5f5f3373ffffffffffffffffffffffffffffffffffffffff1673ffffffffffffffffffffffffffffffffffffffff1681526020019081526020015f2080549050811061059e576040517f08c379a000000000000000000000000000000000000000000000000000000000815260040161059590611071565b60405180910390fd5b5f5f3373ffffffffffffffffffffffffffffffffffffffff1673ffffffffffffffffffffffffffffffffffffffff1681526020019081526020015f2081815481106105ec576105eb61108f565b5b905f5260205f2090600502016003015f9054906101000a900460ff1615610648576040517f08c379a000000000000000000000000000000000000000000000000000000000815260040161063f906115ad565b60405180910390fd5b60015f5f3373ffffffffffffffffffffffffffffffffffffffff1673ffffffffffffffffffffffffffffffffffffffff1681526020019081526020015f2082815481106106985761069761108f565b5b905f5260205f2090600502016003015f6101000a81548160ff0219169083151502179055507fd651c969182e88c5ff4634f7f1e399568a1abbc781c0bbe2153e52edf0ea9cf833826040516106ee9291906115cb565b60405180910390a150565b60605f5f5f3373ffffffffffffffffffffffffffffffffffffffff1673ffffffffffffffffffffffffffffffffffffffff1681526020019081526020015f20805490500361077c576040517f08c379a00000000000000000000000000000000000000000000000000000000081526004016107739061163c565b60405180910390fd5b5f5f90505f5f90505b5f5f3373ffffffffffffffffffffffffffffffffffffffff1673ffffffffffffffffffffffffffffffffffffffff1681526020019081526020015f2080549050811015610856575f5f3373ffffffffffffffffffffffffffffffffffffffff1673ffffffffffffffffffffffffffffffffffffffff1681526020019081526020015f20818154811061081a5761081961108f565b5b905f5260205f2090600502016003015f9054906101000a900460ff166108495781806108459061165a565b9250505b8080600101915050610785565b505f8167ffffffffffffffff81111561087257610871610bec565b5b6040519080825280602002602001820160405280156108ab57816020015b610898610b62565b8152602001906001900390816108905790505b5090505f5f90505f5f90505b5f5f3373ffffffffffffffffffffffffffffffffffffffff1673ffffffffffffffffffffffffffffffffffffffff1681526020019081526020015f2080549050811015610b58575f5f3373ffffffffffffffffffffffffffffffffffffffff1673ffffffffffffffffffffffffffffffffffffffff1681526020019081526020015f20818154811061094c5761094b61108f565b5b905f5260205f2090600502016003015f9054906101000a900460ff16610b4b575f5f3373ffffffffffffffffffffffffffffffffffffffff1673ffffffffffffffffffffffffffffffffffffffff1681526020019081526020015f2081815481106109ba576109b961108f565b5b905f5260205f2090600502016040518060a00160405290815f82015481526020016001820180546109ea90611151565b80601f0160208091040260200160405190810160405280929190818152602001828054610a1690611151565b8015610a615780601f10610a3857610100808354040283529160200191610a61565b820191905f5260205f20905b815481529060010190602001808311610a4457829003601f168201915b50505050508152602001600282018054610a7a90611151565b80601f0160208091040260200160405190810160405280929190818152602001828054610aa690611151565b8015610af15780601f10610ac857610100808354040283529160200191610af1565b820191905f5260205f20905b815481529060010190602001808311610ad457829003601f168201915b50505050508152602001600382015f9054906101000a900460ff16151515158152602001600482015481525050838381518110610b3157610b3061108f565b5b60200260200101819052508180610b479061165a565b9250505b80806001019150506108b7565b5081935050505090565b6040518060a001604052805f815260200160608152602001606081526020015f151581526020015f81525090565b5f604051905090565b5f5ffd5b5f5ffd5b5f819050919050565b610bb381610ba1565b8114610bbd575f5ffd5b50565b5f81359050610bce81610baa565b92915050565b5f5ffd5b5f5ffd5b5f601f19601f8301169050919050565b7f4e487b71000000000000000000000000000000000000000000000000000000005f52604160045260245ffd5b610c2282610bdc565b810181811067ffffffffffffffff82111715610c4157610c40610bec565b5b80604052505050565b5f610c53610b90565b9050610c5f8282610c19565b919050565b5f67ffffffffffffffff821115610c7e57610c7d610bec565b5b610c8782610bdc565b9050602081019050919050565b828183375f83830152505050565b5f610cb4610caf84610c64565b610c4a565b905082815260208101848484011115610cd057610ccf610bd8565b5b610cdb848285610c94565b509392505050565b5f82601f830112610cf757610cf6610bd4565b5b8135610d07848260208601610ca2565b91505092915050565b5f5f5f60608486031215610d2757610d26610b99565b5b5f610d3486828701610bc0565b935050602084013567ffffffffffffffff811115610d5557610d54610b9d565b5b610d6186828701610ce3565b925050604084013567ffffffffffffffff811115610d8257610d81610b9d565b5b610d8e86828701610ce3565b9150509250925092565b5f5f60408385031215610dae57610dad610b99565b5b5f83013567ffffffffffffffff811115610dcb57610dca610b9d565b5b610dd785828601610ce3565b925050602083013567ffffffffffffffff811115610df857610df7610b9d565b5b610e0485828601610ce3565b9150509250929050565b5f60208284031215610e2357610e22610b99565b5b5f610e3084828501610bc0565b91505092915050565b5f81519050919050565b5f82825260208201905092915050565b5f819050602082019050919050565b610e6b81610ba1565b82525050565b5f81519050919050565b5f82825260208201905092915050565b8281835e5f83830152505050565b5f610ea382610e71565b610ead8185610e7b565b9350610ebd818560208601610e8b565b610ec681610bdc565b840191505092915050565b5f8115159050919050565b610ee581610ed1565b82525050565b5f60a083015f830151610f005f860182610e62565b5060208301518482036020860152610f188282610e99565b91505060408301518482036040860152610f328282610e99565b9150506060830151610f476060860182610edc565b506080830151610f5a6080860182610e62565b508091505092915050565b5f610f708383610eeb565b905092915050565b5f602082019050919050565b5f610f8e82610e39565b610f988185610e43565b935083602082028501610faa85610e53565b805f5b85811015610fe55784840389528151610fc68582610f65565b9450610fd183610f78565b925060208a01995050600181019050610fad565b50829750879550505050505092915050565b5f6020820190508181035f83015261100f8184610f84565b905092915050565b5f82825260208201905092915050565b7f496e76616c696420496e646578000000000000000000000000000000000000005f82015250565b5f61105b600d83611017565b915061106682611027565b602082019050919050565b5f6020820190508181035f8301526110888161104f565b9050919050565b7f4e487b71000000000000000000000000000000000000000000000000000000005f52603260045260245ffd5b7f4e6f74652044656c6574656400000000000000000000000000000000000000005f82015250565b5f6110f0600c83611017565b91506110fb826110bc565b602082019050919050565b5f6020820190508181035f83015261111d816110e4565b9050919050565b7f4e487b71000000000000000000000000000000000000000000000000000000005f52602260045260245ffd5b5f600282049050600182168061116857607f821691505b60208210810361117b5761117a611124565b5b50919050565b5f819050815f5260205f209050919050565b5f6020601f8301049050919050565b5f82821b905092915050565b5f600883026111dd7fffffffffffffffffffffffffffffffffffffffffffffffffffffffffffffffff826111a2565b6111e786836111a2565b95508019841693508086168417925050509392505050565b5f819050919050565b5f61122261121d61121884610ba1565b6111ff565b610ba1565b9050919050565b5f819050919050565b61123b83611208565b61124f61124782611229565b8484546111ae565b825550505050565b5f5f905090565b611266611257565b611271818484611232565b505050565b5b81811015611294576112895f8261125e565b600181019050611277565b5050565b601f8211156112d9576112aa81611181565b6112b384611193565b810160208510156112c2578190505b6112d66112ce85611193565b830182611276565b50505b505050565b5f82821c905092915050565b5f6112f95f19846008026112de565b1980831691505092915050565b5f61131183836112ea565b9150826002028217905092915050565b61132a82610e71565b67ffffffffffffffff81111561134357611342610bec565b5b61134d8254611151565b611358828285611298565b5f60209050601f831160018114611389575f8415611377578287015190505b6113818582611306565b8655506113e8565b601f19841661139786611181565b5f5b828110156113be57848901518255600182019150602085019450602081019050611399565b868310156113db57848901516113d7601f8916826112ea565b8355505b6001600288020188555050505b505050505050565b5f73ffffffffffffffffffffffffffffffffffffffff82169050919050565b5f611419826113f0565b9050919050565b6114298161140f565b82525050565b61143881610ba1565b82525050565b5f61144882610e71565b6114528185611017565b9350611462818560208601610e8b565b61146b81610bdc565b840191505092915050565b5f6080820190506114895f830187611420565b611496602083018661142f565b81810360408301526114a8818561143e565b905081810360608301526114bc818461143e565b905095945050505050565b7f4e487b71000000000000000000000000000000000000000000000000000000005f52601160045260245ffd5b5f6114fe82610ba1565b915061150983610ba1565b9250828203905081811115611521576115206114c7565b5b92915050565b5f60608201905061153a5f830186611420565b818103602083015261154c818561143e565b905061155b604083018461142f565b949350505050565b7f4e6f746520416c72656164792044656c657465642100000000000000000000005f82015250565b5f611597601583611017565b91506115a282611563565b602082019050919050565b5f6020820190508181035f8301526115c48161158b565b9050919050565b5f6040820190506115de5f830185611420565b6115eb602083018461142f565b9392505050565b7f4e6f204e6f7465732041646465640000000000000000000000000000000000005f82015250565b5f611626600e83611017565b9150611631826115f2565b602082019050919050565b5f6020820190508181035f8301526116538161161a565b9050919050565b5f61166482610ba1565b91507fffffffffffffffffffffffffffffffffffffffffffffffffffffffffffffffff8203611696576116956114c7565b5b60018201905091905056fea26469706673582212200a2c310bbb6d0c63c3d2f79dd7375c8ebdf1396e53f20a36d262f01290738e5264736f6c634300081e0033",
					"opcodes": "PUSH1 0x80 PUSH1 0x40 MSTORE CALLVALUE DUP1 ISZERO PUSH1 0xE JUMPI PUSH0 PUSH0 REVERT JUMPDEST POP PUSH2 0x16D7 DUP1 PUSH2 0x1C PUSH0 CODECOPY PUSH0 RETURN INVALID PUSH1 0x80 PUSH1 0x40 MSTORE CALLVALUE DUP1 ISZERO PUSH2 0xF JUMPI PUSH0 PUSH0 REVERT JUMPDEST POP PUSH1 0x4 CALLDATASIZE LT PUSH2 0x4A JUMPI PUSH0 CALLDATALOAD PUSH1 0xE0 SHR DUP1 PUSH4 0x9ABCD3B EQ PUSH2 0x4E JUMPI DUP1 PUSH4 0x2FDCCD0B EQ PUSH2 0x6A JUMPI DUP1 PUSH4 0xC47177F4 EQ PUSH2 0x86 JUMPI DUP1 PUSH4 0xDE8F430C EQ PUSH2 0xA2 JUMPI JUMPDEST PUSH0 PUSH0 REVERT JUMPDEST PUSH2 0x68 PUSH1 0x4 DUP1 CALLDATASIZE SUB DUP2 ADD SWAP1 PUSH2 0x63 SWAP2 SWAP1 PUSH2 0xD10 JUMP JUMPDEST PUSH2 0xC0 JUMP JUMPDEST STOP JUMPDEST PUSH2 0x84 PUSH1 0x4 DUP1 CALLDATASIZE SUB DUP2 ADD SWAP1 PUSH2 0x7F SWAP2 SWAP1 PUSH2 0xD98 JUMP JUMPDEST PUSH2 0x365 JUMP JUMPDEST STOP JUMPDEST PUSH2 0xA0 PUSH1 0x4 DUP1 CALLDATASIZE SUB DUP2 ADD SWAP1 PUSH2 0x9B SWAP2 SWAP1 PUSH2 0xE0E JUMP JUMPDEST PUSH2 0x51D JUMP JUMPDEST STOP JUMPDEST PUSH2 0xAA PUSH2 0x6F9 JUMP JUMPDEST PUSH1 0x40 MLOAD PUSH2 0xB7 SWAP2 SWAP1 PUSH2 0xFF7 JUMP JUMPDEST PUSH1 0x40 MLOAD DUP1 SWAP2 SUB SWAP1 RETURN JUMPDEST PUSH0 PUSH0 CALLER PUSH20 0xFFFFFFFFFFFFFFFFFFFFFFFFFFFFFFFFFFFFFFFF AND PUSH20 0xFFFFFFFFFFFFFFFFFFFFFFFFFFFFFFFFFFFFFFFF AND DUP2 MSTORE PUSH1 0x20 ADD SWAP1 DUP2 MSTORE PUSH1 0x20 ADD PUSH0 KECCAK256 DUP1 SLOAD SWAP1 POP DUP4 LT PUSH2 0x141 JUMPI PUSH1 0x40 MLOAD PUSH32 0x8C379A000000000000000000000000000000000000000000000000000000000 DUP2 MSTORE PUSH1 0x4 ADD PUSH2 0x138 SWAP1 PUSH2 0x1071 JUMP JUMPDEST PUSH1 0x40 MLOAD DUP1 SWAP2 SUB SWAP1 REVERT JUMPDEST PUSH0 PUSH0 CALLER PUSH20 0xFFFFFFFFFFFFFFFFFFFFFFFFFFFFFFFFFFFFFFFF AND PUSH20 0xFFFFFFFFFFFFFFFFFFFFFFFFFFFFFFFFFFFFFFFF AND DUP2 MSTORE PUSH1 0x20 ADD SWAP1 DUP2 MSTORE PUSH1 0x20 ADD PUSH0 KECCAK256 DUP4 DUP2 SLOAD DUP2 LT PUSH2 0x18F JUMPI PUSH2 0x18E PUSH2 0x108F JUMP JUMPDEST JUMPDEST SWAP1 PUSH0 MSTORE PUSH1 0x20 PUSH0 KECCAK256 SWAP1 PUSH1 0x5 MUL ADD PUSH1 0x3 ADD PUSH0 SWAP1 SLOAD SWAP1 PUSH2 0x100 EXP SWAP1 DIV PUSH1 0xFF AND ISZERO PUSH2 0x1EB JUMPI PUSH1 0x40 MLOAD PUSH32 0x8C379A000000000000000000000000000000000000000000000000000000000 DUP2 MSTORE PUSH1 0x4 ADD PUSH2 0x1E2 SWAP1 PUSH2 0x1106 JUMP JUMPDEST PUSH1 0x40 MLOAD DUP1 SWAP2 SUB SWAP1 REVERT JUMPDEST DUP2 PUSH0 PUSH0 CALLER PUSH20 0xFFFFFFFFFFFFFFFFFFFFFFFFFFFFFFFFFFFFFFFF AND PUSH20 0xFFFFFFFFFFFFFFFFFFFFFFFFFFFFFFFFFFFFFFFF AND DUP2 MSTORE PUSH1 0x20 ADD SWAP1 DUP2 MSTORE PUSH1 0x20 ADD PUSH0 KECCAK256 DUP5 DUP2 SLOAD DUP2 LT PUSH2 0x23A JUMPI PUSH2 0x239 PUSH2 0x108F JUMP JUMPDEST JUMPDEST SWAP1 PUSH0 MSTORE PUSH1 0x20 PUSH0 KECCAK256 SWAP1 PUSH1 0x5 MUL ADD PUSH1 0x1 ADD SWAP1 DUP2 PUSH2 0x255 SWAP2 SWAP1 PUSH2 0x1321 JUMP JUMPDEST POP DUP1 PUSH0 PUSH0 CALLER PUSH20 0xFFFFFFFFFFFFFFFFFFFFFFFFFFFFFFFFFFFFFFFF AND PUSH20 0xFFFFFFFFFFFFFFFFFFFFFFFFFFFFFFFFFFFFFFFF AND DUP2 MSTORE PUSH1 0x20 ADD SWAP1 DUP2 MSTORE PUSH1 0x20 ADD PUSH0 KECCAK256 DUP5 DUP2 SLOAD DUP2 LT PUSH2 0x2A5 JUMPI PUSH2 0x2A4 PUSH2 0x108F JUMP JUMPDEST JUMPDEST SWAP1 PUSH0 MSTORE PUSH1 0x20 PUSH0 KECCAK256 SWAP1 PUSH1 0x5 MUL ADD PUSH1 0x2 ADD SWAP1 DUP2 PUSH2 0x2C0 SWAP2 SWAP1 PUSH2 0x1321 JUMP JUMPDEST POP TIMESTAMP PUSH0 PUSH0 CALLER PUSH20 0xFFFFFFFFFFFFFFFFFFFFFFFFFFFFFFFFFFFFFFFF AND PUSH20 0xFFFFFFFFFFFFFFFFFFFFFFFFFFFFFFFFFFFFFFFF AND DUP2 MSTORE PUSH1 0x20 ADD SWAP1 DUP2 MSTORE PUSH1 0x20 ADD PUSH0 KECCAK256 DUP5 DUP2 SLOAD DUP2 LT PUSH2 0x310 JUMPI PUSH2 0x30F PUSH2 0x108F JUMP JUMPDEST JUMPDEST SWAP1 PUSH0 MSTORE PUSH1 0x20 PUSH0 KECCAK256 SWAP1 PUSH1 0x5 MUL ADD PUSH1 0x4 ADD DUP2 SWAP1 SSTORE POP PUSH32 0x9DF81C7AE47948D1C795751938F6355BA1253FE8BFDEDB97EF26A066581A89C9 CALLER DUP5 DUP5 DUP5 PUSH1 0x40 MLOAD PUSH2 0x358 SWAP5 SWAP4 SWAP3 SWAP2 SWAP1 PUSH2 0x1476 JUMP JUMPDEST PUSH1 0x40 MLOAD DUP1 SWAP2 SUB SWAP1 LOG1 POP POP POP JUMP JUMPDEST PUSH0 PUSH0 PUSH0 CALLER PUSH20 0xFFFFFFFFFFFFFFFFFFFFFFFFFFFFFFFFFFFFFFFF AND PUSH20 0xFFFFFFFFFFFFFFFFFFFFFFFFFFFFFFFFFFFFFFFF AND DUP2 MSTORE PUSH1 0x20 ADD SWAP1 DUP2 MSTORE PUSH1 0x20 ADD PUSH0 KECCAK256 DUP1 SLOAD SWAP1 POP SWAP1 POP PUSH0 PUSH0 CALLER PUSH20 0xFFFFFFFFFFFFFFFFFFFFFFFFFFFFFFFFFFFFFFFF AND PUSH20 0xFFFFFFFFFFFFFFFFFFFFFFFFFFFFFFFFFFFFFFFF AND DUP2 MSTORE PUSH1 0x20 ADD SWAP1 DUP2 MSTORE PUSH1 0x20 ADD PUSH0 KECCAK256 PUSH1 0x40 MLOAD DUP1 PUSH1 0xA0 ADD PUSH1 0x40 MSTORE DUP1 DUP4 DUP2 MSTORE PUSH1 0x20 ADD DUP6 DUP2 MSTORE PUSH1 0x20 ADD DUP5 DUP2 MSTORE PUSH1 0x20 ADD PUSH0 ISZERO ISZERO DUP2 MSTORE PUSH1 0x20 ADD TIMESTAMP DUP2 MSTORE POP SWAP1 DUP1 PUSH1 0x1 DUP2 SLOAD ADD DUP1 DUP3 SSTORE DUP1 SWAP2 POP POP PUSH1 0x1 SWAP1 SUB SWAP1 PUSH0 MSTORE PUSH1 0x20 PUSH0 KECCAK256 SWAP1 PUSH1 0x5 MUL ADD PUSH0 SWAP1 SWAP2 SWAP1 SWAP2 SWAP1 SWAP2 POP PUSH0 DUP3 ADD MLOAD DUP2 PUSH0 ADD SSTORE PUSH1 0x20 DUP3 ADD MLOAD DUP2 PUSH1 0x1 ADD SWAP1 DUP2 PUSH2 0x450 SWAP2 SWAP1 PUSH2 0x1321 JUMP JUMPDEST POP PUSH1 0x40 DUP3 ADD MLOAD DUP2 PUSH1 0x2 ADD SWAP1 DUP2 PUSH2 0x466 SWAP2 SWAP1 PUSH2 0x1321 JUMP JUMPDEST POP PUSH1 0x60 DUP3 ADD MLOAD DUP2 PUSH1 0x3 ADD PUSH0 PUSH2 0x100 EXP DUP2 SLOAD DUP2 PUSH1 0xFF MUL NOT AND SWAP1 DUP4 ISZERO ISZERO MUL OR SWAP1 SSTORE POP PUSH1 0x80 DUP3 ADD MLOAD DUP2 PUSH1 0x4 ADD SSTORE POP POP PUSH32 0x761C253C0F58CD3B81A17602ED6F3AAF892B25D833AC1DDFA099FAE225A7D1A6 CALLER DUP5 PUSH1 0x1 PUSH0 PUSH0 CALLER PUSH20 0xFFFFFFFFFFFFFFFFFFFFFFFFFFFFFFFFFFFFFFFF AND PUSH20 0xFFFFFFFFFFFFFFFFFFFFFFFFFFFFFFFFFFFFFFFF AND DUP2 MSTORE PUSH1 0x20 ADD SWAP1 DUP2 MSTORE PUSH1 0x20 ADD PUSH0 KECCAK256 DUP1 SLOAD SWAP1 POP PUSH2 0x501 SWAP2 SWAP1 PUSH2 0x14F4 JUMP JUMPDEST PUSH1 0x40 MLOAD PUSH2 0x510 SWAP4 SWAP3 SWAP2 SWAP1 PUSH2 0x1527 JUMP JUMPDEST PUSH1 0x40 MLOAD DUP1 SWAP2 SUB SWAP1 LOG1 POP POP POP JUMP JUMPDEST PUSH0 PUSH0 CALLER PUSH20 0xFFFFFFFFFFFFFFFFFFFFFFFFFFFFFFFFFFFFFFFF AND PUSH20 0xFFFFFFFFFFFFFFFFFFFFFFFFFFFFFFFFFFFFFFFF AND DUP2 MSTORE PUSH1 0x20 ADD SWAP1 DUP2 MSTORE PUSH1 0x20 ADD PUSH0 KECCAK256 DUP1 SLOAD SWAP1 POP DUP2 LT PUSH2 0x59E JUMPI PUSH1 0x40 MLOAD PUSH32 0x8C379A000000000000000000000000000000000000000000000000000000000 DUP2 MSTORE PUSH1 0x4 ADD PUSH2 0x595 SWAP1 PUSH2 0x1071 JUMP JUMPDEST PUSH1 0x40 MLOAD DUP1 SWAP2 SUB SWAP1 REVERT JUMPDEST PUSH0 PUSH0 CALLER PUSH20 0xFFFFFFFFFFFFFFFFFFFFFFFFFFFFFFFFFFFFFFFF AND PUSH20 0xFFFFFFFFFFFFFFFFFFFFFFFFFFFFFFFFFFFFFFFF AND DUP2 MSTORE PUSH1 0x20 ADD SWAP1 DUP2 MSTORE PUSH1 0x20 ADD PUSH0 KECCAK256 DUP2 DUP2 SLOAD DUP2 LT PUSH2 0x5EC JUMPI PUSH2 0x5EB PUSH2 0x108F JUMP JUMPDEST JUMPDEST SWAP1 PUSH0 MSTORE PUSH1 0x20 PUSH0 KECCAK256 SWAP1 PUSH1 0x5 MUL ADD PUSH1 0x3 ADD PUSH0 SWAP1 SLOAD SWAP1 PUSH2 0x100 EXP SWAP1 DIV PUSH1 0xFF AND ISZERO PUSH2 0x648 JUMPI PUSH1 0x40 MLOAD PUSH32 0x8C379A000000000000000000000000000000000000000000000000000000000 DUP2 MSTORE PUSH1 0x4 ADD PUSH2 0x63F SWAP1 PUSH2 0x15AD JUMP JUMPDEST PUSH1 0x40 MLOAD DUP1 SWAP2 SUB SWAP1 REVERT JUMPDEST PUSH1 0x1 PUSH0 PUSH0 CALLER PUSH20 0xFFFFFFFFFFFFFFFFFFFFFFFFFFFFFFFFFFFFFFFF AND PUSH20 0xFFFFFFFFFFFFFFFFFFFFFFFFFFFFFFFFFFFFFFFF AND DUP2 MSTORE PUSH1 0x20 ADD SWAP1 DUP2 MSTORE PUSH1 0x20 ADD PUSH0 KECCAK256 DUP3 DUP2 SLOAD DUP2 LT PUSH2 0x698 JUMPI PUSH2 0x697 PUSH2 0x108F JUMP JUMPDEST JUMPDEST SWAP1 PUSH0 MSTORE PUSH1 0x20 PUSH0 KECCAK256 SWAP1 PUSH1 0x5 MUL ADD PUSH1 0x3 ADD PUSH0 PUSH2 0x100 EXP DUP2 SLOAD DUP2 PUSH1 0xFF MUL NOT AND SWAP1 DUP4 ISZERO ISZERO MUL OR SWAP1 SSTORE POP PUSH32 0xD651C969182E88C5FF4634F7F1E399568A1ABBC781C0BBE2153E52EDF0EA9CF8 CALLER DUP3 PUSH1 0x40 MLOAD PUSH2 0x6EE SWAP3 SWAP2 SWAP1 PUSH2 0x15CB JUMP JUMPDEST PUSH1 0x40 MLOAD DUP1 SWAP2 SUB SWAP1 LOG1 POP JUMP JUMPDEST PUSH1 0x60 PUSH0 PUSH0 PUSH0 CALLER PUSH20 0xFFFFFFFFFFFFFFFFFFFFFFFFFFFFFFFFFFFFFFFF AND PUSH20 0xFFFFFFFFFFFFFFFFFFFFFFFFFFFFFFFFFFFFFFFF AND DUP2 MSTORE PUSH1 0x20 ADD SWAP1 DUP2 MSTORE PUSH1 0x20 ADD PUSH0 KECCAK256 DUP1 SLOAD SWAP1 POP SUB PUSH2 0x77C JUMPI PUSH1 0x40 MLOAD PUSH32 0x8C379A000000000000000000000000000000000000000000000000000000000 DUP2 MSTORE PUSH1 0x4 ADD PUSH2 0x773 SWAP1 PUSH2 0x163C JUMP JUMPDEST PUSH1 0x40 MLOAD DUP1 SWAP2 SUB SWAP1 REVERT JUMPDEST PUSH0 PUSH0 SWAP1 POP PUSH0 PUSH0 SWAP1 POP JUMPDEST PUSH0 PUSH0 CALLER PUSH20 0xFFFFFFFFFFFFFFFFFFFFFFFFFFFFFFFFFFFFFFFF AND PUSH20 0xFFFFFFFFFFFFFFFFFFFFFFFFFFFFFFFFFFFFFFFF AND DUP2 MSTORE PUSH1 0x20 ADD SWAP1 DUP2 MSTORE PUSH1 0x20 ADD PUSH0 KECCAK256 DUP1 SLOAD SWAP1 POP DUP2 LT ISZERO PUSH2 0x856 JUMPI PUSH0 PUSH0 CALLER PUSH20 0xFFFFFFFFFFFFFFFFFFFFFFFFFFFFFFFFFFFFFFFF AND PUSH20 0xFFFFFFFFFFFFFFFFFFFFFFFFFFFFFFFFFFFFFFFF AND DUP2 MSTORE PUSH1 0x20 ADD SWAP1 DUP2 MSTORE PUSH1 0x20 ADD PUSH0 KECCAK256 DUP2 DUP2 SLOAD DUP2 LT PUSH2 0x81A JUMPI PUSH2 0x819 PUSH2 0x108F JUMP JUMPDEST JUMPDEST SWAP1 PUSH0 MSTORE PUSH1 0x20 PUSH0 KECCAK256 SWAP1 PUSH1 0x5 MUL ADD PUSH1 0x3 ADD PUSH0 SWAP1 SLOAD SWAP1 PUSH2 0x100 EXP SWAP1 DIV PUSH1 0xFF AND PUSH2 0x849 JUMPI DUP2 DUP1 PUSH2 0x845 SWAP1 PUSH2 0x165A JUMP JUMPDEST SWAP3 POP POP JUMPDEST DUP1 DUP1 PUSH1 0x1 ADD SWAP2 POP POP PUSH2 0x785 JUMP JUMPDEST POP PUSH0 DUP2 PUSH8 0xFFFFFFFFFFFFFFFF DUP2 GT ISZERO PUSH2 0x872 JUMPI PUSH2 0x871 PUSH2 0xBEC JUMP JUMPDEST JUMPDEST PUSH1 0x40 MLOAD SWAP1 DUP1 DUP3 MSTORE DUP1 PUSH1 0x20 MUL PUSH1 0x20 ADD DUP3 ADD PUSH1 0x40 MSTORE DUP1 ISZERO PUSH2 0x8AB JUMPI DUP2 PUSH1 0x20 ADD JUMPDEST PUSH2 0x898 PUSH2 0xB62 JUMP JUMPDEST DUP2 MSTORE PUSH1 0x20 ADD SWAP1 PUSH1 0x1 SWAP1 SUB SWAP1 DUP2 PUSH2 0x890 JUMPI SWAP1 POP JUMPDEST POP SWAP1 POP PUSH0 PUSH0 SWAP1 POP PUSH0 PUSH0 SWAP1 POP JUMPDEST PUSH0 PUSH0 CALLER PUSH20 0xFFFFFFFFFFFFFFFFFFFFFFFFFFFFFFFFFFFFFFFF AND PUSH20 0xFFFFFFFFFFFFFFFFFFFFFFFFFFFFFFFFFFFFFFFF AND DUP2 MSTORE PUSH1 0x20 ADD SWAP1 DUP2 MSTORE PUSH1 0x20 ADD PUSH0 KECCAK256 DUP1 SLOAD SWAP1 POP DUP2 LT ISZERO PUSH2 0xB58 JUMPI PUSH0 PUSH0 CALLER PUSH20 0xFFFFFFFFFFFFFFFFFFFFFFFFFFFFFFFFFFFFFFFF AND PUSH20 0xFFFFFFFFFFFFFFFFFFFFFFFFFFFFFFFFFFFFFFFF AND DUP2 MSTORE PUSH1 0x20 ADD SWAP1 DUP2 MSTORE PUSH1 0x20 ADD PUSH0 KECCAK256 DUP2 DUP2 SLOAD DUP2 LT PUSH2 0x94C JUMPI PUSH2 0x94B PUSH2 0x108F JUMP JUMPDEST JUMPDEST SWAP1 PUSH0 MSTORE PUSH1 0x20 PUSH0 KECCAK256 SWAP1 PUSH1 0x5 MUL ADD PUSH1 0x3 ADD PUSH0 SWAP1 SLOAD SWAP1 PUSH2 0x100 EXP SWAP1 DIV PUSH1 0xFF AND PUSH2 0xB4B JUMPI PUSH0 PUSH0 CALLER PUSH20 0xFFFFFFFFFFFFFFFFFFFFFFFFFFFFFFFFFFFFFFFF AND PUSH20 0xFFFFFFFFFFFFFFFFFFFFFFFFFFFFFFFFFFFFFFFF AND DUP2 MSTORE PUSH1 0x20 ADD SWAP1 DUP2 MSTORE PUSH1 0x20 ADD PUSH0 KECCAK256 DUP2 DUP2 SLOAD DUP2 LT PUSH2 0x9BA JUMPI PUSH2 0x9B9 PUSH2 0x108F JUMP JUMPDEST JUMPDEST SWAP1 PUSH0 MSTORE PUSH1 0x20 PUSH0 KECCAK256 SWAP1 PUSH1 0x5 MUL ADD PUSH1 0x40 MLOAD DUP1 PUSH1 0xA0 ADD PUSH1 0x40 MSTORE SWAP1 DUP2 PUSH0 DUP3 ADD SLOAD DUP2 MSTORE PUSH1 0x20 ADD PUSH1 0x1 DUP3 ADD DUP1 SLOAD PUSH2 0x9EA SWAP1 PUSH2 0x1151 JUMP JUMPDEST DUP1 PUSH1 0x1F ADD PUSH1 0x20 DUP1 SWAP2 DIV MUL PUSH1 0x20 ADD PUSH1 0x40 MLOAD SWAP1 DUP2 ADD PUSH1 0x40 MSTORE DUP1 SWAP3 SWAP2 SWAP1 DUP2 DUP2 MSTORE PUSH1 0x20 ADD DUP3 DUP1 SLOAD PUSH2 0xA16 SWAP1 PUSH2 0x1151 JUMP JUMPDEST DUP1 ISZERO PUSH2 0xA61 JUMPI DUP1 PUSH1 0x1F LT PUSH2 0xA38 JUMPI PUSH2 0x100 DUP1 DUP4 SLOAD DIV MUL DUP4 MSTORE SWAP2 PUSH1 0x20 ADD SWAP2 PUSH2 0xA61 JUMP JUMPDEST DUP3 ADD SWAP2 SWAP1 PUSH0 MSTORE PUSH1 0x20 PUSH0 KECCAK256 SWAP1 JUMPDEST DUP2 SLOAD DUP2 MSTORE SWAP1 PUSH1 0x1 ADD SWAP1 PUSH1 0x20 ADD DUP1 DUP4 GT PUSH2 0xA44 JUMPI DUP3 SWAP1 SUB PUSH1 0x1F AND DUP3 ADD SWAP2 JUMPDEST POP POP POP POP POP DUP2 MSTORE PUSH1 0x20 ADD PUSH1 0x2 DUP3 ADD DUP1 SLOAD PUSH2 0xA7A SWAP1 PUSH2 0x1151 JUMP JUMPDEST DUP1 PUSH1 0x1F ADD PUSH1 0x20 DUP1 SWAP2 DIV MUL PUSH1 0x20 ADD PUSH1 0x40 MLOAD SWAP1 DUP2 ADD PUSH1 0x40 MSTORE DUP1 SWAP3 SWAP2 SWAP1 DUP2 DUP2 MSTORE PUSH1 0x20 ADD DUP3 DUP1 SLOAD PUSH2 0xAA6 SWAP1 PUSH2 0x1151 JUMP JUMPDEST DUP1 ISZERO PUSH2 0xAF1 JUMPI DUP1 PUSH1 0x1F LT PUSH2 0xAC8 JUMPI PUSH2 0x100 DUP1 DUP4 SLOAD DIV MUL DUP4 MSTORE SWAP2 PUSH1 0x20 ADD SWAP2 PUSH2 0xAF1 JUMP JUMPDEST DUP3 ADD SWAP2 SWAP1 PUSH0 MSTORE PUSH1 0x20 PUSH0 KECCAK256 SWAP1 JUMPDEST DUP2 SLOAD DUP2 MSTORE SWAP1 PUSH1 0x1 ADD SWAP1 PUSH1 0x20 ADD DUP1 DUP4 GT PUSH2 0xAD4 JUMPI DUP3 SWAP1 SUB PUSH1 0x1F AND DUP3 ADD SWAP2 JUMPDEST POP POP POP POP POP DUP2 MSTORE PUSH1 0x20 ADD PUSH1 0x3 DUP3 ADD PUSH0 SWAP1 SLOAD SWAP1 PUSH2 0x100 EXP SWAP1 DIV PUSH1 0xFF AND ISZERO ISZERO ISZERO ISZERO DUP2 MSTORE PUSH1 0x20 ADD PUSH1 0x4 DUP3 ADD SLOAD DUP2 MSTORE POP POP DUP4 DUP4 DUP2 MLOAD DUP2 LT PUSH2 0xB31 JUMPI PUSH2 0xB30 PUSH2 0x108F JUMP JUMPDEST JUMPDEST PUSH1 0x20 MUL PUSH1 0x20 ADD ADD DUP2 SWAP1 MSTORE POP DUP2 DUP1 PUSH2 0xB47 SWAP1 PUSH2 0x165A JUMP JUMPDEST SWAP3 POP POP JUMPDEST DUP1 DUP1 PUSH1 0x1 ADD SWAP2 POP POP PUSH2 0x8B7 JUMP JUMPDEST POP DUP2 SWAP4 POP POP POP POP SWAP1 JUMP JUMPDEST PUSH1 0x40 MLOAD DUP1 PUSH1 0xA0 ADD PUSH1 0x40 MSTORE DUP1 PUSH0 DUP2 MSTORE PUSH1 0x20 ADD PUSH1 0x60 DUP2 MSTORE PUSH1 0x20 ADD PUSH1 0x60 DUP2 MSTORE PUSH1 0x20 ADD PUSH0 ISZERO ISZERO DUP2 MSTORE PUSH1 0x20 ADD PUSH0 DUP2 MSTORE POP SWAP1 JUMP JUMPDEST PUSH0 PUSH1 0x40 MLOAD SWAP1 POP SWAP1 JUMP JUMPDEST PUSH0 PUSH0 REVERT JUMPDEST PUSH0 PUSH0 REVERT JUMPDEST PUSH0 DUP2 SWAP1 POP SWAP2 SWAP1 POP JUMP JUMPDEST PUSH2 0xBB3 DUP2 PUSH2 0xBA1 JUMP JUMPDEST DUP2 EQ PUSH2 0xBBD JUMPI PUSH0 PUSH0 REVERT JUMPDEST POP JUMP JUMPDEST PUSH0 DUP2 CALLDATALOAD SWAP1 POP PUSH2 0xBCE DUP2 PUSH2 0xBAA JUMP JUMPDEST SWAP3 SWAP2 POP POP JUMP JUMPDEST PUSH0 PUSH0 REVERT JUMPDEST PUSH0 PUSH0 REVERT JUMPDEST PUSH0 PUSH1 0x1F NOT PUSH1 0x1F DUP4 ADD AND SWAP1 POP SWAP2 SWAP1 POP JUMP JUMPDEST PUSH32 0x4E487B7100000000000000000000000000000000000000000000000000000000 PUSH0 MSTORE PUSH1 0x41 PUSH1 0x4 MSTORE PUSH1 0x24 PUSH0 REVERT JUMPDEST PUSH2 0xC22 DUP3 PUSH2 0xBDC JUMP JUMPDEST DUP2 ADD DUP2 DUP2 LT PUSH8 0xFFFFFFFFFFFFFFFF DUP3 GT OR ISZERO PUSH2 0xC41 JUMPI PUSH2 0xC40 PUSH2 0xBEC JUMP JUMPDEST JUMPDEST DUP1 PUSH1 0x40 MSTORE POP POP POP JUMP JUMPDEST PUSH0 PUSH2 0xC53 PUSH2 0xB90 JUMP JUMPDEST SWAP1 POP PUSH2 0xC5F DUP3 DUP3 PUSH2 0xC19 JUMP JUMPDEST SWAP2 SWAP1 POP JUMP JUMPDEST PUSH0 PUSH8 0xFFFFFFFFFFFFFFFF DUP3 GT ISZERO PUSH2 0xC7E JUMPI PUSH2 0xC7D PUSH2 0xBEC JUMP JUMPDEST JUMPDEST PUSH2 0xC87 DUP3 PUSH2 0xBDC JUMP JUMPDEST SWAP1 POP PUSH1 0x20 DUP2 ADD SWAP1 POP SWAP2 SWAP1 POP JUMP JUMPDEST DUP3 DUP2 DUP4 CALLDATACOPY PUSH0 DUP4 DUP4 ADD MSTORE POP POP POP JUMP JUMPDEST PUSH0 PUSH2 0xCB4 PUSH2 0xCAF DUP5 PUSH2 0xC64 JUMP JUMPDEST PUSH2 0xC4A JUMP JUMPDEST SWAP1 POP DUP3 DUP2 MSTORE PUSH1 0x20 DUP2 ADD DUP5 DUP5 DUP5 ADD GT ISZERO PUSH2 0xCD0 JUMPI PUSH2 0xCCF PUSH2 0xBD8 JUMP JUMPDEST JUMPDEST PUSH2 0xCDB DUP5 DUP3 DUP6 PUSH2 0xC94 JUMP JUMPDEST POP SWAP4 SWAP3 POP POP POP JUMP JUMPDEST PUSH0 DUP3 PUSH1 0x1F DUP4 ADD SLT PUSH2 0xCF7 JUMPI PUSH2 0xCF6 PUSH2 0xBD4 JUMP JUMPDEST JUMPDEST DUP2 CALLDATALOAD PUSH2 0xD07 DUP5 DUP3 PUSH1 0x20 DUP7 ADD PUSH2 0xCA2 JUMP JUMPDEST SWAP2 POP POP SWAP3 SWAP2 POP POP JUMP JUMPDEST PUSH0 PUSH0 PUSH0 PUSH1 0x60 DUP5 DUP7 SUB SLT ISZERO PUSH2 0xD27 JUMPI PUSH2 0xD26 PUSH2 0xB99 JUMP JUMPDEST JUMPDEST PUSH0 PUSH2 0xD34 DUP7 DUP3 DUP8 ADD PUSH2 0xBC0 JUMP JUMPDEST SWAP4 POP POP PUSH1 0x20 DUP5 ADD CALLDATALOAD PUSH8 0xFFFFFFFFFFFFFFFF DUP2 GT ISZERO PUSH2 0xD55 JUMPI PUSH2 0xD54 PUSH2 0xB9D JUMP JUMPDEST JUMPDEST PUSH2 0xD61 DUP7 DUP3 DUP8 ADD PUSH2 0xCE3 JUMP JUMPDEST SWAP3 POP POP PUSH1 0x40 DUP5 ADD CALLDATALOAD PUSH8 0xFFFFFFFFFFFFFFFF DUP2 GT ISZERO PUSH2 0xD82 JUMPI PUSH2 0xD81 PUSH2 0xB9D JUMP JUMPDEST JUMPDEST PUSH2 0xD8E DUP7 DUP3 DUP8 ADD PUSH2 0xCE3 JUMP JUMPDEST SWAP2 POP POP SWAP3 POP SWAP3 POP SWAP3 JUMP JUMPDEST PUSH0 PUSH0 PUSH1 0x40 DUP4 DUP6 SUB SLT ISZERO PUSH2 0xDAE JUMPI PUSH2 0xDAD PUSH2 0xB99 JUMP JUMPDEST JUMPDEST PUSH0 DUP4 ADD CALLDATALOAD PUSH8 0xFFFFFFFFFFFFFFFF DUP2 GT ISZERO PUSH2 0xDCB JUMPI PUSH2 0xDCA PUSH2 0xB9D JUMP JUMPDEST JUMPDEST PUSH2 0xDD7 DUP6 DUP3 DUP7 ADD PUSH2 0xCE3 JUMP JUMPDEST SWAP3 POP POP PUSH1 0x20 DUP4 ADD CALLDATALOAD PUSH8 0xFFFFFFFFFFFFFFFF DUP2 GT ISZERO PUSH2 0xDF8 JUMPI PUSH2 0xDF7 PUSH2 0xB9D JUMP JUMPDEST JUMPDEST PUSH2 0xE04 DUP6 DUP3 DUP7 ADD PUSH2 0xCE3 JUMP JUMPDEST SWAP2 POP POP SWAP3 POP SWAP3 SWAP1 POP JUMP JUMPDEST PUSH0 PUSH1 0x20 DUP3 DUP5 SUB SLT ISZERO PUSH2 0xE23 JUMPI PUSH2 0xE22 PUSH2 0xB99 JUMP JUMPDEST JUMPDEST PUSH0 PUSH2 0xE30 DUP5 DUP3 DUP6 ADD PUSH2 0xBC0 JUMP JUMPDEST SWAP2 POP POP SWAP3 SWAP2 POP POP JUMP JUMPDEST PUSH0 DUP2 MLOAD SWAP1 POP SWAP2 SWAP1 POP JUMP JUMPDEST PUSH0 DUP3 DUP3 MSTORE PUSH1 0x20 DUP3 ADD SWAP1 POP SWAP3 SWAP2 POP POP JUMP JUMPDEST PUSH0 DUP2 SWAP1 POP PUSH1 0x20 DUP3 ADD SWAP1 POP SWAP2 SWAP1 POP JUMP JUMPDEST PUSH2 0xE6B DUP2 PUSH2 0xBA1 JUMP JUMPDEST DUP3 MSTORE POP POP JUMP JUMPDEST PUSH0 DUP2 MLOAD SWAP1 POP SWAP2 SWAP1 POP JUMP JUMPDEST PUSH0 DUP3 DUP3 MSTORE PUSH1 0x20 DUP3 ADD SWAP1 POP SWAP3 SWAP2 POP POP JUMP JUMPDEST DUP3 DUP2 DUP4 MCOPY PUSH0 DUP4 DUP4 ADD MSTORE POP POP POP JUMP JUMPDEST PUSH0 PUSH2 0xEA3 DUP3 PUSH2 0xE71 JUMP JUMPDEST PUSH2 0xEAD DUP2 DUP6 PUSH2 0xE7B JUMP JUMPDEST SWAP4 POP PUSH2 0xEBD DUP2 DUP6 PUSH1 0x20 DUP7 ADD PUSH2 0xE8B JUMP JUMPDEST PUSH2 0xEC6 DUP2 PUSH2 0xBDC JUMP JUMPDEST DUP5 ADD SWAP2 POP POP SWAP3 SWAP2 POP POP JUMP JUMPDEST PUSH0 DUP2 ISZERO ISZERO SWAP1 POP SWAP2 SWAP1 POP JUMP JUMPDEST PUSH2 0xEE5 DUP2 PUSH2 0xED1 JUMP JUMPDEST DUP3 MSTORE POP POP JUMP JUMPDEST PUSH0 PUSH1 0xA0 DUP4 ADD PUSH0 DUP4 ADD MLOAD PUSH2 0xF00 PUSH0 DUP7 ADD DUP3 PUSH2 0xE62 JUMP JUMPDEST POP PUSH1 0x20 DUP4 ADD MLOAD DUP5 DUP3 SUB PUSH1 0x20 DUP7 ADD MSTORE PUSH2 0xF18 DUP3 DUP3 PUSH2 0xE99 JUMP JUMPDEST SWAP2 POP POP PUSH1 0x40 DUP4 ADD MLOAD DUP5 DUP3 SUB PUSH1 0x40 DUP7 ADD MSTORE PUSH2 0xF32 DUP3 DUP3 PUSH2 0xE99 JUMP JUMPDEST SWAP2 POP POP PUSH1 0x60 DUP4 ADD MLOAD PUSH2 0xF47 PUSH1 0x60 DUP7 ADD DUP3 PUSH2 0xEDC JUMP JUMPDEST POP PUSH1 0x80 DUP4 ADD MLOAD PUSH2 0xF5A PUSH1 0x80 DUP7 ADD DUP3 PUSH2 0xE62 JUMP JUMPDEST POP DUP1 SWAP2 POP POP SWAP3 SWAP2 POP POP JUMP JUMPDEST PUSH0 PUSH2 0xF70 DUP4 DUP4 PUSH2 0xEEB JUMP JUMPDEST SWAP1 POP SWAP3 SWAP2 POP POP JUMP JUMPDEST PUSH0 PUSH1 0x20 DUP3 ADD SWAP1 POP SWAP2 SWAP1 POP JUMP JUMPDEST PUSH0 PUSH2 0xF8E DUP3 PUSH2 0xE39 JUMP JUMPDEST PUSH2 0xF98 DUP2 DUP6 PUSH2 0xE43 JUMP JUMPDEST SWAP4 POP DUP4 PUSH1 0x20 DUP3 MUL DUP6 ADD PUSH2 0xFAA DUP6 PUSH2 0xE53 JUMP JUMPDEST DUP1 PUSH0 JUMPDEST DUP6 DUP2 LT ISZERO PUSH2 0xFE5 JUMPI DUP5 DUP5 SUB DUP10 MSTORE DUP2 MLOAD PUSH2 0xFC6 DUP6 DUP3 PUSH2 0xF65 JUMP JUMPDEST SWAP5 POP PUSH2 0xFD1 DUP4 PUSH2 0xF78 JUMP JUMPDEST SWAP3 POP PUSH1 0x20 DUP11 ADD SWAP10 POP POP PUSH1 0x1 DUP2 ADD SWAP1 POP PUSH2 0xFAD JUMP JUMPDEST POP DUP3 SWAP8 POP DUP8 SWAP6 POP POP POP POP POP POP SWAP3 SWAP2 POP POP JUMP JUMPDEST PUSH0 PUSH1 0x20 DUP3 ADD SWAP1 POP DUP2 DUP2 SUB PUSH0 DUP4 ADD MSTORE PUSH2 0x100F DUP2 DUP5 PUSH2 0xF84 JUMP JUMPDEST SWAP1 POP SWAP3 SWAP2 POP POP JUMP JUMPDEST PUSH0 DUP3 DUP3 MSTORE PUSH1 0x20 DUP3 ADD SWAP1 POP SWAP3 SWAP2 POP POP JUMP JUMPDEST PUSH32 0x496E76616C696420496E64657800000000000000000000000000000000000000 PUSH0 DUP3 ADD MSTORE POP JUMP JUMPDEST PUSH0 PUSH2 0x105B PUSH1 0xD DUP4 PUSH2 0x1017 JUMP JUMPDEST SWAP2 POP PUSH2 0x1066 DUP3 PUSH2 0x1027 JUMP JUMPDEST PUSH1 0x20 DUP3 ADD SWAP1 POP SWAP2 SWAP1 POP JUMP JUMPDEST PUSH0 PUSH1 0x20 DUP3 ADD SWAP1 POP DUP2 DUP2 SUB PUSH0 DUP4 ADD MSTORE PUSH2 0x1088 DUP2 PUSH2 0x104F JUMP JUMPDEST SWAP1 POP SWAP2 SWAP1 POP JUMP JUMPDEST PUSH32 0x4E487B7100000000000000000000000000000000000000000000000000000000 PUSH0 MSTORE PUSH1 0x32 PUSH1 0x4 MSTORE PUSH1 0x24 PUSH0 REVERT JUMPDEST PUSH32 0x4E6F74652044656C657465640000000000000000000000000000000000000000 PUSH0 DUP3 ADD MSTORE POP JUMP JUMPDEST PUSH0 PUSH2 0x10F0 PUSH1 0xC DUP4 PUSH2 0x1017 JUMP JUMPDEST SWAP2 POP PUSH2 0x10FB DUP3 PUSH2 0x10BC JUMP JUMPDEST PUSH1 0x20 DUP3 ADD SWAP1 POP SWAP2 SWAP1 POP JUMP JUMPDEST PUSH0 PUSH1 0x20 DUP3 ADD SWAP1 POP DUP2 DUP2 SUB PUSH0 DUP4 ADD MSTORE PUSH2 0x111D DUP2 PUSH2 0x10E4 JUMP JUMPDEST SWAP1 POP SWAP2 SWAP1 POP JUMP JUMPDEST PUSH32 0x4E487B7100000000000000000000000000000000000000000000000000000000 PUSH0 MSTORE PUSH1 0x22 PUSH1 0x4 MSTORE PUSH1 0x24 PUSH0 REVERT JUMPDEST PUSH0 PUSH1 0x2 DUP3 DIV SWAP1 POP PUSH1 0x1 DUP3 AND DUP1 PUSH2 0x1168 JUMPI PUSH1 0x7F DUP3 AND SWAP2 POP JUMPDEST PUSH1 0x20 DUP3 LT DUP2 SUB PUSH2 0x117B JUMPI PUSH2 0x117A PUSH2 0x1124 JUMP JUMPDEST JUMPDEST POP SWAP2 SWAP1 POP JUMP JUMPDEST PUSH0 DUP2 SWAP1 POP DUP2 PUSH0 MSTORE PUSH1 0x20 PUSH0 KECCAK256 SWAP1 POP SWAP2 SWAP1 POP JUMP JUMPDEST PUSH0 PUSH1 0x20 PUSH1 0x1F DUP4 ADD DIV SWAP1 POP SWAP2 SWAP1 POP JUMP JUMPDEST PUSH0 DUP3 DUP3 SHL SWAP1 POP SWAP3 SWAP2 POP POP JUMP JUMPDEST PUSH0 PUSH1 0x8 DUP4 MUL PUSH2 0x11DD PUSH32 0xFFFFFFFFFFFFFFFFFFFFFFFFFFFFFFFFFFFFFFFFFFFFFFFFFFFFFFFFFFFFFFFF DUP3 PUSH2 0x11A2 JUMP JUMPDEST PUSH2 0x11E7 DUP7 DUP4 PUSH2 0x11A2 JUMP JUMPDEST SWAP6 POP DUP1 NOT DUP5 AND SWAP4 POP DUP1 DUP7 AND DUP5 OR SWAP3 POP POP POP SWAP4 SWAP3 POP POP POP JUMP JUMPDEST PUSH0 DUP2 SWAP1 POP SWAP2 SWAP1 POP JUMP JUMPDEST PUSH0 PUSH2 0x1222 PUSH2 0x121D PUSH2 0x1218 DUP5 PUSH2 0xBA1 JUMP JUMPDEST PUSH2 0x11FF JUMP JUMPDEST PUSH2 0xBA1 JUMP JUMPDEST SWAP1 POP SWAP2 SWAP1 POP JUMP JUMPDEST PUSH0 DUP2 SWAP1 POP SWAP2 SWAP1 POP JUMP JUMPDEST PUSH2 0x123B DUP4 PUSH2 0x1208 JUMP JUMPDEST PUSH2 0x124F PUSH2 0x1247 DUP3 PUSH2 0x1229 JUMP JUMPDEST DUP5 DUP5 SLOAD PUSH2 0x11AE JUMP JUMPDEST DUP3 SSTORE POP POP POP POP JUMP JUMPDEST PUSH0 PUSH0 SWAP1 POP SWAP1 JUMP JUMPDEST PUSH2 0x1266 PUSH2 0x1257 JUMP JUMPDEST PUSH2 0x1271 DUP2 DUP5 DUP5 PUSH2 0x1232 JUMP JUMPDEST POP POP POP JUMP JUMPDEST JUMPDEST DUP2 DUP2 LT ISZERO PUSH2 0x1294 JUMPI PUSH2 0x1289 PUSH0 DUP3 PUSH2 0x125E JUMP JUMPDEST PUSH1 0x1 DUP2 ADD SWAP1 POP PUSH2 0x1277 JUMP JUMPDEST POP POP JUMP JUMPDEST PUSH1 0x1F DUP3 GT ISZERO PUSH2 0x12D9 JUMPI PUSH2 0x12AA DUP2 PUSH2 0x1181 JUMP JUMPDEST PUSH2 0x12B3 DUP5 PUSH2 0x1193 JUMP JUMPDEST DUP2 ADD PUSH1 0x20 DUP6 LT ISZERO PUSH2 0x12C2 JUMPI DUP2 SWAP1 POP JUMPDEST PUSH2 0x12D6 PUSH2 0x12CE DUP6 PUSH2 0x1193 JUMP JUMPDEST DUP4 ADD DUP3 PUSH2 0x1276 JUMP JUMPDEST POP POP JUMPDEST POP POP POP JUMP JUMPDEST PUSH0 DUP3 DUP3 SHR SWAP1 POP SWAP3 SWAP2 POP POP JUMP JUMPDEST PUSH0 PUSH2 0x12F9 PUSH0 NOT DUP5 PUSH1 0x8 MUL PUSH2 0x12DE JUMP JUMPDEST NOT DUP1 DUP4 AND SWAP2 POP POP SWAP3 SWAP2 POP POP JUMP JUMPDEST PUSH0 PUSH2 0x1311 DUP4 DUP4 PUSH2 0x12EA JUMP JUMPDEST SWAP2 POP DUP3 PUSH1 0x2 MUL DUP3 OR SWAP1 POP SWAP3 SWAP2 POP POP JUMP JUMPDEST PUSH2 0x132A DUP3 PUSH2 0xE71 JUMP JUMPDEST PUSH8 0xFFFFFFFFFFFFFFFF DUP2 GT ISZERO PUSH2 0x1343 JUMPI PUSH2 0x1342 PUSH2 0xBEC JUMP JUMPDEST JUMPDEST PUSH2 0x134D DUP3 SLOAD PUSH2 0x1151 JUMP JUMPDEST PUSH2 0x1358 DUP3 DUP3 DUP6 PUSH2 0x1298 JUMP JUMPDEST PUSH0 PUSH1 0x20 SWAP1 POP PUSH1 0x1F DUP4 GT PUSH1 0x1 DUP2 EQ PUSH2 0x1389 JUMPI PUSH0 DUP5 ISZERO PUSH2 0x1377 JUMPI DUP3 DUP8 ADD MLOAD SWAP1 POP JUMPDEST PUSH2 0x1381 DUP6 DUP3 PUSH2 0x1306 JUMP JUMPDEST DUP7 SSTORE POP PUSH2 0x13E8 JUMP JUMPDEST PUSH1 0x1F NOT DUP5 AND PUSH2 0x1397 DUP7 PUSH2 0x1181 JUMP JUMPDEST PUSH0 JUMPDEST DUP3 DUP2 LT ISZERO PUSH2 0x13BE JUMPI DUP5 DUP10 ADD MLOAD DUP3 SSTORE PUSH1 0x1 DUP3 ADD SWAP2 POP PUSH1 0x20 DUP6 ADD SWAP5 POP PUSH1 0x20 DUP2 ADD SWAP1 POP PUSH2 0x1399 JUMP JUMPDEST DUP7 DUP4 LT ISZERO PUSH2 0x13DB JUMPI DUP5 DUP10 ADD MLOAD PUSH2 0x13D7 PUSH1 0x1F DUP10 AND DUP3 PUSH2 0x12EA JUMP JUMPDEST DUP4 SSTORE POP JUMPDEST PUSH1 0x1 PUSH1 0x2 DUP9 MUL ADD DUP9 SSTORE POP POP POP JUMPDEST POP POP POP POP POP POP JUMP JUMPDEST PUSH0 PUSH20 0xFFFFFFFFFFFFFFFFFFFFFFFFFFFFFFFFFFFFFFFF DUP3 AND SWAP1 POP SWAP2 SWAP1 POP JUMP JUMPDEST PUSH0 PUSH2 0x1419 DUP3 PUSH2 0x13F0 JUMP JUMPDEST SWAP1 POP SWAP2 SWAP1 POP JUMP JUMPDEST PUSH2 0x1429 DUP2 PUSH2 0x140F JUMP JUMPDEST DUP3 MSTORE POP POP JUMP JUMPDEST PUSH2 0x1438 DUP2 PUSH2 0xBA1 JUMP JUMPDEST DUP3 MSTORE POP POP JUMP JUMPDEST PUSH0 PUSH2 0x1448 DUP3 PUSH2 0xE71 JUMP JUMPDEST PUSH2 0x1452 DUP2 DUP6 PUSH2 0x1017 JUMP JUMPDEST SWAP4 POP PUSH2 0x1462 DUP2 DUP6 PUSH1 0x20 DUP7 ADD PUSH2 0xE8B JUMP JUMPDEST PUSH2 0x146B DUP2 PUSH2 0xBDC JUMP JUMPDEST DUP5 ADD SWAP2 POP POP SWAP3 SWAP2 POP POP JUMP JUMPDEST PUSH0 PUSH1 0x80 DUP3 ADD SWAP1 POP PUSH2 0x1489 PUSH0 DUP4 ADD DUP8 PUSH2 0x1420 JUMP JUMPDEST PUSH2 0x1496 PUSH1 0x20 DUP4 ADD DUP7 PUSH2 0x142F JUMP JUMPDEST DUP2 DUP2 SUB PUSH1 0x40 DUP4 ADD MSTORE PUSH2 0x14A8 DUP2 DUP6 PUSH2 0x143E JUMP JUMPDEST SWAP1 POP DUP2 DUP2 SUB PUSH1 0x60 DUP4 ADD MSTORE PUSH2 0x14BC DUP2 DUP5 PUSH2 0x143E JUMP JUMPDEST SWAP1 POP SWAP6 SWAP5 POP POP POP POP POP JUMP JUMPDEST PUSH32 0x4E487B7100000000000000000000000000000000000000000000000000000000 PUSH0 MSTORE PUSH1 0x11 PUSH1 0x4 MSTORE PUSH1 0x24 PUSH0 REVERT JUMPDEST PUSH0 PUSH2 0x14FE DUP3 PUSH2 0xBA1 JUMP JUMPDEST SWAP2 POP PUSH2 0x1509 DUP4 PUSH2 0xBA1 JUMP JUMPDEST SWAP3 POP DUP3 DUP3 SUB SWAP1 POP DUP2 DUP2 GT ISZERO PUSH2 0x1521 JUMPI PUSH2 0x1520 PUSH2 0x14C7 JUMP JUMPDEST JUMPDEST SWAP3 SWAP2 POP POP JUMP JUMPDEST PUSH0 PUSH1 0x60 DUP3 ADD SWAP1 POP PUSH2 0x153A PUSH0 DUP4 ADD DUP7 PUSH2 0x1420 JUMP JUMPDEST DUP2 DUP2 SUB PUSH1 0x20 DUP4 ADD MSTORE PUSH2 0x154C DUP2 DUP6 PUSH2 0x143E JUMP JUMPDEST SWAP1 POP PUSH2 0x155B PUSH1 0x40 DUP4 ADD DUP5 PUSH2 0x142F JUMP JUMPDEST SWAP5 SWAP4 POP POP POP POP JUMP JUMPDEST PUSH32 0x4E6F746520416C72656164792044656C65746564210000000000000000000000 PUSH0 DUP3 ADD MSTORE POP JUMP JUMPDEST PUSH0 PUSH2 0x1597 PUSH1 0x15 DUP4 PUSH2 0x1017 JUMP JUMPDEST SWAP2 POP PUSH2 0x15A2 DUP3 PUSH2 0x1563 JUMP JUMPDEST PUSH1 0x20 DUP3 ADD SWAP1 POP SWAP2 SWAP1 POP JUMP JUMPDEST PUSH0 PUSH1 0x20 DUP3 ADD SWAP1 POP DUP2 DUP2 SUB PUSH0 DUP4 ADD MSTORE PUSH2 0x15C4 DUP2 PUSH2 0x158B JUMP JUMPDEST SWAP1 POP SWAP2 SWAP1 POP JUMP JUMPDEST PUSH0 PUSH1 0x40 DUP3 ADD SWAP1 POP PUSH2 0x15DE PUSH0 DUP4 ADD DUP6 PUSH2 0x1420 JUMP JUMPDEST PUSH2 0x15EB PUSH1 0x20 DUP4 ADD DUP5 PUSH2 0x142F JUMP JUMPDEST SWAP4 SWAP3 POP POP POP JUMP JUMPDEST PUSH32 0x4E6F204E6F746573204164646564000000000000000000000000000000000000 PUSH0 DUP3 ADD MSTORE POP JUMP JUMPDEST PUSH0 PUSH2 0x1626 PUSH1 0xE DUP4 PUSH2 0x1017 JUMP JUMPDEST SWAP2 POP PUSH2 0x1631 DUP3 PUSH2 0x15F2 JUMP JUMPDEST PUSH1 0x20 DUP3 ADD SWAP1 POP SWAP2 SWAP1 POP JUMP JUMPDEST PUSH0 PUSH1 0x20 DUP3 ADD SWAP1 POP DUP2 DUP2 SUB PUSH0 DUP4 ADD MSTORE PUSH2 0x1653 DUP2 PUSH2 0x161A JUMP JUMPDEST SWAP1 POP SWAP2 SWAP1 POP JUMP JUMPDEST PUSH0 PUSH2 0x1664 DUP3 PUSH2 0xBA1 JUMP JUMPDEST SWAP2 POP PUSH32 0xFFFFFFFFFFFFFFFFFFFFFFFFFFFFFFFFFFFFFFFFFFFFFFFFFFFFFFFFFFFFFFFF DUP3 SUB PUSH2 0x1696 JUMPI PUSH2 0x1695 PUSH2 0x14C7 JUMP JUMPDEST JUMPDEST PUSH1 0x1 DUP3 ADD SWAP1 POP SWAP2 SWAP1 POP JUMP INVALID LOG2 PUSH5 0x6970667358 0x22 SLT KECCAK256 EXP 0x2C BALANCE SIGNEXTEND 0xBB PUSH14 0xC63C3D2F79DD7375C8EBDF1396E MSTORE8 CALLCODE EXP CALLDATASIZE 0xD2 PUSH3 0xF01290 PUSH20 0x8E5264736F6C634300081E003300000000000000 "
				},
				"gasEstimates": {
					"creation": {
						"codeDepositCost": "1169400",
						"executionCost": "1212",
						"totalCost": "1170612"
					},
					"external": {
						"addNote(string,string)": "infinite",
						"deleteNote(uint256)": "infinite",
						"getAllNotes()": "infinite",
						"updateNote(uint256,string,string)": "infinite"
					}
				},
				"methodIdentifiers": {
					"addNote(string,string)": "2fdccd0b",
					"deleteNote(uint256)": "c47177f4",
					"getAllNotes()": "de8f430c",
					"updateNote(uint256,string,string)": "09abcd3b"
				}
			},
			"storageLayout": {
				"storage": [
					{
						"astId": 18,
						"contract": "contracts/deccentralized_notes_app.sol:NotesApp",
						"label": "savedNotes",
						"offset": 0,
						"slot": "0",
						"type": "t_mapping(t_address,t_array(t_struct(Note)12_storage)dyn_storage)"
					}
				],
				"types": {
					"t_address": {
						"encoding": "inplace",
						"label": "address",
						"numberOfBytes": "20"
					},
					"t_array(t_struct(Note)12_storage)dyn_storage": {
						"base": "t_struct(Note)12_storage",
						"encoding": "dynamic_array",
						"label": "struct NotesApp.Note[]",
						"numberOfBytes": "32"
					},
					"t_bool": {
						"encoding": "inplace",
						"label": "bool",
						"numberOfBytes": "1"
					},
					"t_mapping(t_address,t_array(t_struct(Note)12_storage)dyn_storage)": {
						"encoding": "mapping",
						"key": "t_address",
						"label": "mapping(address => struct NotesApp.Note[])",
						"numberOfBytes": "32",
						"value": "t_array(t_struct(Note)12_storage)dyn_storage"
					},
					"t_string_storage": {
						"encoding": "bytes",
						"label": "string",
						"numberOfBytes": "32"
					},
					"t_struct(Note)12_storage": {
						"encoding": "inplace",
						"label": "struct NotesApp.Note",
						"members": [
							{
								"astId": 3,
								"contract": "contracts/deccentralized_notes_app.sol:NotesApp",
								"label": "idx",
								"offset": 0,
								"slot": "0",
								"type": "t_uint256"
							},
							{
								"astId": 5,
								"contract": "contracts/deccentralized_notes_app.sol:NotesApp",
								"label": "title",
								"offset": 0,
								"slot": "1",
								"type": "t_string_storage"
							},
							{
								"astId": 7,
								"contract": "contracts/deccentralized_notes_app.sol:NotesApp",
								"label": "content",
								"offset": 0,
								"slot": "2",
								"type": "t_string_storage"
							},
							{
								"astId": 9,
								"contract": "contracts/deccentralized_notes_app.sol:NotesApp",
								"label": "isDeleted",
								"offset": 0,
								"slot": "3",
								"type": "t_bool"
							},
							{
								"astId": 11,
								"contract": "contracts/deccentralized_notes_app.sol:NotesApp",
								"label": "timeStamp",
								"offset": 0,
								"slot": "4",
								"type": "t_uint256"
							}
						],
						"numberOfBytes": "160"
					},
					"t_uint256": {
						"encoding": "inplace",
						"label": "uint256",
						"numberOfBytes": "32"
					}
				}
			},
			"userdoc": {
				"kind": "user",
				"methods": {},
				"version": 1
			}
		}
	}
}